{
  "contractName": "OwnableData",
  "abi": [
    {
      "inputs": [],
      "name": "owner",
      "outputs": [
        {
          "internalType": "address",
          "name": "",
          "type": "address"
        }
      ],
      "stateMutability": "view",
      "type": "function"
    },
    {
      "inputs": [],
      "name": "pendingOwner",
      "outputs": [
        {
          "internalType": "address",
          "name": "",
          "type": "address"
        }
      ],
      "stateMutability": "view",
      "type": "function"
    }
  ],
  "bytecode": "0x608060405234801561001057600080fd5b50d3801561001d57600080fd5b50d2801561002a57600080fd5b5060c5806100396000396000f3fe6080604052348015600f57600080fd5b50d38015601b57600080fd5b50d28015602757600080fd5b5060043610604a5760003560e01c80638da5cb5b14604f578063e30c397814607d575b600080fd5b6000546061906001600160a01b031681565b6040516001600160a01b03909116815260200160405180910390f35b6001546061906001600160a01b03168156fea26474726f6e5822122011c5f3f42efd754aacf552ee7eac853aa0e30dca29c11ebd6044eafc367637b564736f6c63430008060033",
  "source": "// SPDX-License-Identifier: MIT\n// Audit on 5-Jan-2021 by Keno and BoringCrypto\n\n// P1 - P3: OK\npragma solidity 0.8.6;\n\n// Source: https://github.com/OpenZeppelin/openzeppelin-contracts/blob/master/contracts/access/Ownable.sol + Claimable.sol\n// Edited by BoringCrypto\n\n// T1 - T4: OK\ncontract OwnableData {\n    // V1 - V5: OK\n    address public owner;\n    // V1 - V5: OK\n    address public pendingOwner;\n}\n\n// T1 - T4: OK\ncontract Ownable is OwnableData {\n    // E1: OK\n    event OwnershipTransferred(address indexed previousOwner, address indexed newOwner);\n\n    constructor ()  {\n        owner = msg.sender;\n        emit OwnershipTransferred(address(0), msg.sender);\n    }\n\n    // F1 - F9: OK\n    // C1 - C21: OK\n    function transferOwnership(address newOwner, bool direct, bool renounce) public onlyOwner {\n        if (direct) {\n            // Checks\n            require(newOwner != address(0) || renounce, \"Ownable: zero address\");\n\n            // Effects\n            emit OwnershipTransferred(owner, newOwner);\n            owner = newOwner;\n        } else {\n            // Effects\n            pendingOwner = newOwner;\n        }\n    }\n\n    // F1 - F9: OK\n    // C1 - C21: OK\n    function claimOwnership() public {\n        address _pendingOwner = pendingOwner;\n\n        // Checks\n        require(msg.sender == _pendingOwner, \"Ownable: caller != pending owner\");\n\n        // Effects\n        emit OwnershipTransferred(owner, _pendingOwner);\n        owner = _pendingOwner;\n        pendingOwner = address(0);\n    }\n\n    // M1 - M5: OK\n    // C1 - C21: OK\n    modifier onlyOwner() {\n        require(msg.sender == owner, \"Ownable: caller is not the owner\");\n        _;\n    }\n}",
  "sourcePath": "C:/Dev/daubit/github/tracy-tron/tracy-tron/contracts/contracts/sunswapV2/Ownable.sol",
  "compiler": {
    "name": "solc",
    "version": "0.8.6+commit.0e36fba0.mod.Emscripten.clang"
  },
  "schemaVersion": "2.0.1",
  "updatedAt": "2022-11-11T13:34:08.906Z"
}