{
  "contractName": "SocialswapRouter",
  "abi": [
    {
      "inputs": [
        {
          "internalType": "address",
          "name": "_factory",
          "type": "address"
        },
        {
          "internalType": "address",
          "name": "_wtrx",
          "type": "address"
        }
      ],
      "stateMutability": "nonpayable",
      "type": "constructor"
    },
    {
      "stateMutability": "payable",
      "type": "fallback",
      "name": "fallback"
    },
    {
      "inputs": [
        {
          "internalType": "address",
          "name": "tokenA",
          "type": "address"
        },
        {
          "internalType": "address",
          "name": "tokenB",
          "type": "address"
        },
        {
          "internalType": "uint256",
          "name": "amountADesired",
          "type": "uint256"
        },
        {
          "internalType": "uint256",
          "name": "amountBDesired",
          "type": "uint256"
        },
        {
          "internalType": "uint256",
          "name": "amountAMin",
          "type": "uint256"
        },
        {
          "internalType": "uint256",
          "name": "amountBMin",
          "type": "uint256"
        },
        {
          "internalType": "address",
          "name": "to",
          "type": "address"
        },
        {
          "internalType": "uint256",
          "name": "deadline",
          "type": "uint256"
        }
      ],
      "name": "addLiquidity",
      "outputs": [
        {
          "internalType": "uint256",
          "name": "amountA",
          "type": "uint256"
        },
        {
          "internalType": "uint256",
          "name": "amountB",
          "type": "uint256"
        },
        {
          "internalType": "uint256",
          "name": "liquidity",
          "type": "uint256"
        }
      ],
      "stateMutability": "nonpayable",
      "type": "function"
    },
    {
      "inputs": [
        {
          "internalType": "address",
          "name": "token",
          "type": "address"
        },
        {
          "internalType": "uint256",
          "name": "amountTokenDesired",
          "type": "uint256"
        },
        {
          "internalType": "uint256",
          "name": "amountTokenMin",
          "type": "uint256"
        },
        {
          "internalType": "uint256",
          "name": "amountTRXMin",
          "type": "uint256"
        },
        {
          "internalType": "address",
          "name": "to",
          "type": "address"
        },
        {
          "internalType": "uint256",
          "name": "deadline",
          "type": "uint256"
        }
      ],
      "name": "addLiquidityTRX",
      "outputs": [
        {
          "internalType": "uint256",
          "name": "amountToken",
          "type": "uint256"
        },
        {
          "internalType": "uint256",
          "name": "amountTRX",
          "type": "uint256"
        },
        {
          "internalType": "uint256",
          "name": "liquidity",
          "type": "uint256"
        }
      ],
      "stateMutability": "payable",
      "type": "function"
    },
    {
      "inputs": [
        {
          "internalType": "uint256",
          "name": "amountA",
          "type": "uint256"
        },
        {
          "internalType": "address",
          "name": "tokenA",
          "type": "address"
        },
        {
          "internalType": "address",
          "name": "tokenB",
          "type": "address"
        },
        {
          "internalType": "bool",
          "name": "reverse",
          "type": "bool"
        }
      ],
      "name": "calcPairLiquidity",
      "outputs": [
        {
          "internalType": "uint256",
          "name": "amountB",
          "type": "uint256"
        },
        {
          "internalType": "uint256",
          "name": "share",
          "type": "uint256"
        }
      ],
      "stateMutability": "view",
      "type": "function"
    },
    {
      "inputs": [
        {
          "internalType": "uint256",
          "name": "amountA",
          "type": "uint256"
        },
        {
          "internalType": "address",
          "name": "tokenA",
          "type": "address"
        },
        {
          "internalType": "address",
          "name": "tokenB",
          "type": "address"
        },
        {
          "internalType": "bool",
          "name": "reverse",
          "type": "bool"
        }
      ],
      "name": "calcPairSwap",
      "outputs": [
        {
          "internalType": "uint256",
          "name": "amountB",
          "type": "uint256"
        },
        {
          "internalType": "uint256",
          "name": "priceImpact",
          "type": "uint256"
        }
      ],
      "stateMutability": "view",
      "type": "function"
    },
    {
      "inputs": [],
      "name": "factory",
      "outputs": [
        {
          "internalType": "address",
          "name": "",
          "type": "address"
        }
      ],
      "stateMutability": "view",
      "type": "function"
    },
    {
      "inputs": [
        {
          "internalType": "uint256",
          "name": "amountOut",
          "type": "uint256"
        },
        {
          "internalType": "address[]",
          "name": "path",
          "type": "address[]"
        }
      ],
      "name": "getAmountsIn",
      "outputs": [
        {
          "internalType": "uint256[]",
          "name": "amounts",
          "type": "uint256[]"
        }
      ],
      "stateMutability": "view",
      "type": "function"
    },
    {
      "inputs": [
        {
          "internalType": "uint256",
          "name": "amountIn",
          "type": "uint256"
        },
        {
          "internalType": "address[]",
          "name": "path",
          "type": "address[]"
        }
      ],
      "name": "getAmountsOut",
      "outputs": [
        {
          "internalType": "uint256[]",
          "name": "amounts",
          "type": "uint256[]"
        }
      ],
      "stateMutability": "view",
      "type": "function"
    },
    {
      "inputs": [
        {
          "internalType": "address",
          "name": "owner",
          "type": "address"
        },
        {
          "internalType": "address",
          "name": "tokenA",
          "type": "address"
        },
        {
          "internalType": "address",
          "name": "tokenB",
          "type": "address"
        }
      ],
      "name": "getPair",
      "outputs": [
        {
          "internalType": "address",
          "name": "pair",
          "type": "address"
        },
        {
          "internalType": "uint256",
          "name": "totalSupply",
          "type": "uint256"
        },
        {
          "internalType": "uint256",
          "name": "supply",
          "type": "uint256"
        },
        {
          "internalType": "uint256",
          "name": "reserveA",
          "type": "uint256"
        },
        {
          "internalType": "uint256",
          "name": "reserveB",
          "type": "uint256"
        }
      ],
      "stateMutability": "view",
      "type": "function"
    },
    {
      "inputs": [
        {
          "internalType": "address",
          "name": "owner",
          "type": "address"
        },
        {
          "internalType": "uint256",
          "name": "start",
          "type": "uint256"
        },
        {
          "internalType": "uint256",
          "name": "limit",
          "type": "uint256"
        }
      ],
      "name": "getPairs",
      "outputs": [
        {
          "internalType": "uint256",
          "name": "count",
          "type": "uint256"
        },
        {
          "internalType": "address[]",
          "name": "from",
          "type": "address[]"
        },
        {
          "internalType": "address[]",
          "name": "to",
          "type": "address[]"
        },
        {
          "internalType": "uint256[]",
          "name": "supply",
          "type": "uint256[]"
        }
      ],
      "stateMutability": "view",
      "type": "function"
    },
    {
      "inputs": [
        {
          "internalType": "address",
          "name": "tokenA",
          "type": "address"
        },
        {
          "internalType": "address",
          "name": "tokenB",
          "type": "address"
        },
        {
          "internalType": "uint256",
          "name": "liquidity",
          "type": "uint256"
        },
        {
          "internalType": "uint256",
          "name": "amountAMin",
          "type": "uint256"
        },
        {
          "internalType": "uint256",
          "name": "amountBMin",
          "type": "uint256"
        },
        {
          "internalType": "address",
          "name": "to",
          "type": "address"
        },
        {
          "internalType": "uint256",
          "name": "deadline",
          "type": "uint256"
        }
      ],
      "name": "removeLiquidity",
      "outputs": [
        {
          "internalType": "uint256",
          "name": "amountA",
          "type": "uint256"
        },
        {
          "internalType": "uint256",
          "name": "amountB",
          "type": "uint256"
        }
      ],
      "stateMutability": "nonpayable",
      "type": "function"
    },
    {
      "inputs": [
        {
          "internalType": "address",
          "name": "token",
          "type": "address"
        },
        {
          "internalType": "uint256",
          "name": "liquidity",
          "type": "uint256"
        },
        {
          "internalType": "uint256",
          "name": "amountTokenMin",
          "type": "uint256"
        },
        {
          "internalType": "uint256",
          "name": "amountTRXMin",
          "type": "uint256"
        },
        {
          "internalType": "address",
          "name": "to",
          "type": "address"
        },
        {
          "internalType": "uint256",
          "name": "deadline",
          "type": "uint256"
        }
      ],
      "name": "removeLiquidityTRX",
      "outputs": [
        {
          "internalType": "uint256",
          "name": "amountToken",
          "type": "uint256"
        },
        {
          "internalType": "uint256",
          "name": "amountTRX",
          "type": "uint256"
        }
      ],
      "stateMutability": "nonpayable",
      "type": "function"
    },
    {
      "inputs": [
        {
          "internalType": "uint256",
          "name": "amountOutMin",
          "type": "uint256"
        },
        {
          "internalType": "address[]",
          "name": "path",
          "type": "address[]"
        },
        {
          "internalType": "address",
          "name": "to",
          "type": "address"
        },
        {
          "internalType": "uint256",
          "name": "deadline",
          "type": "uint256"
        }
      ],
      "name": "swapExactTRXForTokens",
      "outputs": [
        {
          "internalType": "uint256[]",
          "name": "amounts",
          "type": "uint256[]"
        }
      ],
      "stateMutability": "payable",
      "type": "function"
    },
    {
      "inputs": [
        {
          "internalType": "uint256",
          "name": "amountIn",
          "type": "uint256"
        },
        {
          "internalType": "uint256",
          "name": "amountOutMin",
          "type": "uint256"
        },
        {
          "internalType": "address[]",
          "name": "path",
          "type": "address[]"
        },
        {
          "internalType": "address",
          "name": "to",
          "type": "address"
        },
        {
          "internalType": "uint256",
          "name": "deadline",
          "type": "uint256"
        }
      ],
      "name": "swapExactTokensForTRX",
      "outputs": [
        {
          "internalType": "uint256[]",
          "name": "amounts",
          "type": "uint256[]"
        }
      ],
      "stateMutability": "nonpayable",
      "type": "function"
    },
    {
      "inputs": [
        {
          "internalType": "uint256",
          "name": "amountIn",
          "type": "uint256"
        },
        {
          "internalType": "uint256",
          "name": "amountOutMin",
          "type": "uint256"
        },
        {
          "internalType": "address[]",
          "name": "path",
          "type": "address[]"
        },
        {
          "internalType": "address",
          "name": "to",
          "type": "address"
        },
        {
          "internalType": "uint256",
          "name": "deadline",
          "type": "uint256"
        }
      ],
      "name": "swapExactTokensForTokens",
      "outputs": [
        {
          "internalType": "uint256[]",
          "name": "amounts",
          "type": "uint256[]"
        }
      ],
      "stateMutability": "nonpayable",
      "type": "function"
    },
    {
      "inputs": [
        {
          "internalType": "uint256",
          "name": "amountOut",
          "type": "uint256"
        },
        {
          "internalType": "address[]",
          "name": "path",
          "type": "address[]"
        },
        {
          "internalType": "address",
          "name": "to",
          "type": "address"
        },
        {
          "internalType": "uint256",
          "name": "deadline",
          "type": "uint256"
        }
      ],
      "name": "swapTRXForExactTokens",
      "outputs": [
        {
          "internalType": "uint256[]",
          "name": "amounts",
          "type": "uint256[]"
        }
      ],
      "stateMutability": "payable",
      "type": "function"
    },
    {
      "inputs": [
        {
          "internalType": "uint256",
          "name": "amountOut",
          "type": "uint256"
        },
        {
          "internalType": "uint256",
          "name": "amountInMax",
          "type": "uint256"
        },
        {
          "internalType": "address[]",
          "name": "path",
          "type": "address[]"
        },
        {
          "internalType": "address",
          "name": "to",
          "type": "address"
        },
        {
          "internalType": "uint256",
          "name": "deadline",
          "type": "uint256"
        }
      ],
      "name": "swapTokensForExactTRX",
      "outputs": [
        {
          "internalType": "uint256[]",
          "name": "amounts",
          "type": "uint256[]"
        }
      ],
      "stateMutability": "nonpayable",
      "type": "function"
    },
    {
      "inputs": [
        {
          "internalType": "uint256",
          "name": "amountOut",
          "type": "uint256"
        },
        {
          "internalType": "uint256",
          "name": "amountInMax",
          "type": "uint256"
        },
        {
          "internalType": "address[]",
          "name": "path",
          "type": "address[]"
        },
        {
          "internalType": "address",
          "name": "to",
          "type": "address"
        },
        {
          "internalType": "uint256",
          "name": "deadline",
          "type": "uint256"
        }
      ],
      "name": "swapTokensForExactTokens",
      "outputs": [
        {
          "internalType": "uint256[]",
          "name": "amounts",
          "type": "uint256[]"
        }
      ],
      "stateMutability": "nonpayable",
      "type": "function"
    },
    {
      "inputs": [],
      "name": "wtrx",
      "outputs": [
        {
          "internalType": "address",
          "name": "",
          "type": "address"
        }
      ],
      "stateMutability": "view",
      "type": "function"
    }
  ],
  "bytecode": "0x60806040523480156200001157600080fd5b50d380156200001f57600080fd5b50d280156200002d57600080fd5b506040516200383d3803806200383d8339810160408190526200005091620000ac565b600080546001600160a01b039384166001600160a01b03199182161790915560018054929093169116179055620000e4565b80516000906001600160a81b03811681146200009d57600080fd5b6001600160a01b031692915050565b60008060408385031215620000c057600080fd5b620000cb8362000082565b9150620000db6020840162000082565b90509250929050565b61374980620000f46000396000f3fe6080604052600436106101095760003560e01c8063814dfc3911610095578063c45a015511610064578063c45a01551461044a578063d06ca61f14610484578063e8e33700146104be578063f037219f14610513578063f8fe37191461052657610109565b8063814dfc391461034a57806382bcc5da1461039c5780638803dbee146103d6578063baa2abde1461041057610109565b806338ed1739116100dc57806338ed1739146101e65780633ff82e321461022057806361e0b77f1461025a5780636d1eb334146102c65780637e3e25961461030057610109565b806308ad1c04146101255780631cf4401e146101795780631f00ca7414610199578063246ea413146101d3575b6001546001600160a01b0316331461012357610123613695565b005b34801561013157600080fd5b50d3801561013e57600080fd5b50d2801561014b57600080fd5b5061015f61015a36600461312c565b610560565b604080519283526020830191909152015b60405180910390f35b61018c61018736600461318c565b6105f9565b6040516101709190613407565b3480156101a557600080fd5b50d380156101b257600080fd5b50d280156101bf57600080fd5b5061018c6101ce3660046131ff565b6108ea565b61018c6101e136600461318c565b61090d565b3480156101f257600080fd5b50d380156101ff57600080fd5b50d2801561020c57600080fd5b5061018c61021b3660046132fb565b610bee565b34801561022c57600080fd5b50d3801561023957600080fd5b50d2801561024657600080fd5b5061018c6102553660046132fb565b610d85565b34801561026657600080fd5b50d3801561027357600080fd5b50d2801561028057600080fd5b5061029461028f366004612e83565b610fb0565b604080516001600160a01b0390961686526020860194909452928401919091526060830152608082015260a001610170565b3480156102d257600080fd5b50d380156102df57600080fd5b50d280156102ec57600080fd5b5061015f6102fb366004613032565b611133565b34801561030c57600080fd5b50d3801561031957600080fd5b50d2801561032657600080fd5b5061033a610335366004612ff4565b6111f7565b604051610170949392919061352d565b34801561035657600080fd5b50d3801561036357600080fd5b50d2801561037057600080fd5b50600154610384906001600160a01b031681565b6040516001600160a01b039091168152602001610170565b3480156103a857600080fd5b50d380156103b557600080fd5b50d280156103c257600080fd5b5061018c6103d13660046132fb565b6115e6565b3480156103e257600080fd5b50d380156103ef57600080fd5b50d280156103fc57600080fd5b5061018c61040b3660046132fb565b6116f5565b34801561041c57600080fd5b50d3801561042957600080fd5b50d2801561043657600080fd5b5061015f610445366004612ee1565b61179e565b34801561045657600080fd5b50d3801561046357600080fd5b50d2801561047057600080fd5b50600054610384906001600160a01b031681565b34801561049057600080fd5b50d3801561049d57600080fd5b50d280156104aa57600080fd5b5061018c6104b93660046131ff565b6119cf565b3480156104ca57600080fd5b50d380156104d757600080fd5b50d280156104e457600080fd5b506104f86104f3366004612f66565b6119e9565b60408051938452602084019290925290820152606001610170565b6104f8610521366004613032565b611ae3565b34801561053257600080fd5b50d3801561053f57600080fd5b50d2801561054c57600080fd5b5061015f61055b36600461312c565b611cf5565b6000805481908190819061057e906001600160a01b03168888611d7a565b915091508461059757610592888383611e53565b6105a2565b6105a2888284611e53565b9350846105cd576105b38289611eed565b6105be896064611f42565b6105c891906135df565b6105ec565b6105d78189611eed565b6105e2896064611f42565b6105ec91906135df565b9250505094509492505050565b606081428110156106255760405162461bcd60e51b815260040161061c906134c2565b60405180910390fd5b6001546001600160a01b03168686600081610642576106426136c1565b90506020020160208101906106579190612e39565b6001600160a01b03161461067d5760405162461bcd60e51b815260040161061c9061341a565b60005460408051602080890282810182019093528882526106c7936001600160a01b0316923492918b918b91829190850190849080828437600092019190915250611fa992505050565b91508682600184516106d99190613620565b815181106106e9576106e96136c1565b6020026020010151101561070f5760405162461bcd60e51b815260040161061c906134eb565b60015482516001600160a01b039091169063d0e30db0908490600090610737576107376136c1565b60200260200101516040518263ffffffff1660e01b81526004016000604051808303818588803b15801561076a57600080fd5b505af115801561077e573d6000803e3d6000fd5b5050600154600080546001600160a01b03928316955063a9059cbb94506107f79350909116908a908a90816107b5576107b56136c1565b90506020020160208101906107ca9190612e39565b8a8a60018181106107dd576107dd6136c1565b90506020020160208101906107f29190612e39565b612130565b8460008151811061080a5761080a6136c1565b60200260200101516040518363ffffffff1660e01b81526004016108439291906001600160a01b03929092168252602082015260400190565b602060405180830381600087803b15801561085d57600080fd5b505af1158015610871573d6000803e3d6000fd5b505050506040513d601f19601f82011682018060405250810190610895919061309f565b6108a1576108a1613695565b6108e082878780806020026020016040519081016040528093929190818152602001838360200280828437600092019190915250899250612228915050565b5095945050505050565b600054606090610904906001600160a01b03168484612409565b90505b92915050565b606081428110156109305760405162461bcd60e51b815260040161061c906134c2565b6001546001600160a01b0316868660008161094d5761094d6136c1565b90506020020160208101906109629190612e39565b6001600160a01b0316146109885760405162461bcd60e51b815260040161061c9061341a565b60005460408051602080890282810182019093528882526109d2936001600160a01b0316928b92918b918b9182919085019084908082843760009201919091525061240992505050565b915034826000815181106109e8576109e86136c1565b60200260200101511115610a0e5760405162461bcd60e51b815260040161061c90613448565b60015482516001600160a01b039091169063d0e30db0908490600090610a3657610a366136c1565b60200260200101516040518263ffffffff1660e01b81526004016000604051808303818588803b158015610a6957600080fd5b505af1158015610a7d573d6000803e3d6000fd5b5050600154600080546001600160a01b03928316955063a9059cbb9450610ab49350909116908a908a90816107b5576107b56136c1565b84600081518110610ac757610ac76136c1565b60200260200101516040518363ffffffff1660e01b8152600401610b009291906001600160a01b03929092168252602082015260400190565b602060405180830381600087803b158015610b1a57600080fd5b505af1158015610b2e573d6000803e3d6000fd5b505050506040513d601f19601f82011682018060405250810190610b52919061309f565b610b5e57610b5e613695565b610b9d82878780806020026020016040519081016040528093929190818152602001838360200280828437600092019190915250899250612228915050565b81600081518110610bb057610bb06136c1565b60200260200101513411156108e0576108e03383600081518110610bd657610bd66136c1565b602002602001015134610be99190613620565b612586565b60608142811015610c115760405162461bcd60e51b815260040161061c906134c2565b6000546040805160208089028281018201909352888252610c5b936001600160a01b0316928c92918b918b91829190850190849080828437600092019190915250611fa992505050565b9150868260018451610c6d9190613620565b81518110610c7d57610c7d6136c1565b60200260200101511015610ca35760405162461bcd60e51b815260040161061c906134eb565b610d3b86866000818110610cb957610cb96136c1565b9050602002016020810190610cce9190612e39565b600080543391610d1b916001600160a01b0316908b908b9081610cf357610cf36136c1565b9050602002016020810190610d089190612e39565b8b8b60018181106107dd576107dd6136c1565b85600081518110610d2e57610d2e6136c1565b6020026020010151612654565b610d7a82878780806020026020016040519081016040528093929190818152602001838360200280828437600092019190915250899250612228915050565b509695505050505050565b60608142811015610da85760405162461bcd60e51b815260040161061c906134c2565b600180546001600160a01b03169087908790610dc49082613620565b818110610dd357610dd36136c1565b9050602002016020810190610de89190612e39565b6001600160a01b031614610e0e5760405162461bcd60e51b815260040161061c9061341a565b6000546040805160208089028281018201909352888252610e58936001600160a01b0316928c92918b918b91829190850190849080828437600092019190915250611fa992505050565b9150868260018451610e6a9190613620565b81518110610e7a57610e7a6136c1565b60200260200101511015610ea05760405162461bcd60e51b815260040161061c906134eb565b610eb686866000818110610cb957610cb96136c1565b610ef582878780806020026020016040519081016040528093929190818152602001838360200280828437600092019190915250309250612228915050565b6001805483516001600160a01b0390911691632e1a7d4d918591610f1891613620565b81518110610f2857610f286136c1565b60200260200101516040518263ffffffff1660e01b8152600401610f4e91815260200190565b600060405180830381600087803b158015610f6857600080fd5b505af1158015610f7c573d6000803e3d6000fd5b50505050610d7a848360018551610f939190613620565b81518110610fa357610fa36136c1565b6020026020010151612586565b600080548190819081908190610fd0906001600160a01b03168888612130565b9450846001600160a01b03166318160ddd6040518163ffffffff1660e01b815260040160206040518083038186803b15801561100b57600080fd5b505afa15801561101f573d6000803e3d6000fd5b505050506040513d601f19601f820116820180604052508101906110439190613113565b6040516370a0823160e01b81526001600160a01b038a81166004830152919550908616906370a082319060240160206040518083038186803b15801561108857600080fd5b505afa15801561109c573d6000803e3d6000fd5b505050506040513d601f19601f820116820180604052508101906110c09190613113565b925060006110ce8888612784565b509050876001600160a01b0316816001600160a01b03161461110a57600054611101906001600160a01b03168989611d7a565b93509150611127565b600054611121906001600160a01b03168989611d7a565b90935091505b50939792965093509350565b60008082428110156111575760405162461bcd60e51b815260040161061c906134c2565b600154611173908a906001600160a01b03168a8a8a308a61179e565b909350915061118389868561286e565b600154604051632e1a7d4d60e01b8152600481018490526001600160a01b0390911690632e1a7d4d90602401600060405180830381600087803b1580156111c957600080fd5b505af11580156111dd573d6000803e3d6000fd5b505050506111eb8583612586565b50965096945050505050565b6000606080606060008054906101000a90046001600160a01b03166001600160a01b031663574f2ba36040518163ffffffff1660e01b815260040160206040518083038186803b15801561124a57600080fd5b505afa15801561125e573d6000803e3d6000fd5b505050506040513d601f19601f820116820180604052508101906112829190613113565b93508467ffffffffffffffff81111561129d5761129d6136d7565b6040519080825280602002602001820160405280156112c6578160200160208202803683370190505b5092508467ffffffffffffffff8111156112e2576112e26136d7565b60405190808252806020026020018201604052801561130b578160200160208202803683370190505b5091508467ffffffffffffffff811115611327576113276136d7565b604051908082528060200260200182016040528015611350578160200160208202803683370190505b5090506000865b61136187896135c7565b8110801561136e57508581105b156115db5760008054604051631e3dd18b60e01b8152600481018490526001600160a01b0390911690631e3dd18b9060240160206040518083038186803b1580156113b857600080fd5b505afa1580156113cc573d6000803e3d6000fd5b505050506040513d601f19601f820116820180604052508101906113f09190612e66565b9050806001600160a01b0316630dfe16816040518163ffffffff1660e01b815260040160206040518083038186803b15801561142b57600080fd5b505afa15801561143f573d6000803e3d6000fd5b505050506040513d601f19601f820116820180604052508101906114639190612e66565b868481518110611475576114756136c1565b60200260200101906001600160a01b031690816001600160a01b031681525050806001600160a01b031663d21220a76040518163ffffffff1660e01b815260040160206040518083038186803b1580156114ce57600080fd5b505afa1580156114e2573d6000803e3d6000fd5b505050506040513d601f19601f820116820180604052508101906115069190612e66565b858481518110611518576115186136c1565b6001600160a01b0392831660209182029290920101526040516370a0823160e01b81528b82166004820152908216906370a082319060240160206040518083038186803b15801561156857600080fd5b505afa15801561157c573d6000803e3d6000fd5b505050506040513d601f19601f820116820180604052508101906115a09190613113565b84846115ab8161367a565b9550815181106115bd576115bd6136c1565b602090810291909101015250806115d38161367a565b915050611357565b505093509350935093565b606081428110156116095760405162461bcd60e51b815260040161061c906134c2565b600180546001600160a01b031690879087906116259082613620565b818110611634576116346136c1565b90506020020160208101906116499190612e39565b6001600160a01b03161461166f5760405162461bcd60e51b815260040161061c9061341a565b60005460408051602080890282810182019093528882526116b9936001600160a01b0316928c92918b918b9182919085019084908082843760009201919091525061240992505050565b915086826000815181106116cf576116cf6136c1565b60200260200101511115610ea05760405162461bcd60e51b815260040161061c90613448565b606081428110156117185760405162461bcd60e51b815260040161061c906134c2565b6000546040805160208089028281018201909352888252611762936001600160a01b0316928c92918b918b9182919085019084908082843760009201919091525061240992505050565b91508682600081518110611778576117786136c1565b60200260200101511115610ca35760405162461bcd60e51b815260040161061c90613448565b60008082428110156117c25760405162461bcd60e51b815260040161061c906134c2565b600080546117da906001600160a01b03168c8c612130565b6040516323b872dd60e01b81523360048201526001600160a01b03821660248201819052604482018c90529192506323b872dd90606401602060405180830381600087803b15801561182b57600080fd5b505af115801561183f573d6000803e3d6000fd5b505050506040513d601f19601f82011682018060405250810190611863919061309f565b5060405163226bf2d160e21b81526001600160a01b03878116600483015260009182918416906389afcb44906024016040805180830381600087803b1580156118ab57600080fd5b505af11580156118bf573d6000803e3d6000fd5b505050506040513d601f19601f820116820180604052508101906118e391906132d7565b9150915060006118f38e8e612784565b509050806001600160a01b03168e6001600160a01b031614611916578183611919565b82825b90975095508a87101561196e5760405162461bcd60e51b815260206004820152601d60248201527f526f757465723a20494e53554646494349454e545f415f414d4f554e54000000604482015260640161061c565b898610156119be5760405162461bcd60e51b815260206004820152601d60248201527f526f757465723a20494e53554646494349454e545f425f414d4f554e54000000604482015260640161061c565b505050505097509795505050505050565b600054606090610904906001600160a01b03168484611fa9565b60008060008342811015611a0f5760405162461bcd60e51b815260040161061c906134c2565b611a1d8c8c8c8c8c8c612989565b6000805492965090945090611a3c906001600160a01b03168e8e612130565b9050611a4a8d338388612654565b611a568c338387612654565b6040516335313c2160e11b81526001600160a01b038881166004830152821690636a62784290602401602060405180830381600087803b158015611a9957600080fd5b505af1158015611aad573d6000803e3d6000fd5b505050506040513d601f19601f82011682018060405250810190611ad19190613113565b92505050985098509895505050505050565b60008060008342811015611b095760405162461bcd60e51b815260040161061c906134c2565b600154611b24908b906001600160a01b03168b348c8c612989565b6000805460015493975091955091611b4a916001600160a01b03908116918e9116612130565b9050611b588b338388612654565b600160009054906101000a90046001600160a01b03166001600160a01b031663d0e30db0856040518263ffffffff1660e01b81526004016000604051808303818588803b158015611ba857600080fd5b505af1158015611bbc573d6000803e3d6000fd5b505060015460405163a9059cbb60e01b81526001600160a01b038681166004830152602482018a9052909116935063a9059cbb92506044019050602060405180830381600087803b158015611c1057600080fd5b505af1158015611c24573d6000803e3d6000fd5b505050506040513d601f19601f82011682018060405250810190611c48919061309f565b611c5457611c54613695565b6040516335313c2160e11b81526001600160a01b038881166004830152821690636a62784290602401602060405180830381600087803b158015611c9757600080fd5b505af1158015611cab573d6000803e3d6000fd5b505050506040513d601f19601f82011682018060405250810190611ccf9190613113565b925083341115611ce757611ce733610be98634613620565b505096509650969350505050565b60008054819081908190611d13906001600160a01b03168888611d7a565b9150915084611d2c57611d27888383612bdb565b611d37565b611d37888383612caa565b935084611d5f57806105be612710611d59611d528489612d66565b8590612d66565b90611f42565b816105e2612710611d59611d738489612d66565b8690612d66565b6000806000611d898585612784565b509050600080611d9a888888612130565b6001600160a01b0316630902f1ac6040518163ffffffff1660e01b815260040160606040518083038186803b158015611dd257600080fd5b505afa158015611de6573d6000803e3d6000fd5b505050506040513d601f19601f82011682018060405250810190611e0a91906130c3565b506001600160701b031691506001600160701b03169150826001600160a01b0316876001600160a01b031614611e41578082611e44565b81815b90999098509650505050505050565b6000808411611ea45760405162461bcd60e51b815260206004820181905260248201527f537761704c6962726172793a20494e53554646494349454e545f414d4f554e54604482015260640161061c565b600083118015611eb45750600082115b611ed05760405162461bcd60e51b815260040161061c9061347f565b82611edb8584611f42565b611ee591906135df565b949350505050565b600082611efa83826135c7565b91508110156109075760405162461bcd60e51b815260206004820152601460248201527364732d6d6174682d6164642d6f766572666c6f7760601b604482015260640161061c565b6000811580611f6657508282611f588183613601565b9250611f6490836135df565b145b6109075760405162461bcd60e51b815260206004820152601460248201527364732d6d6174682d6d756c2d6f766572666c6f7760601b604482015260640161061c565b6060600282511015611ff95760405162461bcd60e51b81526020600482015260196024820152780a6eec2e098d2c4e4c2e4f27440929cac82989288bea082a89603b1b604482015260640161061c565b815167ffffffffffffffff811115612013576120136136d7565b60405190808252806020026020018201604052801561203c578160200160208202803683370190505b5090508281600081518110612053576120536136c1565b60200260200101818152505060005b600183516120709190613620565b811015612128576000806120c387868581518110612090576120906136c1565b6020026020010151878660016120a691906135c7565b815181106120b6576120b66136c1565b6020026020010151611d7a565b915091506120eb8484815181106120dc576120dc6136c1565b60200260200101518383612bdb565b846120f78560016135c7565b81518110612107576121076136c1565b602002602001018181525050505080806121209061367a565b915050612062565b509392505050565b600080600061213f8585612784565b60405163e6a4390560e01b81526001600160a01b03808416600483015280831660248301529294509092509087169063e6a439059060440160206040518083038186803b15801561218f57600080fd5b505afa1580156121a3573d6000803e3d6000fd5b505050506040513d601f19601f820116820180604052508101906121c79190612e66565b92506001600160a01b03831661221f5760405162461bcd60e51b815260206004820152601b60248201527f537761704c6962726172793a20554e444546494e45445f504149520000000000604482015260640161061c565b50509392505050565b60005b600183516122399190613620565b81101561240357600080848381518110612255576122556136c1565b60200260200101518584600161226b91906135c7565b8151811061227b5761227b6136c1565b60200260200101519150915060006122938383612784565b5090506000876122a48660016135c7565b815181106122b4576122b46136c1565b60200260200101519050600080836001600160a01b0316866001600160a01b0316146122e2578260006122e6565b6000835b91509150600060028a516122fa9190613620565b88106123065788612340565b600054612340906001600160a01b0316878c6123238c60026135c7565b81518110612333576123336136c1565b6020026020010151612130565b60005490915061235a906001600160a01b03168888612130565b6001600160a01b031663022c0d9f84848460006040519080825280601f01601f191660200182016040528015612397576020820181803683370190505b506040518563ffffffff1660e01b81526004016123b79493929190613577565b600060405180830381600087803b1580156123d157600080fd5b505af11580156123e5573d6000803e3d6000fd5b505050505050505050505080806123fb9061367a565b91505061222b565b50505050565b60606002825110156124595760405162461bcd60e51b81526020600482015260196024820152780a6eec2e098d2c4e4c2e4f27440929cac82989288bea082a89603b1b604482015260640161061c565b815167ffffffffffffffff811115612473576124736136d7565b60405190808252806020026020018201604052801561249c578160200160208202803683370190505b5090508281600183516124af9190613620565b815181106124bf576124bf6136c1565b6020026020010181815250506000600183516124db9190613620565b90505b80156121285760008061252187866124f7600187613620565b81518110612507576125076136c1565b60200260200101518786815181106120b6576120b66136c1565b9150915061254984848151811061253a5761253a6136c1565b60200260200101518383612caa565b84612555600186613620565b81518110612565576125656136c1565b6020026020010181815250505050808061257e90613663565b9150506124de565b604080516000808252602082019092526001600160a01b0384169083906040516125b091906133eb565b60006040518083038185875af1925050503d80600081146125ed576040519150601f19603f3d011682016040523d82523d6000602084013e6125f2565b606091505b505090508061264f5760405162461bcd60e51b815260206004820152602360248201527f5472616e7366657248656c7065723a205452585f5452414e534645525f46414960448201526213115160ea1b606482015260840161061c565b505050565b604080516001600160a01b0385811660248301528481166044830152606480830185905283518084039091018152608490920183526020820180516001600160e01b03166323b872dd60e01b17905291516000928392908816916126b891906133eb565b6000604051808303816000865af19150503d80600081146126f5576040519150601f19603f3d011682016040523d82523d6000602084013e6126fa565b606091505b5091509150818015612724575080511580612724575080806020019051810190612724919061309f565b61277c5760405162461bcd60e51b8152602060048201526024808201527f5472616e7366657248656c7065723a205452414e534645525f46524f4d5f46416044820152631253115160e21b606482015260840161061c565b505050505050565b600080826001600160a01b0316846001600160a01b031614156127e95760405162461bcd60e51b815260206004820181905260248201527f537761704c6962726172793a204944454e544943414c5f414444524553534553604482015260640161061c565b826001600160a01b0316846001600160a01b03161061280957828461280c565b83835b90925090506001600160a01b0382166128675760405162461bcd60e51b815260206004820152601960248201527f537761704c6962726172793a205a45524f5f4144445245535300000000000000604482015260640161061c565b9250929050565b604080516001600160a01b038481166024830152604480830185905283518084039091018152606490920183526020820180516001600160e01b031663a9059cbb60e01b17905291516000928392908716916128ca91906133eb565b6000604051808303816000865af19150503d8060008114612907576040519150601f19603f3d011682016040523d82523d6000602084013e61290c565b606091505b5091509150818015612936575080511580612936575080806020019051810190612936919061309f565b6129825760405162461bcd60e51b815260206004820152601f60248201527f5472616e7366657248656c7065723a205452414e534645525f4641494c454400604482015260640161061c565b5050505050565b6000805460405163e6a4390560e01b81526001600160a01b03898116600483015288811660248301528392839291169063e6a439059060440160206040518083038186803b1580156129da57600080fd5b505afa1580156129ee573d6000803e3d6000fd5b505050506040513d601f19601f82011682018060405250810190612a129190612e66565b6001600160a01b03161415612aaa576000546040516364e329cb60e11b81526001600160a01b038a8116600483015289811660248301529091169063c9c6539690604401602060405180830381600087803b158015612a7057600080fd5b505af1158015612a84573d6000803e3d6000fd5b505050506040513d601f19601f82011682018060405250810190612aa89190612e66565b505b600080548190612ac4906001600160a01b03168b8b611d7a565b91509150816000148015612ad6575080155b15612ae657879350869250612bce565b6000612af3898484611e53565b9050878111612b575785811015612b4c5760405162461bcd60e51b815260206004820152601d60248201527f526f757465723a20494e53554646494349454e545f425f414d4f554e54000000604482015260640161061c565b889450925082612bcc565b6000612b64898486611e53565b905089811115612b7657612b76613695565b87811015612bc65760405162461bcd60e51b815260206004820152601d60248201527f526f757465723a20494e53554646494349454e545f415f414d4f554e54000000604482015260640161061c565b94508793505b505b5050965096945050505050565b6000808411612c3b5760405162461bcd60e51b815260206004820152602660248201527f537761704c6962726172793a20494e53554646494349454e545f494e5055545f604482015265105353d5539560d21b606482015260840161061c565b600083118015612c4b5750600082115b612c675760405162461bcd60e51b815260040161061c9061347f565b6000612c75856103e5611f42565b9050612c8d81612c87866103e8611f42565b90611eed565b612c978285611f42565b612ca191906135df565b95945050505050565b6000808411612d0b5760405162461bcd60e51b815260206004820152602760248201527f537761704c6962726172793a20494e53554646494349454e545f4f555450555460448201526617d05353d5539560ca1b606482015260840161061c565b600083118015612d1b5750600082115b612d375760405162461bcd60e51b815260040161061c9061347f565b611ee56001612d4c6103e5611d598689612d66565b612d5c6103e8611d59888a611f42565b612c8791906135df565b600082612d738382613620565b91508111156109075760405162461bcd60e51b815260206004820152601560248201527464732d6d6174682d7375622d756e646572666c6f7760581b604482015260640161061c565b60008135612dc9816136ed565b6001600160a01b031692915050565b60008083601f840112612dea57600080fd5b50813567ffffffffffffffff811115612e0257600080fd5b6020830191508360208260051b850101111561286757600080fd5b80516001600160701b0381168114612e3457600080fd5b919050565b600060208284031215612e4b57600080fd5b8135612e56816136ed565b6001600160a01b03169392505050565b600060208284031215612e7857600080fd5b8151612e56816136ed565b600080600060608486031215612e9857600080fd5b8335612ea3816136ed565b6001600160a01b039081169350602085013590612ebf826136ed565b9081169250604085013590612ed3826136ed565b808216925050509250925092565b600080600080600080600060e0888a031215612efc57600080fd5b8735612f07816136ed565b6001600160a01b039081169750602089013590612f23826136ed565b908116965060408901359550606089013594506080890135935060a089013590612f4c826136ed565b8082169350505060c0880135905092959891949750929550565b600080600080600080600080610100898b031215612f8357600080fd5b8835612f8e816136ed565b6001600160a01b03908116985060208a013590612faa826136ed565b908116975060408a0135965060608a0135955060808a0135945060a08a0135935060c08a013590612fda826136ed565b989b979a5095989497939692959093169360e00135925050565b60008060006060848603121561300957600080fd5b8335613014816136ed565b6001600160a01b031695602085013595506040909401359392505050565b60008060008060008060c0878903121561304b57600080fd5b8635613056816136ed565b6001600160a01b039081169650602088013595506040880135945060608801359350608088013590613087826136ed565b8082169350505060a087013590509295509295509295565b6000602082840312156130b157600080fd5b81516130bc81613705565b9392505050565b6000806000606084860312156130d857600080fd5b6130e184612e1d565b92506130ef60208501612e1d565b9150604084015163ffffffff8116811461310857600080fd5b809150509250925092565b60006020828403121561312557600080fd5b5051919050565b6000806000806080858703121561314257600080fd5b843593506020850135613154816136ed565b6001600160a01b039081169350604086013590613170826136ed565b169150606085013561318181613705565b939692955090935050565b6000806000806000608086880312156131a457600080fd5b85359450602086013567ffffffffffffffff8111156131c257600080fd5b6131ce88828901612dd8565b90955093505060408601356131e2816136ed565b949793965091946001600160a01b03909416936060013592915050565b6000806040838503121561321257600080fd5b8235915060208084013567ffffffffffffffff8082111561323257600080fd5b818601915086601f83011261324657600080fd5b813581811115613258576132586136d7565b8060051b604051601f19603f8301168101818110858211171561327d5761327d6136d7565b604052828152858101935084860182860187018b101561329c57600080fd5b600095505b838610156132c6576132b281612dbc565b8552600195909501949386019386016132a1565b508096505050505050509250929050565b600080604083850312156132ea57600080fd5b505080516020909101519092909150565b60008060008060008060a0878903121561331457600080fd5b8635955060208701359450604087013567ffffffffffffffff81111561333957600080fd5b61334589828a01612dd8565b9095509350506060870135613359816136ed565b9598949750929591946001600160a01b031693608090920135925050565b600081518084526020808501945080840160005b838110156133b05781516001600160a01b03168752958201959082019060010161338b565b509495945050505050565b600081518084526020808501945080840160005b838110156133b0578151875295820195908201906001016133cf565b600082516133fd818460208701613637565b9190910192915050565b60208152600061090460208301846133bb565b6020808252601490820152730a4deeae8cae47440929cac82989288bea082a8960631b604082015260600190565b6020808252601e908201527f526f757465723a204558434553534956455f494e5055545f414d4f554e540000604082015260600190565b60208082526023908201527f537761704c6962726172793a20494e53554646494349454e545f4c495155494460408201526249545960e81b606082015260800190565b6020808252600f908201526e149bdd5d195c8e8811561412549151608a1b604082015260600190565b60208082526022908201527f526f757465723a20494e53554646494349454e545f4f55545055545f414d4f55604082015261139560f21b606082015260800190565b8481526080602082015260006135466080830186613377565b82810360408401526135588186613377565b9050828103606084015261356c81856133bb565b979650505050505050565b84815283602082015260018060a01b038316604082015260806060820152600082518060808401526135b08160a0850160208701613637565b601f01601f19169190910160a00195945050505050565b600082198211156135da576135da6136ab565b500190565b6000826135fc57634e487b7160e01b600052601260045260246000fd5b500490565b600081600019048311821515161561361b5761361b6136ab565b500290565b600082821015613632576136326136ab565b500390565b60005b8381101561365257818101518382015260200161363a565b838111156124035750506000910152565b600081613672576136726136ab565b506000190190565b600060001982141561368e5761368e6136ab565b5060010190565b634e487b7160e01b600052600160045260246000fd5b634e487b7160e01b600052601160045260246000fd5b634e487b7160e01b600052603260045260246000fd5b634e487b7160e01b600052604160045260246000fd5b6001600160a81b038116811461370257600080fd5b50565b801515811461370257600080fdfea26474726f6e58221220d4e24bf23d427c3c76e1f102efcef28486911ad0796e3e69892e3fdd0a5c804a64736f6c63430008060033",
  "source": "/*! Router.sol | SPDX-License-Identifier: MIT License */\n\npragma solidity 0.8.6;\n\nimport \"../lib/SafeMath.sol\";\nimport \"./lib/SwapLibrary.sol\";\nimport \"./lib/TransferHelper.sol\";\nimport \"./interface/ISocialswapPair.sol\";\nimport \"./interface/IWTRX.sol\";\nimport \"./interface/ITRC20.sol\";\nimport \"./interface/ISocialswapFactory.sol\";\n\ncontract SocialswapRouter {\n    using SafeMath for uint256;\n\n    address public factory;\n    address public wtrx;\n\n    modifier ensure(uint256 deadline) {\n        require(deadline >= block.timestamp, \"Router: EXPIRED\");\n        _;\n    }\n\n    constructor(address _factory, address _wtrx) {\n        factory = _factory;\n        wtrx = _wtrx;\n    }\n\n    fallback() external payable {\n        assert(msg.sender == wtrx);\n    }\n\n    function _addLiquidity(\n        address tokenA,\n        address tokenB,\n        uint256 amountADesired,\n        uint256 amountBDesired,\n        uint256 amountAMin,\n        uint256 amountBMin\n    ) internal returns (uint256 amountA, uint256 amountB) {\n        if (ISocialswapFactory(factory).getPair(tokenA, tokenB) == address(0)) {\n            ISocialswapFactory(factory).createPair(tokenA, tokenB);\n        }\n\n        (uint256 reserveA, uint256 reserveB) = SwapLibrary.getReserves(\n            factory,\n            tokenA,\n            tokenB\n        );\n\n        if (reserveA == 0 && reserveB == 0) {\n            (amountA, amountB) = (amountADesired, amountBDesired);\n        } else {\n            uint256 amountBOptimal = SwapLibrary.quote(\n                amountADesired,\n                reserveA,\n                reserveB\n            );\n\n            if (amountBOptimal <= amountBDesired) {\n                require(\n                    amountBOptimal >= amountBMin,\n                    \"Router: INSUFFICIENT_B_AMOUNT\"\n                );\n\n                (amountA, amountB) = (amountADesired, amountBOptimal);\n            } else {\n                uint256 amountAOptimal = SwapLibrary.quote(\n                    amountBDesired,\n                    reserveB,\n                    reserveA\n                );\n\n                assert(amountAOptimal <= amountADesired);\n                require(\n                    amountAOptimal >= amountAMin,\n                    \"Router: INSUFFICIENT_A_AMOUNT\"\n                );\n\n                (amountA, amountB) = (amountAOptimal, amountBDesired);\n            }\n        }\n    }\n\n    function _swap(\n        uint256[] memory amounts,\n        address[] memory path,\n        address _to\n    ) internal {\n        for (uint256 i; i < path.length - 1; i++) {\n            (address input, address output) = (path[i], path[i + 1]);\n            (address token0, ) = SwapLibrary.sortTokens(input, output);\n            uint256 amountOut = amounts[i + 1];\n            (uint256 amount0Out, uint256 amount1Out) = input == token0\n                ? (uint256(0), amountOut)\n                : (amountOut, uint256(0));\n            address to = i < path.length - 2\n                ? SwapLibrary.pairFor(factory, output, path[i + 2])\n                : _to;\n\n            ISocialswapPair(SwapLibrary.pairFor(factory, input, output)).swap(\n                amount0Out,\n                amount1Out,\n                to,\n                new bytes(0)\n            );\n        }\n    }\n\n    function addLiquidity(\n        address tokenA,\n        address tokenB,\n        uint256 amountADesired,\n        uint256 amountBDesired,\n        uint256 amountAMin,\n        uint256 amountBMin,\n        address to,\n        uint256 deadline\n    )\n        external\n        ensure(deadline)\n        returns (\n            uint256 amountA,\n            uint256 amountB,\n            uint256 liquidity\n        )\n    {\n        (amountA, amountB) = _addLiquidity(\n            tokenA,\n            tokenB,\n            amountADesired,\n            amountBDesired,\n            amountAMin,\n            amountBMin\n        );\n\n        address pair = SwapLibrary.pairFor(factory, tokenA, tokenB);\n\n        TransferHelper.safeTransferFrom(tokenA, msg.sender, pair, amountA);\n        TransferHelper.safeTransferFrom(tokenB, msg.sender, pair, amountB);\n\n        liquidity = ISocialswapPair(pair).mint(to);\n    }\n\n    function addLiquidityTRX(\n        address token,\n        uint256 amountTokenDesired,\n        uint256 amountTokenMin,\n        uint256 amountTRXMin,\n        address to,\n        uint256 deadline\n    )\n        external\n        payable\n        ensure(deadline)\n        returns (\n            uint256 amountToken,\n            uint256 amountTRX,\n            uint256 liquidity\n        )\n    {\n        (amountToken, amountTRX) = _addLiquidity(\n            token,\n            wtrx,\n            amountTokenDesired,\n            msg.value,\n            amountTokenMin,\n            amountTRXMin\n        );\n\n        address pair = SwapLibrary.pairFor(factory, token, wtrx);\n\n        TransferHelper.safeTransferFrom(token, msg.sender, pair, amountToken);\n        IWTRX(wtrx).deposit{value: amountTRX}();\n        assert(ITRC20(wtrx).transfer(pair, amountTRX));\n        liquidity = ISocialswapPair(pair).mint(to);\n        if (msg.value > amountTRX) {\n            TransferHelper.safeTransferTRX(msg.sender, msg.value - amountTRX);\n        }\n    }\n\n    function removeLiquidity(\n        address tokenA,\n        address tokenB,\n        uint256 liquidity,\n        uint256 amountAMin,\n        uint256 amountBMin,\n        address to,\n        uint256 deadline\n    ) public ensure(deadline) returns (uint256 amountA, uint256 amountB) {\n        address pair = SwapLibrary.pairFor(factory, tokenA, tokenB);\n\n        ITRC20(pair).transferFrom(msg.sender, pair, liquidity);\n        (uint256 amount0, uint256 amount1) = ISocialswapPair(pair).burn(to);\n\n        (address token0, ) = SwapLibrary.sortTokens(tokenA, tokenB);\n        (amountA, amountB) = tokenA == token0\n            ? (amount0, amount1)\n            : (amount1, amount0);\n\n        require(amountA >= amountAMin, \"Router: INSUFFICIENT_A_AMOUNT\");\n        require(amountB >= amountBMin, \"Router: INSUFFICIENT_B_AMOUNT\");\n    }\n\n    function removeLiquidityTRX(\n        address token,\n        uint256 liquidity,\n        uint256 amountTokenMin,\n        uint256 amountTRXMin,\n        address to,\n        uint256 deadline\n    ) public ensure(deadline) returns (uint256 amountToken, uint256 amountTRX) {\n        (amountToken, amountTRX) = removeLiquidity(\n            token,\n            wtrx,\n            liquidity,\n            amountTokenMin,\n            amountTRXMin,\n            address(this),\n            deadline\n        );\n\n        TransferHelper.safeTransfer(token, to, amountToken);\n        IWTRX(wtrx).withdraw(amountTRX);\n        TransferHelper.safeTransferTRX(to, amountTRX);\n    }\n\n    function swapExactTokensForTokens(\n        uint256 amountIn,\n        uint256 amountOutMin,\n        address[] calldata path,\n        address to,\n        uint256 deadline\n    ) external ensure(deadline) returns (uint256[] memory amounts) {\n        amounts = SwapLibrary.getAmountsOut(factory, amountIn, path);\n\n        require(\n            amounts[amounts.length - 1] >= amountOutMin,\n            \"Router: INSUFFICIENT_OUTPUT_AMOUNT\"\n        );\n\n        TransferHelper.safeTransferFrom(\n            path[0],\n            msg.sender,\n            SwapLibrary.pairFor(factory, path[0], path[1]),\n            amounts[0]\n        );\n        _swap(amounts, path, to);\n    }\n\n    function swapTokensForExactTokens(\n        uint256 amountOut,\n        uint256 amountInMax,\n        address[] calldata path,\n        address to,\n        uint256 deadline\n    ) external ensure(deadline) returns (uint256[] memory amounts) {\n        amounts = SwapLibrary.getAmountsIn(factory, amountOut, path);\n\n        require(amounts[0] <= amountInMax, \"Router: EXCESSIVE_INPUT_AMOUNT\");\n\n        TransferHelper.safeTransferFrom(\n            path[0],\n            msg.sender,\n            SwapLibrary.pairFor(factory, path[0], path[1]),\n            amounts[0]\n        );\n\n        _swap(amounts, path, to);\n    }\n\n    function swapExactTRXForTokens(\n        uint256 amountOutMin,\n        address[] calldata path,\n        address to,\n        uint256 deadline\n    ) external payable ensure(deadline) returns (uint256[] memory amounts) {\n        require(path[0] == wtrx, \"Router: INVALID_PATH\");\n\n        amounts = SwapLibrary.getAmountsOut(factory, msg.value, path);\n\n        require(\n            amounts[amounts.length - 1] >= amountOutMin,\n            \"Router: INSUFFICIENT_OUTPUT_AMOUNT\"\n        );\n\n        IWTRX(wtrx).deposit{value: amounts[0]}();\n        assert(\n            ITRC20(wtrx).transfer(\n                SwapLibrary.pairFor(factory, path[0], path[1]),\n                amounts[0]\n            )\n        );\n\n        _swap(amounts, path, to);\n    }\n\n    function swapTRXForExactTokens(\n        uint256 amountOut,\n        address[] calldata path,\n        address to,\n        uint256 deadline\n    ) external payable ensure(deadline) returns (uint256[] memory amounts) {\n        require(path[0] == wtrx, \"Router: INVALID_PATH\");\n\n        amounts = SwapLibrary.getAmountsIn(factory, amountOut, path);\n\n        require(amounts[0] <= msg.value, \"Router: EXCESSIVE_INPUT_AMOUNT\");\n\n        IWTRX(wtrx).deposit{value: amounts[0]}();\n        assert(\n            ITRC20(wtrx).transfer(\n                SwapLibrary.pairFor(factory, path[0], path[1]),\n                amounts[0]\n            )\n        );\n\n        _swap(amounts, path, to);\n\n        if (msg.value > amounts[0])\n            TransferHelper.safeTransferTRX(msg.sender, msg.value - amounts[0]);\n    }\n\n    function swapExactTokensForTRX(\n        uint256 amountIn,\n        uint256 amountOutMin,\n        address[] calldata path,\n        address to,\n        uint256 deadline\n    ) external ensure(deadline) returns (uint256[] memory amounts) {\n        require(path[path.length - 1] == wtrx, \"Router: INVALID_PATH\");\n\n        amounts = SwapLibrary.getAmountsOut(factory, amountIn, path);\n        require(\n            amounts[amounts.length - 1] >= amountOutMin,\n            \"Router: INSUFFICIENT_OUTPUT_AMOUNT\"\n        );\n\n        TransferHelper.safeTransferFrom(\n            path[0],\n            msg.sender,\n            SwapLibrary.pairFor(factory, path[0], path[1]),\n            amounts[0]\n        );\n\n        _swap(amounts, path, address(this));\n\n        IWTRX(wtrx).withdraw(amounts[amounts.length - 1]);\n\n        TransferHelper.safeTransferTRX(to, amounts[amounts.length - 1]);\n    }\n\n    function swapTokensForExactTRX(\n        uint256 amountOut,\n        uint256 amountInMax,\n        address[] calldata path,\n        address to,\n        uint256 deadline\n    ) external ensure(deadline) returns (uint256[] memory amounts) {\n        require(path[path.length - 1] == wtrx, \"Router: INVALID_PATH\");\n\n        amounts = SwapLibrary.getAmountsIn(factory, amountOut, path);\n\n        require(amounts[0] <= amountInMax, \"Router: EXCESSIVE_INPUT_AMOUNT\");\n\n        TransferHelper.safeTransferFrom(\n            path[0],\n            msg.sender,\n            SwapLibrary.pairFor(factory, path[0], path[1]),\n            amounts[0]\n        );\n\n        _swap(amounts, path, address(this));\n\n        IWTRX(wtrx).withdraw(amounts[amounts.length - 1]);\n\n        TransferHelper.safeTransferTRX(to, amounts[amounts.length - 1]);\n    }\n\n    function getAmountsIn(uint256 amountOut, address[] memory path)\n        public\n        view\n        returns (uint256[] memory amounts)\n    {\n        return SwapLibrary.getAmountsIn(factory, amountOut, path);\n    }\n\n    function getAmountsOut(uint256 amountIn, address[] memory path)\n        public\n        view\n        returns (uint256[] memory amounts)\n    {\n        return SwapLibrary.getAmountsOut(factory, amountIn, path);\n    }\n\n    function calcPairLiquidity(\n        uint256 amountA,\n        address tokenA,\n        address tokenB,\n        bool reverse\n    ) external view returns (uint256 amountB, uint256 share) {\n        (uint256 reserveA, uint256 reserveB) = SwapLibrary.getReserves(\n            factory,\n            tokenA,\n            tokenB\n        );\n\n        amountB = reverse\n            ? SwapLibrary.quote(amountA, reserveB, reserveA)\n            : SwapLibrary.quote(amountA, reserveA, reserveB);\n        share = reverse\n            ? amountA.mul(100) / reserveB.add(amountA)\n            : amountA.mul(100) / reserveA.add(amountA);\n    }\n\n    function calcPairSwap(\n        uint256 amountA,\n        address tokenA,\n        address tokenB,\n        bool reverse\n    ) external view returns (uint256 amountB, uint256 priceImpact) {\n        (uint256 reserveA, uint256 reserveB) = SwapLibrary.getReserves(\n            factory,\n            tokenA,\n            tokenB\n        );\n\n        amountB = reverse\n            ? SwapLibrary.getAmountIn(amountA, reserveA, reserveB)\n            : SwapLibrary.getAmountOut(amountA, reserveA, reserveB);\n        priceImpact = reverse\n            ? reserveA.sub(reserveA.sub(amountB)).mul(10000) / reserveA\n            : reserveB.sub(reserveB.sub(amountB)).mul(10000) / reserveB;\n    }\n\n    function getPair(\n        address owner,\n        address tokenA,\n        address tokenB\n    )\n        external\n        view\n        returns (\n            address pair,\n            uint256 totalSupply,\n            uint256 supply,\n            uint256 reserveA,\n            uint256 reserveB\n        )\n    {\n        pair = SwapLibrary.pairFor(factory, tokenA, tokenB);\n        totalSupply = ITRC20(pair).totalSupply();\n        supply = ITRC20(pair).balanceOf(owner);\n\n        (address token0, ) = SwapLibrary.sortTokens(tokenA, tokenB);\n\n        if (token0 != tokenA)\n            (reserveB, reserveA) = SwapLibrary.getReserves(\n                factory,\n                tokenA,\n                tokenB\n            );\n        else\n            (reserveA, reserveB) = SwapLibrary.getReserves(\n                factory,\n                tokenA,\n                tokenB\n            );\n    }\n\n    function getPairs(\n        address owner,\n        uint256 start,\n        uint256 limit\n    )\n        external\n        view\n        returns (\n            uint256 count,\n            address[] memory from,\n            address[] memory to,\n            uint256[] memory supply\n        )\n    {\n        count = ISocialswapFactory(factory).allPairsLength();\n\n        from = new address[](limit);\n        to = new address[](limit);\n        supply = new uint256[](limit);\n\n        uint256 matches = 0;\n\n        for (uint256 i = start; i < start + limit && i < count; i++) {\n            address pair = ISocialswapFactory(factory).allPairs(i);\n\n            from[matches] = ISocialswapPair(pair).token0();\n            to[matches] = ISocialswapPair(pair).token1();\n            supply[matches++] = ITRC20(pair).balanceOf(owner);\n        }\n    }\n}\n",
  "sourcePath": "C:/Dev/daubit/github/tracy-tron/tracy-tron/contracts/contracts/socialswap/SocialswapRouter.sol",
  "compiler": {
    "name": "solc",
    "version": "0.8.6+commit.0e36fba0.mod.Emscripten.clang"
  },
  "schemaVersion": "2.0.1",
  "updatedAt": "2022-11-11T14:29:54.121Z"
}