{
  "contractName": "SocialswapFactory",
  "abi": [
    {
      "inputs": [
        {
          "internalType": "address",
          "name": "_feeToSetter",
          "type": "address"
        }
      ],
      "stateMutability": "nonpayable",
      "type": "constructor"
    },
    {
      "anonymous": false,
      "inputs": [
        {
          "indexed": true,
          "internalType": "address",
          "name": "token0",
          "type": "address"
        },
        {
          "indexed": true,
          "internalType": "address",
          "name": "token1",
          "type": "address"
        },
        {
          "indexed": false,
          "internalType": "address",
          "name": "pair",
          "type": "address"
        },
        {
          "indexed": false,
          "internalType": "uint256",
          "name": "index",
          "type": "uint256"
        }
      ],
      "name": "PairCreated",
      "type": "event",
      "stateMutability": "nonpayable"
    },
    {
      "inputs": [
        {
          "internalType": "uint256",
          "name": "",
          "type": "uint256"
        }
      ],
      "name": "allPairs",
      "outputs": [
        {
          "internalType": "address",
          "name": "",
          "type": "address"
        }
      ],
      "stateMutability": "view",
      "type": "function"
    },
    {
      "inputs": [],
      "name": "allPairsLength",
      "outputs": [
        {
          "internalType": "uint256",
          "name": "",
          "type": "uint256"
        }
      ],
      "stateMutability": "view",
      "type": "function"
    },
    {
      "inputs": [
        {
          "internalType": "address",
          "name": "tokenA",
          "type": "address"
        },
        {
          "internalType": "address",
          "name": "tokenB",
          "type": "address"
        }
      ],
      "name": "createPair",
      "outputs": [
        {
          "internalType": "address",
          "name": "pair",
          "type": "address"
        }
      ],
      "stateMutability": "nonpayable",
      "type": "function"
    },
    {
      "inputs": [],
      "name": "feeTo",
      "outputs": [
        {
          "internalType": "address",
          "name": "",
          "type": "address"
        }
      ],
      "stateMutability": "view",
      "type": "function"
    },
    {
      "inputs": [],
      "name": "feeToSetter",
      "outputs": [
        {
          "internalType": "address",
          "name": "",
          "type": "address"
        }
      ],
      "stateMutability": "view",
      "type": "function"
    },
    {
      "inputs": [
        {
          "internalType": "address",
          "name": "tokenA",
          "type": "address"
        },
        {
          "internalType": "address",
          "name": "tokenB",
          "type": "address"
        }
      ],
      "name": "getPair",
      "outputs": [
        {
          "internalType": "address",
          "name": "pair",
          "type": "address"
        }
      ],
      "stateMutability": "view",
      "type": "function"
    },
    {
      "inputs": [
        {
          "internalType": "address",
          "name": "",
          "type": "address"
        },
        {
          "internalType": "address",
          "name": "",
          "type": "address"
        }
      ],
      "name": "pairs",
      "outputs": [
        {
          "internalType": "address",
          "name": "",
          "type": "address"
        }
      ],
      "stateMutability": "view",
      "type": "function"
    },
    {
      "inputs": [
        {
          "internalType": "address",
          "name": "_feeTo",
          "type": "address"
        }
      ],
      "name": "setFeeTo",
      "outputs": [],
      "stateMutability": "nonpayable",
      "type": "function"
    },
    {
      "inputs": [
        {
          "internalType": "address",
          "name": "_feeToSetter",
          "type": "address"
        }
      ],
      "name": "setFeeToSetter",
      "outputs": [],
      "stateMutability": "nonpayable",
      "type": "function"
    }
  ],
  "bytecode": "0x608060405234801561001057600080fd5b50d3801561001d57600080fd5b50d2801561002a57600080fd5b50604051612a4b380380612a4b83398101604081905261004991610078565b600180546001600160a01b039092166001600160a01b03199283168117909155600080549092161790556100b1565b60006020828403121561008a57600080fd5b81516001600160a81b03811681146100a157600080fd5b6001600160a01b03169392505050565b61298b806100c06000396000f3fe608060405234801561001057600080fd5b50d3801561001d57600080fd5b50d2801561002a57600080fd5b50600436106100ad5760003560e01c806369454b861161008057806369454b8614610119578063a2e74af61461014d578063c9c6539614610162578063e6a4390514610175578063f46901ed1461018857600080fd5b8063017e7e58146100b2578063094b7415146100e25780631e3dd18b146100f5578063574f2ba314610108575b600080fd5b6000546100c5906001600160a01b031681565b6040516001600160a01b0390911681526020015b60405180910390f35b6001546100c5906001600160a01b031681565b6100c561010336600461064e565b61019b565b6003546040519081526020016100d9565b6100c561012736600461061b565b60026020908152600092835260408084209091529082529020546001600160a01b031681565b61016061015b366004610600565b6101c5565b005b6100c561017036600461061b565b61023b565b6100c561018336600461061b565b6104e2565b610160610196366004610600565b61055a565b600381815481106101ab57600080fd5b6000918252602090912001546001600160a01b0316905081565b6001546001600160a01b031633146102195760405162461bcd60e51b81526020600482015260126024820152712330b1ba37b93c9d102327a92124a22222a760711b60448201526064015b60405180910390fd5b600180546001600160a01b0319166001600160a01b0392909216919091179055565b6000816001600160a01b0316836001600160a01b0316141561029f5760405162461bcd60e51b815260206004820152601c60248201527f466163746f72793a204944454e544943414c5f414444524553534553000000006044820152606401610210565b600080836001600160a01b0316856001600160a01b0316106102c25783856102c5565b84845b90925090506001600160a01b0382166103185760405162461bcd60e51b8152602060048201526015602482015274466163746f72793a205a45524f5f4144445245535360581b6044820152606401610210565b6001600160a01b038281166000908152600260209081526040808320858516845290915290205416156103845760405162461bcd60e51b8152602060048201526014602482015273466163746f72793a20504149525f45584953545360601b6044820152606401610210565b604051610390906105cb565b604051809103906000f0801580156103ac573d6000803e3d6000fd5b5060405163485cc95560e01b81526001600160a01b03848116600483015283811660248301529194509084169063485cc95590604401600060405180830381600087803b1580156103fc57600080fd5b505af1158015610410573d6000803e3d6000fd5b505050506001600160a01b0382811660008181526002602081815260408084208787168086529083528185208054978b166001600160a01b031998891681179091559383528185208686528352818520805488168517905560038054600181018255958190527fc2575a0e9e593c00f959f8c92f12db2869c3395a3b0502d05e2516446f71f85b9095018054909716841790965592548351928352908201527f0d3648bd0f6ba80134a33ba9275ac585d9d315f0ad8355cddefde31afa28d0e9910160405180910390a3505092915050565b6000816001600160a01b0316836001600160a01b03161061052a576001600160a01b038083166000908152600260209081526040808320878516845290915290205416610553565b6001600160a01b0380841660009081526002602090815260408083208685168452909152902054165b9392505050565b6001546001600160a01b031633146105a95760405162461bcd60e51b81526020600482015260126024820152712330b1ba37b93c9d102327a92124a22222a760711b6044820152606401610210565b600080546001600160a01b0319166001600160a01b0392909216919091179055565b6122ee8061066883390190565b600081356001600160a81b03811681146105f157600080fd5b6001600160a01b031692915050565b60006020828403121561061257600080fd5b610553826105d8565b6000806040838503121561062e57600080fd5b610637836105d8565b9150610645602084016105d8565b90509250929050565b60006020828403121561066057600080fd5b503591905056fe6080604052600160075534801561001557600080fd5b50d3801561002257600080fd5b50d2801561002f57600080fd5b50600880546001600160a01b0319163317905561229d806100516000396000f3fe608060405234801561001057600080fd5b50d3801561001d57600080fd5b50d2801561002a57600080fd5b506004361061018d5760003560e01c80636a627842116100f8578063a9059cbb116100b1578063c45a01551161008b578063c45a01551461037a578063d21220a71461038d578063dd62ed3e146103a0578063fff6cae9146103d957600080fd5b8063a9059cbb1461034b578063ba9a7a561461035e578063bc25cf771461036757600080fd5b80636a627842146102c357806370a08231146102d65780637464fc3d146102ff57806389afcb441461030857806395d89b4114610330578063a457c2d71461033857600080fd5b806323b872dd1161014a57806323b872dd14610259578063313ce5671461026c578063395093511461028b578063485cc9551461029e5780635909c0d5146102b15780635a3d5493146102ba57600080fd5b8063022c0d9f1461019257806306fdde03146101a75780630902f1ac146101c5578063095ea7b3146101f95780630dfe16811461021c57806318160ddd14610247575b600080fd5b6101a56101a0366004611f6e565b6103e1565b005b6101af6108ec565b6040516101bc9190612075565b60405180910390f35b6101cd61097a565b604080516001600160701b03948516815293909216602084015263ffffffff16908201526060016101bc565b61020c610207366004611efe565b6109a4565b60405190151581526020016101bc565b60095461022f906001600160a01b031681565b6040516001600160a01b0390911681526020016101bc565b6005545b6040519081526020016101bc565b61020c610267366004611eb0565b6109bb565b6002546102799060ff1681565b60405160ff90911681526020016101bc565b61020c610299366004611efe565b610a0c565b6101a56102ac366004611e6a565b610a42565b61024b600b5481565b61024b600c5481565b61024b6102d1366004611e20565b610abc565b61024b6102e4366004611e20565b6001600160a01b031660009081526003602052604090205490565b61024b600d5481565b61031b610316366004611e20565b610daa565b604080519283526020830191909152016101bc565b6101af61116a565b61020c610346366004611efe565b611177565b61020c610359366004611efe565b6111ad565b61024b6103e881565b6101a5610375366004611e20565b6111ba565b60085461022f906001600160a01b031681565b600a5461022f906001600160a01b031681565b61024b6103ae366004611e6a565b6001600160a01b03918216600090815260046020908152604080832093909416825291909152205490565b6101a56112cf565b60075460011461040c5760405162461bcd60e51b8152600401610403906120a8565b60405180910390fd5b60006007558415158061041f5750600084115b61046b5760405162461bcd60e51b815260206004820181905260248201527f506169723a20494e53554646494349454e545f4f55545055545f414d4f554e546044820152606401610403565b60008061047661097a565b5091509150816001600160701b03168710801561049b5750806001600160701b031686105b6104e75760405162461bcd60e51b815260206004820152601c60248201527f506169723a20494e53554646494349454e545f4c4951554944495459000000006044820152606401610403565b6009546001600160a01b038681169116148015906105135750600a546001600160a01b03868116911614155b6105525760405162461bcd60e51b815260206004820152601060248201526f506169723a20494e56414c49445f544f60801b6044820152606401610403565b861561056f5760095461056f906001600160a01b03168689611411565b851561058c57600a5461058c906001600160a01b03168688611411565b82156105f95760405163849f941560e01b81526001600160a01b0386169063849f9415906105c69033908b908b908a908a90600401612029565b600060405180830381600087803b1580156105e057600080fd5b505af11580156105f4573d6000803e3d6000fd5b505050505b6009546040516370a0823160e01b81523060048201526000916001600160a01b0316906370a082319060240160206040518083038186803b15801561063d57600080fd5b505afa158015610651573d6000803e3d6000fd5b505050506040513d601f19601f820116820180604052508101906106759190611f55565b600a546040516370a0823160e01b81523060048201529192506000916001600160a01b03909116906370a082319060240160206040518083038186803b1580156106be57600080fd5b505afa1580156106d2573d6000803e3d6000fd5b505050506040513d601f19601f820116820180604052508101906106f69190611f55565b9050600061070d8a6001600160701b03871661216e565b831161071a576000610737565b61072d8a6001600160701b03871661216e565b610737908461216e565b9050600061074e8a6001600160701b03871661216e565b831161075b576000610778565b61076e8a6001600160701b03871661216e565b610778908461216e565b905060008211806107895750600081115b6107d55760405162461bcd60e51b815260206004820152601f60248201527f506169723a20494e53554646494349454e545f494e5055545f414d4f554e54006044820152606401610403565b60006107f76107e5846003611524565b6107f1876103e8611524565b9061158b565b905060006108096107e5846003611524565b905061082e620f42406108286001600160701b038b8116908b16611524565b90611524565b6108388383611524565b10156108775760405162461bcd60e51b815260206004820152600e60248201526d0506169723a2042616420737761760941b6044820152606401610403565b5050610885848488886115e1565b60408051838152602081018390529081018c9052606081018b90526001600160a01b038a169033907fd78ad95fa46c994b6551d0da85fc275fe613ce37657fb8d5e3d130840159d8229060800160405180910390a350506001600755505050505050505050565b600080546108f9906121da565b80601f0160208091040260200160405190810160405280929190818152602001828054610925906121da565b80156109725780601f1061094757610100808354040283529160200191610972565b820191906000526020600020905b81548152906001019060200180831161095557829003601f168201915b505050505081565b6006546001600160701b0380821692600160701b830490911691600160e01b900463ffffffff1690565b60006109b13384846117c8565b5060015b92915050565b60006109c88484846118ed565b6001600160a01b038416600090815260046020908152604080832033808552925290912054610a029186916109fd908661158b565b6117c8565b5060019392505050565b3360008181526004602090815260408083206001600160a01b038716845290915281205490916109b19185906109fd9086611a59565b6008546001600160a01b03163314610a8e5760405162461bcd60e51b815260206004820152600f60248201526e2830b4b91d102327a92124a22222a760891b6044820152606401610403565b600980546001600160a01b039384166001600160a01b031991821617909155600a8054929093169116179055565b6000600754600114610ae05760405162461bcd60e51b8152600401610403906120a8565b6000600781905580610af061097a565b506009546040516370a0823160e01b81523060048201529294509092506000916001600160a01b03909116906370a082319060240160206040518083038186803b158015610b3d57600080fd5b505afa158015610b51573d6000803e3d6000fd5b505050506040513d601f19601f82011682018060405250810190610b759190611f55565b600a546040516370a0823160e01b81523060048201529192506000916001600160a01b03909116906370a082319060240160206040518083038186803b158015610bbe57600080fd5b505afa158015610bd2573d6000803e3d6000fd5b505050506040513d601f19601f82011682018060405250810190610bf69190611f55565b90506000610c0d836001600160701b03871661158b565b90506000610c24836001600160701b03871661158b565b90506000610c328787611aae565b9050610c3d60055490565b610c6d57610c596103e86107f1610c548686611524565b611bf9565b9750610c6860006103e8611c69565b610cbf565b610cbc876001600160701b0316610c8d610c8660055490565b8690611524565b610c97919061210c565b876001600160701b0316610cad610c8660055490565b610cb7919061210c565b611cf9565b97505b60008811610d1b5760405162461bcd60e51b815260206004820152602360248201527f506169723a20494e53554646494349454e545f4c49515549444954595f4d494e60448201526215115160ea1b6064820152608401610403565b610d258989611c69565b610d31858589896115e1565b8015610d5b57600654610d57906001600160701b0380821691600160701b900416611524565b600d555b604080518481526020810184905233917f4c209b5fc8ad50758f13e2e1088ba56a560dff690a1c6fef26394f4c03821c4f910160405180910390a2505060016007555060009695505050505050565b600080600754600114610dcf5760405162461bcd60e51b8152600401610403906120a8565b6000600781905580610ddf61097a565b506009546040516370a0823160e01b81523060048201529294509092506000916001600160a01b03909116906370a082319060240160206040518083038186803b158015610e2c57600080fd5b505afa158015610e40573d6000803e3d6000fd5b505050506040513d601f19601f82011682018060405250810190610e649190611f55565b600a546040516370a0823160e01b81523060048201529192506000916001600160a01b03909116906370a082319060240160206040518083038186803b158015610ead57600080fd5b505afa158015610ec1573d6000803e3d6000fd5b505050506040513d601f19601f82011682018060405250810190610ee59190611f55565b30600090815260036020526040812054919250610f028686611aae565b9050610f0d60055490565b610f178386611524565b610f21919061210c565b9750610f2c60055490565b610f368385611524565b610f40919061210c565b9650600088118015610f525750600087115b610faa5760405162461bcd60e51b815260206004820152602360248201527f506169723a20494e53554646494349454e545f4c49515549444954595f42555260448201526213915160ea1b6064820152608401610403565b610fb43083611d11565b600954610fcb906001600160a01b03168a8a611411565b600a54610fe2906001600160a01b03168a89611411565b6009546040516370a0823160e01b81523060048201526001600160a01b03909116906370a082319060240160206040518083038186803b15801561102557600080fd5b505afa158015611039573d6000803e3d6000fd5b505050506040513d601f19601f8201168201806040525081019061105d9190611f55565b600a546040516370a0823160e01b81523060048201529195506001600160a01b0316906370a082319060240160206040518083038186803b1580156110a157600080fd5b505afa1580156110b5573d6000803e3d6000fd5b505050506040513d601f19601f820116820180604052508101906110d99190611f55565b92506110e7848488886115e1565b80156111115760065461110d906001600160701b0380821691600160701b900416611524565b600d555b60408051898152602081018990526001600160a01b038b169133917fdccd412f0b1252819cb1fd330b93224ca42612892bb3f4f789976e6d81936496910160405180910390a35050505050506001600781905550915091565b600180546108f9906121da565b3360008181526004602090815260408083206001600160a01b038716845290915281205490916109b19185906109fd908661158b565b60006109b13384846118ed565b6007546001146111dc5760405162461bcd60e51b8152600401610403906120a8565b60006007556009546006546040516370a0823160e01b8152306004820152611279926001600160a01b0316918491611274916001600160701b03169084906370a08231906024015b60206040518083038186803b15801561123c57600080fd5b505afa158015611250573d6000803e3d6000fd5b505050506040513d601f19601f820116820180604052508101906107f19190611f55565b611411565b600a546006546040516370a0823160e01b81523060048201526112c7926001600160a01b031691849161127491600160701b90046001600160701b03169084906370a0823190602401611224565b506001600755565b6007546001146112f15760405162461bcd60e51b8152600401610403906120a8565b60006007556009546040516370a0823160e01b815230600482015261140a916001600160a01b0316906370a082319060240160206040518083038186803b15801561133b57600080fd5b505afa15801561134f573d6000803e3d6000fd5b505050506040513d601f19601f820116820180604052508101906113739190611f55565b600a546040516370a0823160e01b81523060048201526001600160a01b03909116906370a082319060240160206040518083038186803b1580156113b657600080fd5b505afa1580156113ca573d6000803e3d6000fd5b505050506040513d601f19601f820116820180604052508101906113ee9190611f55565b6006546001600160701b0380821691600160701b9004166115e1565b6001600755565b604080516001600160a01b038481166024830152604480830185905283518084039091018152606490920183526020820180516001600160e01b031663a9059cbb60e01b179052915160009283929087169161146d919061200d565b6000604051808303816000865af19150503d80600081146114aa576040519150601f19603f3d011682016040523d82523d6000602084013e6114af565b606091505b50915091508180156114d95750805115806114d95750808060200190518101906114d99190611f33565b61151d5760405162461bcd60e51b815260206004820152601560248201527414185a5c8e881514905394d1915497d19052531151605a1b6044820152606401610403565b5050505050565b60008115806115485750828261153a818361214f565b9250611546908361210c565b145b6109b55760405162461bcd60e51b815260206004820152601460248201527364732d6d6174682d6d756c2d6f766572666c6f7760601b6044820152606401610403565b600082611598838261216e565b91508111156109b55760405162461bcd60e51b815260206004820152601560248201527464732d6d6174682d7375622d756e646572666c6f7760581b6044820152606401610403565b6001600160701b0384118015906115ff57506001600160701b038311155b61163c5760405162461bcd60e51b815260206004820152600e60248201526d506169723a204f564552464c4f5760901b6044820152606401610403565b600061164d6401000000004261220f565b60065490915060009061166d90600160e01b900463ffffffff1683612185565b905060008163ffffffff1611801561168d57506001600160701b03841615155b80156116a157506001600160701b03831615155b15611730578063ffffffff166116c9856116ba86611df2565b6001600160e01b031690611e0b565b6001600160e01b03166116dc919061214f565b600b60008282546116ed91906120ce565b909155505063ffffffff8116611706846116ba87611df2565b6001600160e01b0316611719919061214f565b600c600082825461172a91906120ce565b90915550505b6006805463ffffffff8416600160e01b026001600160e01b036001600160701b03898116600160701b9081026001600160e01b03199095168c83161794909417918216831794859055604080519382169282169290921783529290930490911660208201527f1c411e9a96e071241c2f21f7726b17ae89e3cab4c78be50e062b03a9fffbbad1910160405180910390a1505050505050565b6001600160a01b03831661182a5760405162461bcd60e51b8152602060048201526024808201527f54524332303a20617070726f76652066726f6d20746865207a65726f206164646044820152637265737360e01b6064820152608401610403565b6001600160a01b03821661188b5760405162461bcd60e51b815260206004820152602260248201527f54524332303a20617070726f766520746f20746865207a65726f206164647265604482015261737360f01b6064820152608401610403565b6001600160a01b0383811660008181526004602090815260408083209487168084529482529182902085905590518481527f8c5be1e5ebec7d5bd14f71427d1e84f3dd0314c0f7b2291e5b200ac8c7c3b92591015b60405180910390a3505050565b6001600160a01b0383166119515760405162461bcd60e51b815260206004820152602560248201527f54524332303a207472616e736665722066726f6d20746865207a65726f206164604482015264647265737360d81b6064820152608401610403565b6001600160a01b0382166119b35760405162461bcd60e51b815260206004820152602360248201527f54524332303a207472616e7366657220746f20746865207a65726f206164647260448201526265737360e81b6064820152608401610403565b6001600160a01b0383166000908152600360205260409020546119d6908261158b565b6001600160a01b038085166000908152600360205260408082209390935590841681522054611a059082611a59565b6001600160a01b0380841660008181526003602052604090819020939093559151908516907fddf252ad1be2c89b69c2b068fc378daa952ba7f163c4a11628f55a4df523b3ef906118e09085815260200190565b600082611a6683826120ce565b91508110156109b55760405162461bcd60e51b815260206004820152601460248201527364732d6d6174682d6164642d6f766572666c6f7760601b6044820152606401610403565b600080600860009054906101000a90046001600160a01b03166001600160a01b031663017e7e586040518163ffffffff1660e01b815260040160206040518083038186803b158015611aff57600080fd5b505afa158015611b13573d6000803e3d6000fd5b505050506040513d601f19601f82011682018060405250810190611b379190611e4d565b600d546001600160a01b038216158015945091925090611be5578015611be0576000611b72610c546001600160701b03888116908816611524565b90506000611b7f83611bf9565b905080821115611bdd576000611ba0611b98848461158b565b600554610828565b90506000611bb983611bb3866005611524565b90611a59565b90506000611bc7828461210c565b90508015611bd957611bd98782611c69565b5050505b50505b611bf1565b8015611bf1576000600d555b505092915050565b60006003821115611c5a5750806000611c1360028361210c565b611c1e9060016120ce565b90505b81811015611c5457905080600281611c39818661210c565b611c4391906120ce565b611c4d919061210c565b9050611c21565b50919050565b8115611c64575060015b919050565b600554611c769082611a59565b6005556001600160a01b038216600090815260036020526040902054611c9c9082611a59565b6001600160a01b0383166000818152600360205260408082209390935591519091907fddf252ad1be2c89b69c2b068fc378daa952ba7f163c4a11628f55a4df523b3ef90611ced9085815260200190565b60405180910390a35050565b6000818310611d085781611d0a565b825b9392505050565b6001600160a01b038216611d715760405162461bcd60e51b815260206004820152602160248201527f54524332303a206275726e2066726f6d20746865207a65726f206164647265736044820152607360f81b6064820152608401610403565b600554611d7e908261158b565b6005556001600160a01b038216600090815260036020526040902054611da4908261158b565b6001600160a01b0383166000818152600360205260408082209390935591517fddf252ad1be2c89b69c2b068fc378daa952ba7f163c4a11628f55a4df523b3ef90611ced9085815260200190565b60006109b5600160701b6001600160701b038416612120565b6000611d0a6001600160701b038316846120e6565b600060208284031215611e3257600080fd5b8135611e3d8161224f565b6001600160a01b03169392505050565b600060208284031215611e5f57600080fd5b8151611e3d8161224f565b60008060408385031215611e7d57600080fd5b8235611e888161224f565b6001600160a01b039081169250602084013590611ea48261224f565b92959216935090915050565b600080600060608486031215611ec557600080fd5b8335611ed08161224f565b6001600160a01b039081169350602085013590611eec8261224f565b93969316945050506040919091013590565b60008060408385031215611f1157600080fd5b8235611f1c8161224f565b6001600160a01b0316946020939093013593505050565b600060208284031215611f4557600080fd5b81518015158114611d0a57600080fd5b600060208284031215611f6757600080fd5b5051919050565b600080600080600060808688031215611f8657600080fd5b85359450602086013593506040860135611f9f8161224f565b6001600160a01b03169250606086013567ffffffffffffffff80821115611fc557600080fd5b818801915088601f830112611fd957600080fd5b813581811115611fe857600080fd5b896020828501011115611ffa57600080fd5b9699959850939650602001949392505050565b6000825161201f8184602087016121aa565b9190910192915050565b60018060a01b038616815284602082015283604082015260806060820152816080820152818360a0830137600081830160a090810191909152601f909201601f19160101949350505050565b60208152600082518060208401526120948160408501602087016121aa565b601f01601f19169190910160400192915050565b6020808252600c908201526b131bd8dace881313d0d2d15160a21b604082015260600190565b600082198211156120e1576120e1612223565b500190565b60006001600160e01b038381168061210057612100612239565b92169190910492915050565b60008261211b5761211b612239565b500490565b60006001600160e01b038281168482168115158284048211161561214657612146612223565b02949350505050565b600081600019048311821515161561216957612169612223565b500290565b60008282101561218057612180612223565b500390565b600063ffffffff838116908316818110156121a2576121a2612223565b039392505050565b60005b838110156121c55781810151838201526020016121ad565b838111156121d4576000848401525b50505050565b600181811c908216806121ee57607f821691505b60208210811415611c5457634e487b7160e01b600052602260045260246000fd5b60008261221e5761221e612239565b500690565b634e487b7160e01b600052601160045260246000fd5b634e487b7160e01b600052601260045260246000fd5b6001600160a81b038116811461226457600080fd5b5056fea26474726f6e582212204ce5a8d2c6a1e513d7f4897017a8e520f46ca26bbc2d40fee0aa16c6d572507964736f6c63430008060033a26474726f6e582212201ef4f748031210aaef7097be5087daec53753eb193b632fed7ee91e036fd231864736f6c63430008060033",
  "source": "/*! socialswap.router.sol | SPDX-License-Identifier: MIT License */\n\npragma solidity 0.8.6;\n\nimport \"./interface/ISocialswapFactory.sol\";\nimport \"./SocialswapPair.sol\";\n\ncontract SocialswapFactory is ISocialswapFactory {\n    address public override feeTo;\n    address public override feeToSetter;\n\n    mapping(address => mapping(address => address)) public pairs;\n    address[] public override allPairs;\n\n    constructor(address _feeToSetter) {\n        feeToSetter = _feeToSetter;\n        feeTo = _feeToSetter;\n    }\n\n    function createPair(address tokenA, address tokenB)\n        external\n        override\n        returns (address pair)\n    {\n        require(tokenA != tokenB, \"Factory: IDENTICAL_ADDRESSES\");\n\n        (address token0, address token1) = tokenA < tokenB\n            ? (tokenA, tokenB)\n            : (tokenB, tokenA);\n\n        require(token0 != address(0), \"Factory: ZERO_ADDRESS\");\n        require(pairs[token0][token1] == address(0), \"Factory: PAIR_EXISTS\");\n\n        pair = address(new SocialswapPair());\n\n        ISocialswapPair(pair).initialize(token0, token1);\n\n        pairs[token0][token1] = pair;\n        pairs[token1][token0] = pair;\n        allPairs.push(pair);\n\n        emit PairCreated(token0, token1, pair, allPairs.length);\n    }\n\n    function setFeeTo(address _feeTo) external override {\n        require(msg.sender == feeToSetter, \"Factory: FORBIDDEN\");\n\n        feeTo = _feeTo;\n    }\n\n    function setFeeToSetter(address _feeToSetter) external override {\n        require(msg.sender == feeToSetter, \"Factory: FORBIDDEN\");\n\n        feeToSetter = _feeToSetter;\n    }\n\n    function getPair(address tokenA, address tokenB)\n        external\n        view\n        override\n        returns (address pair)\n    {\n        pair = tokenA < tokenB ? pairs[tokenA][tokenB] : pairs[tokenB][tokenA];\n    }\n\n    function allPairsLength() external view override returns (uint256) {\n        return allPairs.length;\n    }\n}\n",
  "sourcePath": "C:/Dev/daubit/github/tracy-tron/tracy-tron/contracts/contracts/socialswap/SocialswapFactory.sol",
  "compiler": {
    "name": "solc",
    "version": "0.8.6+commit.0e36fba0.mod.Emscripten.clang"
  },
  "schemaVersion": "2.0.1",
  "updatedAt": "2022-11-11T14:29:47.912Z"
}