{
  "contractName": "SunswapV2Factory",
  "abi": [
    {
      "inputs": [
        {
          "internalType": "address",
          "name": "_feeToSetter",
          "type": "address"
        }
      ],
      "stateMutability": "nonpayable",
      "type": "constructor"
    },
    {
      "anonymous": false,
      "inputs": [
        {
          "indexed": true,
          "internalType": "address",
          "name": "token0",
          "type": "address"
        },
        {
          "indexed": true,
          "internalType": "address",
          "name": "token1",
          "type": "address"
        },
        {
          "indexed": false,
          "internalType": "address",
          "name": "pair",
          "type": "address"
        },
        {
          "indexed": false,
          "internalType": "uint256",
          "name": "",
          "type": "uint256"
        }
      ],
      "name": "PairCreated",
      "type": "event",
      "stateMutability": "nonpayable"
    },
    {
      "inputs": [
        {
          "internalType": "uint256",
          "name": "",
          "type": "uint256"
        }
      ],
      "name": "allPairs",
      "outputs": [
        {
          "internalType": "address",
          "name": "",
          "type": "address"
        }
      ],
      "stateMutability": "view",
      "type": "function"
    },
    {
      "inputs": [],
      "name": "allPairsLength",
      "outputs": [
        {
          "internalType": "uint256",
          "name": "",
          "type": "uint256"
        }
      ],
      "stateMutability": "view",
      "type": "function"
    },
    {
      "inputs": [
        {
          "internalType": "address",
          "name": "tokenA",
          "type": "address"
        },
        {
          "internalType": "address",
          "name": "tokenB",
          "type": "address"
        }
      ],
      "name": "createPair",
      "outputs": [
        {
          "internalType": "address",
          "name": "pair",
          "type": "address"
        }
      ],
      "stateMutability": "nonpayable",
      "type": "function"
    },
    {
      "inputs": [],
      "name": "feeTo",
      "outputs": [
        {
          "internalType": "address",
          "name": "",
          "type": "address"
        }
      ],
      "stateMutability": "view",
      "type": "function"
    },
    {
      "inputs": [],
      "name": "feeToSetter",
      "outputs": [
        {
          "internalType": "address",
          "name": "",
          "type": "address"
        }
      ],
      "stateMutability": "view",
      "type": "function"
    },
    {
      "inputs": [
        {
          "internalType": "address",
          "name": "",
          "type": "address"
        },
        {
          "internalType": "address",
          "name": "",
          "type": "address"
        }
      ],
      "name": "getPair",
      "outputs": [
        {
          "internalType": "address",
          "name": "",
          "type": "address"
        }
      ],
      "stateMutability": "view",
      "type": "function"
    },
    {
      "inputs": [],
      "name": "getPairHash",
      "outputs": [
        {
          "internalType": "bytes32",
          "name": "",
          "type": "bytes32"
        }
      ],
      "stateMutability": "pure",
      "type": "function"
    },
    {
      "inputs": [
        {
          "internalType": "address",
          "name": "_feeTo",
          "type": "address"
        }
      ],
      "name": "setFeeTo",
      "outputs": [],
      "stateMutability": "nonpayable",
      "type": "function"
    },
    {
      "inputs": [
        {
          "internalType": "address",
          "name": "_feeToSetter",
          "type": "address"
        }
      ],
      "name": "setFeeToSetter",
      "outputs": [],
      "stateMutability": "nonpayable",
      "type": "function"
    }
  ],
  "bytecode": "0x608060405234801561001057600080fd5b50d3801561001d57600080fd5b50d2801561002a57600080fd5b50604051612bf0380380612bf08339810160408190526100499161006e565b600180546001600160a01b0319166001600160a01b03929092169190911790556100a7565b60006020828403121561008057600080fd5b81516001600160a81b038116811461009757600080fd5b6001600160a01b03169392505050565b612b3a806100b66000396000f3fe608060405234801561001057600080fd5b50d3801561001d57600080fd5b50d2801561002a57600080fd5b50600436106100ad5760003560e01c806379a3bc4e1161008057806379a3bc4e1461011a578063a2e74af614610122578063c9c6539614610137578063e6a439051461014a578063f46901ed1461017e57600080fd5b8063017e7e58146100b2578063094b7415146100e25780631e3dd18b146100f5578063574f2ba314610108575b600080fd5b6000546100c5906001600160a01b031681565b6040516001600160a01b0390911681526020015b60405180910390f35b6001546100c5906001600160a01b031681565b6100c5610103366004610661565b610191565b6003545b6040519081526020016100d9565b61010c6101bb565b61013561013036600461060c565b6101ed565b005b6100c561014536600461062e565b610265565b6100c561015836600461062e565b60026020908152600092835260408084209091529082529020546001600160a01b031681565b61013561018c36600461060c565b610564565b600381815481106101a157600080fd5b6000918252602090912001546001600160a01b0316905081565b6000604051806020016101cd906105d7565b6020820181038252601f19601f8201166040525080519060200120905090565b6001546001600160a01b031633146102435760405162461bcd60e51b815260206004820152601460248201527329bab739bbb0b82b191d102327a92124a22222a760611b60448201526064015b60405180910390fd5b600180546001600160a01b0319166001600160a01b0392909216919091179055565b6000816001600160a01b0316836001600160a01b031614156102c95760405162461bcd60e51b815260206004820152601e60248201527f53756e7377617056323a204944454e544943414c5f4144445245535345530000604482015260640161023a565b600080836001600160a01b0316856001600160a01b0316106102ec5783856102ef565b84845b90925090506001600160a01b03821661034a5760405162461bcd60e51b815260206004820152601760248201527f53756e7377617056323a205a45524f5f41444452455353000000000000000000604482015260640161023a565b6001600160a01b038281166000908152600260209081526040808320858516845290915290205416156103b85760405162461bcd60e51b815260206004820152601660248201527553756e7377617056323a20504149525f45584953545360501b604482015260640161023a565b6000604051806020016103ca906105d7565b601f1982820381018352601f9091011660408190526bffffffffffffffffffffffff19606086811b8216602084015285901b166034820152909150600090604801604051602081830303815290604052805190602001209050808251602084016000f560405163485cc95560e01b81526001600160a01b03868116600483015285811660248301529196509086169063485cc95590604401600060405180830381600087803b15801561047c57600080fd5b505af1158015610490573d6000803e3d6000fd5b505050506001600160a01b0384811660008181526002602081815260408084208987168086529083528185208054978d166001600160a01b031998891681179091559383528185208686528352818520805488168517905560038054600181018255958190527fc2575a0e9e593c00f959f8c92f12db2869c3395a3b0502d05e2516446f71f85b9095018054909716841790965592548351928352908201527f0d3648bd0f6ba80134a33ba9275ac585d9d315f0ad8355cddefde31afa28d0e9910160405180910390a35050505092915050565b6001546001600160a01b031633146105b55760405162461bcd60e51b815260206004820152601460248201527329bab739bbb0b82b191d102327a92124a22222a760611b604482015260640161023a565b600080546001600160a01b0319166001600160a01b0392909216919091179055565b61248a8061067b83390190565b600081356001600160a81b03811681146105fd57600080fd5b6001600160a01b031692915050565b60006020828403121561061e57600080fd5b610627826105e4565b9392505050565b6000806040838503121561064157600080fd5b61064a836105e4565b9150610658602084016105e4565b90509250929050565b60006020828403121561067357600080fd5b503591905056fe60806040526001600c5534801561001557600080fd5b50d3801561002257600080fd5b50d2801561002f57600080fd5b50604080518082018252600a8152692ab734b9bbb0b8102b1960b11b602091820152815180830183526001808252603160f81b9183019190915282517f8b73c3c69bb8fe3d512ecc4cf759cc79239f7b179b0ffacaa9a75d522b39400f928101929092527fbfcc8ef98ffbf7b6c3fec7bf5185b566b9863e35a9d83acd49ad6824b5969738928201929092527fc89efdaa54c0f20c7adf612882df0950f5a951637e0307cdcb4c672f298b8bc66060820152608081018290523060a082015260c00160408051601f19818403018152919052805160209091012060035550600580546001600160a01b0319163317905561235c8061012e6000396000f3fe608060405234801561001057600080fd5b50d3801561001d57600080fd5b50d2801561002a57600080fd5b50600436106101c35760003560e01c80636a62784211610113578063ba9a7a56116100b1578063d21220a71161008b578063d21220a714610422578063d505accf14610435578063dd62ed3e14610448578063fff6cae91461047357600080fd5b8063ba9a7a56146103f3578063bc25cf77146103fc578063c45a01551461040f57600080fd5b80637ecebe00116100ed5780637ecebe001461037357806389afcb441461039357806395d89b41146103bb578063a9059cbb146103e057600080fd5b80636a6278421461033757806370a082311461034a5780637464fc3d1461036a57600080fd5b806323b872dd116101805780633644e5151161015a5780633644e51514610309578063485cc955146103125780635909c0d5146103255780635a3d54931461032e57600080fd5b806323b872dd146102b557806330adf81f146102c8578063313ce567146102ef57600080fd5b8063022c0d9f146101c857806306fdde03146101dd5780630902f1ac1461021c578063095ea7b3146102505780630dfe16811461027357806318160ddd1461029e575b600080fd5b6101db6101d6366004612042565b61047b565b005b6102066040518060400160405280600a8152602001692ab734b9bbb0b8102b1960b11b81525081565b6040516102139190612149565b60405180910390f35b61022461099f565b604080516001600160701b03948516815293909216602084015263ffffffff1690820152606001610213565b61026361025e366004611fd2565b6109c9565b6040519015158152602001610213565b600654610286906001600160a01b031681565b6040516001600160a01b039091168152602001610213565b6102a760005481565b604051908152602001610213565b6102636102c3366004611f00565b6109e0565b6102a77f6e71edae12b1b97f4d1f60370fef10105fa2faae0126114a169c64845d6126c981565b6102f7601281565b60405160ff9091168152602001610213565b6102a760035481565b6101db610320366004611eba565b610a74565b6102a760095481565b6102a7600a5481565b6102a7610345366004611e70565b610af3565b6102a7610358366004611e70565b60016020526000908152604090205481565b6102a7600b5481565b6102a7610381366004611e70565b60046020526000908152604090205481565b6103a66103a1366004611e70565b610dd6565b60408051928352602083019190915201610213565b610206604051806040016040528060068152602001652aa72496ab1960d11b81525081565b6102636103ee366004611fd2565b611178565b6102a76103e881565b6101db61040a366004611e70565b611185565b600554610286906001600160a01b031681565b600754610286906001600160a01b031681565b6101db610443366004611f4e565b6112a8565b6102a7610456366004611eba565b600260209081526000928352604080842090915290825290205481565b6101db6114bc565b600c546001146104a65760405162461bcd60e51b815260040161049d9061217c565b60405180910390fd5b6000600c55841515806104b95750600084115b6105135760405162461bcd60e51b815260206004820152602560248201527f53756e7377617056323a20494e53554646494349454e545f4f55545055545f416044820152641353d5539560da1b606482015260840161049d565b60008061051e61099f565b5091509150816001600160701b0316871080156105435750806001600160701b031686105b6105995760405162461bcd60e51b815260206004820152602160248201527f53756e7377617056323a20494e53554646494349454e545f4c495155494449546044820152605960f81b606482015260840161049d565b60065460075460009182916001600160a01b039182169190811690891682148015906105d75750806001600160a01b0316896001600160a01b031614155b61061b5760405162461bcd60e51b815260206004820152601560248201527453756e7377617056323a20494e56414c49445f544f60581b604482015260640161049d565b8a1561062c5761062c828a8d6115fe565b891561063d5761063d818a8c6115fe565b86156106aa576040516304347a1760e21b81526001600160a01b038a16906310d1e85c906106779033908f908f908e908e906004016120fd565b600060405180830381600087803b15801561069157600080fd5b505af11580156106a5573d6000803e3d6000fd5b505050505b6040516370a0823160e01b81523060048201526001600160a01b038316906370a082319060240160206040518083038186803b1580156106e957600080fd5b505afa1580156106fd573d6000803e3d6000fd5b505050506040513d601f19601f820116820180604052508101906107219190612029565b6040516370a0823160e01b81523060048201529094506001600160a01b038216906370a082319060240160206040518083038186803b15801561076357600080fd5b505afa158015610777573d6000803e3d6000fd5b505050506040513d601f19601f8201168201806040525081019061079b9190612029565b92505050600089856001600160701b03166107b69190612247565b83116107c35760006107e0565b6107d68a6001600160701b038716612247565b6107e09084612247565b905060006107f78a6001600160701b038716612247565b8311610804576000610821565b6108178a6001600160701b038716612247565b6108219084612247565b905060008211806108325750600081115b61088a5760405162461bcd60e51b8152602060048201526024808201527f53756e7377617056323a20494e53554646494349454e545f494e5055545f414d60448201526313d5539560e21b606482015260840161049d565b60006108ac61089a84600361174f565b6108a6876103e861174f565b906117b6565b905060006108be61089a84600361174f565b90506108e3620f42406108dd6001600160701b038b8116908b1661174f565b9061174f565b6108ed838361174f565b101561092a5760405162461bcd60e51b815260206004820152600c60248201526b53756e7377617056323a204b60a01b604482015260640161049d565b50506109388484888861180c565b60408051838152602081018390529081018c9052606081018b90526001600160a01b038a169033907fd78ad95fa46c994b6551d0da85fc275fe613ce37657fb8d5e3d130840159d8229060800160405180910390a350506001600c55505050505050505050565b6008546001600160701b0380821692600160701b830490911691600160e01b900463ffffffff1690565b60006109d63384846119f8565b5060015b92915050565b6001600160a01b038316600090815260026020908152604080832033845290915281205460001914610a5f576001600160a01b0384166000908152600260209081526040808320338452909152902054610a3a90836117b6565b6001600160a01b03851660009081526002602090815260408083203384529091529020555b610a6a848484611a5a565b5060019392505050565b6005546001600160a01b03163314610ac55760405162461bcd60e51b815260206004820152601460248201527329bab739bbb0b82b191d102327a92124a22222a760611b604482015260640161049d565b600680546001600160a01b039384166001600160a01b03199182161790915560078054929093169116179055565b6000600c54600114610b175760405162461bcd60e51b815260040161049d9061217c565b6000600c81905580610b2761099f565b506006546040516370a0823160e01b81523060048201529294509092506000916001600160a01b03909116906370a082319060240160206040518083038186803b158015610b7457600080fd5b505afa158015610b88573d6000803e3d6000fd5b505050506040513d601f19601f82011682018060405250810190610bac9190612029565b6007546040516370a0823160e01b81523060048201529192506000916001600160a01b03909116906370a082319060240160206040518083038186803b158015610bf557600080fd5b505afa158015610c09573d6000803e3d6000fd5b505050506040513d601f19601f82011682018060405250810190610c2d9190612029565b90506000610c44836001600160701b0387166117b6565b90506000610c5b836001600160701b0387166117b6565b90506000610c698787611b00565b60005490915080610ca057610c8c6103e86108a6610c87878761174f565b611c4c565b9850610c9b60006103e8611cbc565b610ce7565b610ce46001600160701b038916610cb7868461174f565b610cc191906121e5565b6001600160701b038916610cd5868561174f565b610cdf91906121e5565b611d4b565b98505b60008911610d485760405162461bcd60e51b815260206004820152602860248201527f53756e7377617056323a20494e53554646494349454e545f4c495155494449546044820152671657d3525395115160c21b606482015260840161049d565b610d528a8a611cbc565b610d5e86868a8a61180c565b8115610d8857600854610d84906001600160701b0380821691600160701b90041661174f565b600b555b604080518581526020810185905233917f4c209b5fc8ad50758f13e2e1088ba56a560dff690a1c6fef26394f4c03821c4f910160405180910390a250506001600c5550949695505050505050565b600080600c54600114610dfb5760405162461bcd60e51b815260040161049d9061217c565b6000600c81905580610e0b61099f565b506006546007546040516370a0823160e01b81523060048201529395509193506001600160a01b039081169291169060009083906370a082319060240160206040518083038186803b158015610e6057600080fd5b505afa158015610e74573d6000803e3d6000fd5b505050506040513d601f19601f82011682018060405250810190610e989190612029565b6040516370a0823160e01b81523060048201529091506000906001600160a01b038416906370a082319060240160206040518083038186803b158015610edd57600080fd5b505afa158015610ef1573d6000803e3d6000fd5b505050506040513d601f19601f82011682018060405250810190610f159190612029565b30600090815260016020526040812054919250610f328888611b00565b60005490915080610f43848761174f565b610f4d91906121e5565b9a5080610f5a848661174f565b610f6491906121e5565b995060008b118015610f76575060008a115b610fd35760405162461bcd60e51b815260206004820152602860248201527f53756e7377617056323a20494e53554646494349454e545f4c495155494449546044820152671657d0955493915160c21b606482015260840161049d565b610fdd3084611d63565b610fe8878d8d6115fe565b610ff3868d8c6115fe565b6040516370a0823160e01b81523060048201526001600160a01b038816906370a082319060240160206040518083038186803b15801561103257600080fd5b505afa158015611046573d6000803e3d6000fd5b505050506040513d601f19601f8201168201806040525081019061106a9190612029565b6040516370a0823160e01b81523060048201529095506001600160a01b038716906370a082319060240160206040518083038186803b1580156110ac57600080fd5b505afa1580156110c0573d6000803e3d6000fd5b505050506040513d601f19601f820116820180604052508101906110e49190612029565b93506110f285858b8b61180c565b811561111c57600854611118906001600160701b0380821691600160701b90041661174f565b600b555b604080518c8152602081018c90526001600160a01b038e169133917fdccd412f0b1252819cb1fd330b93224ca42612892bb3f4f789976e6d81936496910160405180910390a35050505050505050506001600c81905550915091565b60006109d6338484611a5a565b600c546001146111a75760405162461bcd60e51b815260040161049d9061217c565b6000600c556006546007546008546040516370a0823160e01b81523060048201526001600160a01b039384169390921691611251918491869161124c916001600160701b039091169084906370a08231906024015b60206040518083038186803b15801561121457600080fd5b505afa158015611228573d6000803e3d6000fd5b505050506040513d601f19601f820116820180604052508101906108a69190612029565b6115fe565b6008546040516370a0823160e01b815230600482015261129e918391869161124c91600160701b9091046001600160701b0316906001600160a01b038516906370a08231906024016111fc565b50506001600c5550565b428410156112ed5760405162461bcd60e51b815260206004820152601260248201527114dd5b9cddd85c158c8e881156141254915160721b604482015260640161049d565b6003546001600160a01b038816600090815260046020526040812080549192917f6e71edae12b1b97f4d1f60370fef10105fa2faae0126114a169c64845d6126c9918b918b918b919087611340836122b3565b909155506040805160208101969096526001600160a01b0394851690860152929091166060840152608083015260a082015260c0810187905260e001604051602081830303815290604052805190602001206040516020016113b992919061190160f01b81526002810192909252602282015260420190565b60408051601f198184030181528282528051602091820120600080855291840180845281905260ff88169284019290925260608301869052608083018590529092509060019060a0016020604051602081039080840390855afa158015611424573d6000803e3d6000fd5b5050604051601f1901519150506001600160a01b0381161580159061145a5750886001600160a01b0316816001600160a01b0316145b6114a65760405162461bcd60e51b815260206004820152601c60248201527f53756e7377617056323a20494e56414c49445f5349474e415455524500000000604482015260640161049d565b6114b18989896119f8565b505050505050505050565b600c546001146114de5760405162461bcd60e51b815260040161049d9061217c565b6000600c556006546040516370a0823160e01b81523060048201526115f7916001600160a01b0316906370a082319060240160206040518083038186803b15801561152857600080fd5b505afa15801561153c573d6000803e3d6000fd5b505050506040513d601f19601f820116820180604052508101906115609190612029565b6007546040516370a0823160e01b81523060048201526001600160a01b03909116906370a082319060240160206040518083038186803b1580156115a357600080fd5b505afa1580156115b7573d6000803e3d6000fd5b505050506040513d601f19601f820116820180604052508101906115db9190612029565b6008546001600160701b0380821691600160701b90041661180c565b6001600c55565b604080516001600160a01b038481166024830152604480830185905283518084039091018152606490920183526020820180516001600160e01b031663a9059cbb60e01b179052915160009283929087169161165a91906120e1565b6000604051808303816000865af19150503d8060008114611697576040519150601f19603f3d011682016040523d82523d6000602084013e61169c565b606091505b5090925090506001600160a01b03851673eca9bc828a3005b9a3b909f2cc5c2a54794de05f1480156116cb5750815b156116d7575050505050565b8180156116fc5750805115806116fc5750808060200190518101906116fc9190612007565b6117485760405162461bcd60e51b815260206004820152601f60248201527f5472616e7366657248656c7065723a205452414e534645525f4641494c454400604482015260640161049d565b5050505050565b6000811580611773575082826117658183612228565b925061177190836121e5565b145b6109da5760405162461bcd60e51b815260206004820152601460248201527364732d6d6174682d6d756c2d6f766572666c6f7760601b604482015260640161049d565b6000826117c38382612247565b91508111156109da5760405162461bcd60e51b815260206004820152601560248201527464732d6d6174682d7375622d756e646572666c6f7760581b604482015260640161049d565b6001600160701b03841180159061182a57506001600160701b038311155b61186c5760405162461bcd60e51b815260206004820152601360248201527253756e7377617056323a204f564552464c4f5760681b604482015260640161049d565b600061187d640100000000426122ce565b60085490915060009061189d90600160e01b900463ffffffff168361225e565b905060008163ffffffff161180156118bd57506001600160701b03841615155b80156118d157506001600160701b03831615155b15611960578063ffffffff166118f9856118ea86611ded565b6001600160e01b031690611e06565b6001600160e01b031661190c9190612228565b6009600082825461191d91906121a7565b909155505063ffffffff8116611936846118ea87611ded565b6001600160e01b03166119499190612228565b600a600082825461195a91906121a7565b90915550505b6008805463ffffffff8416600160e01b026001600160e01b036001600160701b03898116600160701b9081026001600160e01b03199095168c83161794909417918216831794859055604080519382169282169290921783529290930490911660208201527f1c411e9a96e071241c2f21f7726b17ae89e3cab4c78be50e062b03a9fffbbad1910160405180910390a1505050505050565b6001600160a01b0383811660008181526002602090815260408083209487168084529482529182902085905590518481527f8c5be1e5ebec7d5bd14f71427d1e84f3dd0314c0f7b2291e5b200ac8c7c3b92591015b60405180910390a3505050565b6001600160a01b038316600090815260016020526040902054611a7d90826117b6565b6001600160a01b038085166000908152600160205260408082209390935590841681522054611aac9082611e1b565b6001600160a01b0380841660008181526001602052604090819020939093559151908516907fddf252ad1be2c89b69c2b068fc378daa952ba7f163c4a11628f55a4df523b3ef90611a4d9085815260200190565b600080600560009054906101000a90046001600160a01b03166001600160a01b031663017e7e586040518163ffffffff1660e01b815260040160206040518083038186803b158015611b5157600080fd5b505afa158015611b65573d6000803e3d6000fd5b505050506040513d601f19601f82011682018060405250810190611b899190611e9d565b600b546001600160a01b038216158015945091925090611c38578015611c33576000611bc4610c876001600160701b0388811690881661174f565b90506000611bd183611c4c565b905080821115611c30576000611bf3611bea84846117b6565b6000549061174f565b90506000611c0c83611c0686600561174f565b90611e1b565b90506000611c1a82846121e5565b90508015611c2c57611c2c8782611cbc565b5050505b50505b611c44565b8015611c44576000600b555b505092915050565b60006003821115611cad5750806000611c666002836121e5565b611c719060016121a7565b90505b81811015611ca757905080600281611c8c81866121e5565b611c9691906121a7565b611ca091906121e5565b9050611c74565b50919050565b8115611cb7575060015b919050565b600054611cc99082611e1b565b60009081556001600160a01b038316815260016020526040902054611cee9082611e1b565b6001600160a01b0383166000818152600160205260408082209390935591519091907fddf252ad1be2c89b69c2b068fc378daa952ba7f163c4a11628f55a4df523b3ef90611d3f9085815260200190565b60405180910390a35050565b6000818310611d5a5781611d5c565b825b9392505050565b6001600160a01b038216600090815260016020526040902054611d8690826117b6565b6001600160a01b03831660009081526001602052604081209190915554611dad90826117b6565b60009081556040518281526001600160a01b038416907fddf252ad1be2c89b69c2b068fc378daa952ba7f163c4a11628f55a4df523b3ef90602001611d3f565b60006109da600160701b6001600160701b0384166121f9565b6000611d5c6001600160701b038316846121bf565b600082611e2883826121a7565b91508110156109da5760405162461bcd60e51b815260206004820152601460248201527364732d6d6174682d6164642d6f766572666c6f7760601b604482015260640161049d565b600060208284031215611e8257600080fd5b8135611e8d8161230e565b6001600160a01b03169392505050565b600060208284031215611eaf57600080fd5b8151611e8d8161230e565b60008060408385031215611ecd57600080fd5b8235611ed88161230e565b6001600160a01b039081169250602084013590611ef48261230e565b92959216935090915050565b600080600060608486031215611f1557600080fd5b8335611f208161230e565b6001600160a01b039081169350602085013590611f3c8261230e565b93969316945050506040919091013590565b600080600080600080600060e0888a031215611f6957600080fd5b8735611f748161230e565b6001600160a01b039081169750602089013590611f908261230e565b1695506040880135945060608801359350608088013560ff81168114611fb557600080fd5b9699959850939692959460a0840135945060c09093013592915050565b60008060408385031215611fe557600080fd5b8235611ff08161230e565b6001600160a01b0316946020939093013593505050565b60006020828403121561201957600080fd5b81518015158114611d5c57600080fd5b60006020828403121561203b57600080fd5b5051919050565b60008060008060006080868803121561205a57600080fd5b853594506020860135935060408601356120738161230e565b6001600160a01b03169250606086013567ffffffffffffffff8082111561209957600080fd5b818801915088601f8301126120ad57600080fd5b8135818111156120bc57600080fd5b8960208285010111156120ce57600080fd5b9699959850939650602001949392505050565b600082516120f3818460208701612283565b9190910192915050565b60018060a01b038616815284602082015283604082015260806060820152816080820152818360a0830137600081830160a090810191909152601f909201601f19160101949350505050565b6020815260008251806020840152612168816040850160208701612283565b601f01601f19169190910160400192915050565b60208082526011908201527014dd5b9cddd85c158c8e881313d0d2d151607a1b604082015260600190565b600082198211156121ba576121ba6122e2565b500190565b60006001600160e01b03838116806121d9576121d96122f8565b92169190910492915050565b6000826121f4576121f46122f8565b500490565b60006001600160e01b038281168482168115158284048211161561221f5761221f6122e2565b02949350505050565b6000816000190483118215151615612242576122426122e2565b500290565b600082821015612259576122596122e2565b500390565b600063ffffffff8381169083168181101561227b5761227b6122e2565b039392505050565b60005b8381101561229e578181015183820152602001612286565b838111156122ad576000848401525b50505050565b60006000198214156122c7576122c76122e2565b5060010190565b6000826122dd576122dd6122f8565b500690565b634e487b7160e01b600052601160045260246000fd5b634e487b7160e01b600052601260045260246000fd5b6001600160a81b038116811461232357600080fd5b5056fea26474726f6e582212202a60f9203d22f4df6ca6c9ed0cd52d8760556a532ab99a7659988c096575675164736f6c63430008060033a26474726f6e58221220e99d6c303fbe5ca4dd41a2dda3c06e2bb4477558fb175beadf47219699cf4c1b64736f6c63430008060033",
  "source": "/*! Router.sol | SPDX-License-Identifier: MIT License */\npragma solidity 0.8.6;\n\nimport \"./interfaces/ISunswapV2Factory.sol\";\nimport \"./SunswapV2Pair.sol\";\n\ncontract SunswapV2Factory is ISunswapV2Factory {\n    address public override feeTo;\n    address public override feeToSetter;\n\n    mapping(address => mapping(address => address)) public override getPair;\n    address[] public override allPairs;\n\n    event PairCreated(\n        address indexed token0,\n        address indexed token1,\n        address pair,\n        uint\n    );\n\n    constructor(address _feeToSetter) {\n        feeToSetter = _feeToSetter;\n    }\n\n    function allPairsLength() external view override returns (uint) {\n        return allPairs.length;\n    }\n\n    function createPair(address tokenA, address tokenB)\n        external override \n        returns (address pair)\n    {\n        require(tokenA != tokenB, \"SunswapV2: IDENTICAL_ADDRESSES\");\n        (address token0, address token1) = tokenA < tokenB\n            ? (tokenA, tokenB)\n            : (tokenB, tokenA);\n        require(token0 != address(0), \"SunswapV2: ZERO_ADDRESS\");\n        require(\n            getPair[token0][token1] == address(0),\n            \"SunswapV2: PAIR_EXISTS\"\n        );\n        // single check is sufficient\n        bytes memory bytecode = type(SunswapV2Pair).creationCode;\n        bytes32 salt = keccak256(abi.encodePacked(token0, token1));\n        assembly {\n            pair := create2(0, add(bytecode, 32), mload(bytecode), salt)\n        }\n        ISunswapV2Pair(pair).initialize(token0, token1);\n        getPair[token0][token1] = pair;\n        getPair[token1][token0] = pair; // populate mapping in the reverse direction\n        allPairs.push(pair);\n        emit PairCreated(token0, token1, pair, allPairs.length);\n    }\n\n    function setFeeTo(address _feeTo) external override {\n        require(msg.sender == feeToSetter, \"SunswapV2: FORBIDDEN\");\n        feeTo = _feeTo;\n    }\n\n    function setFeeToSetter(address _feeToSetter) external override {\n        require(msg.sender == feeToSetter, \"SunswapV2: FORBIDDEN\");\n        feeToSetter = _feeToSetter;\n    }\n\n    function getPairHash() public pure returns (bytes32) {\n        return keccak256(type(SunswapV2Pair).creationCode);\n    }\n}\n",
  "sourcePath": "C:/Dev/daubit/github/tracy-tron/tracy-tron/contracts/contracts/sunswapV2/SunswapV2Factory.sol",
  "compiler": {
    "name": "solc",
    "version": "0.8.6+commit.0e36fba0.mod.Emscripten.clang"
  },
  "schemaVersion": "2.0.1",
  "updatedAt": "2022-11-11T14:29:47.921Z"
}