{
  "contractName": "SunswapV2Adapter",
  "abi": [
    {
      "inputs": [
        {
          "internalType": "address",
          "name": "_router",
          "type": "address"
        },
        {
          "internalType": "address",
          "name": "_wtrx",
          "type": "address"
        }
      ],
      "stateMutability": "nonpayable",
      "type": "constructor"
    },
    {
      "inputs": [
        {
          "internalType": "address",
          "name": "token",
          "type": "address"
        },
        {
          "internalType": "uint256",
          "name": "amount",
          "type": "uint256"
        }
      ],
      "name": "approve",
      "outputs": [],
      "stateMutability": "nonpayable",
      "type": "function"
    },
    {
      "inputs": [
        {
          "internalType": "address",
          "name": "token",
          "type": "address"
        }
      ],
      "name": "approve",
      "outputs": [],
      "stateMutability": "nonpayable",
      "type": "function"
    },
    {
      "inputs": [
        {
          "internalType": "uint256",
          "name": "amountOut",
          "type": "uint256"
        },
        {
          "internalType": "address[]",
          "name": "path",
          "type": "address[]"
        }
      ],
      "name": "getAmountsIn",
      "outputs": [
        {
          "internalType": "uint256[]",
          "name": "amounts",
          "type": "uint256[]"
        }
      ],
      "stateMutability": "view",
      "type": "function"
    },
    {
      "inputs": [
        {
          "internalType": "uint256",
          "name": "amountIn",
          "type": "uint256"
        },
        {
          "internalType": "address[]",
          "name": "path",
          "type": "address[]"
        }
      ],
      "name": "getAmountsOut",
      "outputs": [
        {
          "internalType": "uint256[]",
          "name": "amounts",
          "type": "uint256[]"
        }
      ],
      "stateMutability": "view",
      "type": "function"
    },
    {
      "inputs": [],
      "name": "router",
      "outputs": [
        {
          "internalType": "address",
          "name": "",
          "type": "address"
        }
      ],
      "stateMutability": "view",
      "type": "function"
    },
    {
      "inputs": [
        {
          "internalType": "uint256",
          "name": "amountOutMin",
          "type": "uint256"
        },
        {
          "internalType": "address[]",
          "name": "path",
          "type": "address[]"
        },
        {
          "internalType": "address",
          "name": "to",
          "type": "address"
        },
        {
          "internalType": "uint256",
          "name": "deadline",
          "type": "uint256"
        }
      ],
      "name": "swapExactNativeForTokens",
      "outputs": [],
      "stateMutability": "payable",
      "type": "function"
    },
    {
      "inputs": [
        {
          "internalType": "uint256",
          "name": "amountIn",
          "type": "uint256"
        },
        {
          "internalType": "uint256",
          "name": "amountOutMin",
          "type": "uint256"
        },
        {
          "internalType": "address[]",
          "name": "path",
          "type": "address[]"
        },
        {
          "internalType": "address",
          "name": "to",
          "type": "address"
        },
        {
          "internalType": "uint256",
          "name": "deadline",
          "type": "uint256"
        }
      ],
      "name": "swapExactTokensForNative",
      "outputs": [],
      "stateMutability": "nonpayable",
      "type": "function"
    },
    {
      "inputs": [
        {
          "internalType": "uint256",
          "name": "amountIn",
          "type": "uint256"
        },
        {
          "internalType": "uint256",
          "name": "amountOutMin",
          "type": "uint256"
        },
        {
          "internalType": "address[]",
          "name": "path",
          "type": "address[]"
        },
        {
          "internalType": "address",
          "name": "to",
          "type": "address"
        },
        {
          "internalType": "uint256",
          "name": "deadline",
          "type": "uint256"
        }
      ],
      "name": "swapExactTokensForTokens",
      "outputs": [
        {
          "internalType": "uint256[]",
          "name": "amounts",
          "type": "uint256[]"
        }
      ],
      "stateMutability": "nonpayable",
      "type": "function"
    },
    {
      "inputs": [
        {
          "internalType": "uint256",
          "name": "amountOut",
          "type": "uint256"
        },
        {
          "internalType": "address[]",
          "name": "path",
          "type": "address[]"
        },
        {
          "internalType": "address",
          "name": "to",
          "type": "address"
        },
        {
          "internalType": "uint256",
          "name": "deadline",
          "type": "uint256"
        }
      ],
      "name": "swapNativeForExactTokens",
      "outputs": [],
      "stateMutability": "payable",
      "type": "function"
    },
    {
      "inputs": [
        {
          "internalType": "uint256",
          "name": "amountOut",
          "type": "uint256"
        },
        {
          "internalType": "uint256",
          "name": "amountInMax",
          "type": "uint256"
        },
        {
          "internalType": "address[]",
          "name": "path",
          "type": "address[]"
        },
        {
          "internalType": "address",
          "name": "to",
          "type": "address"
        },
        {
          "internalType": "uint256",
          "name": "deadline",
          "type": "uint256"
        }
      ],
      "name": "swapTokensForExactNative",
      "outputs": [],
      "stateMutability": "nonpayable",
      "type": "function"
    },
    {
      "inputs": [
        {
          "internalType": "uint256",
          "name": "amountOut",
          "type": "uint256"
        },
        {
          "internalType": "uint256",
          "name": "amountInMax",
          "type": "uint256"
        },
        {
          "internalType": "address[]",
          "name": "path",
          "type": "address[]"
        },
        {
          "internalType": "address",
          "name": "to",
          "type": "address"
        },
        {
          "internalType": "uint256",
          "name": "deadline",
          "type": "uint256"
        }
      ],
      "name": "swapTokensForExactTokens",
      "outputs": [],
      "stateMutability": "nonpayable",
      "type": "function"
    },
    {
      "inputs": [],
      "name": "wtrx",
      "outputs": [
        {
          "internalType": "address",
          "name": "",
          "type": "address"
        }
      ],
      "stateMutability": "view",
      "type": "function"
    }
  ],
  "bytecode": "0x60c060405234801561001057600080fd5b50d3801561001d57600080fd5b50d2801561002a57600080fd5b50604051610f03380380610f0383398101604081905261004991610090565b6001600160601b0319606092831b8116608052911b1660a0526100c3565b80516000906001600160a81b038116811461008157600080fd5b6001600160a01b031692915050565b600080604083850312156100a357600080fd5b6100ac83610067565b91506100ba60208401610067565b90509250929050565b60805160601c60a05160601c610dcf610134600039600061022501526000818161034c015281816103850152818161043a015281816104e401528181610590015281816106470152818161069d01528181610751015281816107a701528181610800015261084e0152610dcf6000f3fe6080604052600436106100a75760003560e01c8063814dfc3911610064578063814dfc39146101f95780638803dbee1461025f578063c075a59114610299578063d06ca61f146102ac578063daea85c5146102e6578063f887ea401461032057600080fd5b8063029e384f146100ac578063095ea7b3146100e85780631f00ca741461012257806338ed1739146101725780634436f4fd146101ac578063800a758a146101e6575b600080fd5b3480156100b857600080fd5b50d380156100c557600080fd5b50d280156100d257600080fd5b506100e66100e1366004610b67565b61036e565b005b3480156100f457600080fd5b50d3801561010157600080fd5b50d2801561010e57600080fd5b506100e661011d36600461096d565b610423565b34801561012e57600080fd5b50d3801561013b57600080fd5b50d2801561014857600080fd5b5061015c610157366004610abc565b6104ca565b6040516101699190610c1e565b60405180910390f35b34801561017e57600080fd5b50d3801561018b57600080fd5b50d2801561019857600080fd5b5061015c6101a7366004610b67565b610576565b3480156101b857600080fd5b50d380156101c557600080fd5b50d280156101d257600080fd5b506100e66101e1366004610b67565b610630565b6100e66101f4366004610a56565b610686565b34801561020557600080fd5b50d3801561021257600080fd5b50d2801561021f57600080fd5b506102477f000000000000000000000000000000000000000000000000000000000000000081565b6040516001600160a01b039091168152602001610169565b34801561026b57600080fd5b50d3801561027857600080fd5b50d2801561028557600080fd5b506100e6610294366004610b67565b61073a565b6100e66102a7366004610a56565b610790565b3480156102b857600080fd5b50d380156102c557600080fd5b50d280156102d257600080fd5b5061015c6102e1366004610abc565b6107e6565b3480156102f257600080fd5b50d380156102ff57600080fd5b50d2801561030c57600080fd5b506100e661031b366004610952565b610837565b34801561032c57600080fd5b50d3801561033957600080fd5b50d2801561034657600080fd5b506102477f000000000000000000000000000000000000000000000000000000000000000081565b6040516318cbafe560e01b81526001600160a01b037f000000000000000000000000000000000000000000000000000000000000000016906318cbafe5906103c490899089908990899089908990600401610cf0565b600060405180830381600087803b1580156103de57600080fd5b505af11580156103f2573d6000803e3d6000fd5b505050506040513d6000823e601f3d908101601f1916820160405261041a9190810190610997565b50505050505050565b60405163095ea7b360e01b81526001600160a01b037f0000000000000000000000000000000000000000000000000000000000000000811660048301526024820183905283169063095ea7b390604401602060405180830381600087803b15801561048d57600080fd5b505af11580156104a1573d6000803e3d6000fd5b505050506040513d601f19601f820116820180604052508101906104c59190610a34565b505050565b6040516307c0329d60e21b81526060906001600160a01b037f00000000000000000000000000000000000000000000000000000000000000001690631f00ca749061051b9086908690600401610c99565b60006040518083038186803b15801561053357600080fd5b505afa158015610547573d6000803e3d6000fd5b505050506040513d6000823e601f3d908101601f1916820160405261056f9190810190610997565b9392505050565b6040516338ed173960e01b81526060906001600160a01b037f000000000000000000000000000000000000000000000000000000000000000016906338ed1739906105cf908a908a908a908a908a908a90600401610cf0565b600060405180830381600087803b1580156105e957600080fd5b505af11580156105fd573d6000803e3d6000fd5b505050506040513d6000823e601f3d908101601f191682016040526106259190810190610997565b979650505050505050565b604051632512eca560e11b81526001600160a01b037f00000000000000000000000000000000000000000000000000000000000000001690634a25d94a906103c490899089908990899089908990600401610cf0565b60405163fb3bdb4160e01b81526001600160a01b037f0000000000000000000000000000000000000000000000000000000000000000169063fb3bdb419034906106dc9089908990899089908990600401610c62565b6000604051808303818588803b1580156106f557600080fd5b505af1158015610709573d6000803e3d6000fd5b50505050506040513d6000823e601f3d908101601f191682016040526107329190810190610997565b505050505050565b604051634401edf760e11b81526001600160a01b037f00000000000000000000000000000000000000000000000000000000000000001690638803dbee906103c490899089908990899089908990600401610cf0565b604051637ff36ab560e01b81526001600160a01b037f00000000000000000000000000000000000000000000000000000000000000001690637ff36ab59034906106dc9089908990899089908990600401610c62565b60405163d06ca61f60e01b81526060906001600160a01b037f0000000000000000000000000000000000000000000000000000000000000000169063d06ca61f9061051b9086908690600401610c99565b60405163095ea7b360e01b81526001600160a01b037f000000000000000000000000000000000000000000000000000000000000000081166004830152600019602483015282169063095ea7b390604401602060405180830381600087803b1580156108a257600080fd5b505af11580156108b6573d6000803e3d6000fd5b505050506040513d601f19601f820116820180604052508101906108da9190610a34565b5050565b600081356001600160a81b03811681146108f757600080fd5b6001600160a01b031692915050565b60008083601f84011261091857600080fd5b50813567ffffffffffffffff81111561093057600080fd5b6020830191508360208260051b850101111561094b57600080fd5b9250929050565b60006020828403121561096457600080fd5b61056f826108de565b6000806040838503121561098057600080fd5b610989836108de565b946020939093013593505050565b600060208083850312156109aa57600080fd5b825167ffffffffffffffff8111156109c157600080fd5b8301601f810185136109d257600080fd5b80516109e56109e082610d5f565b610d2e565b80828252848201915084840188868560051b8701011115610a0557600080fd5b600094505b83851015610a28578051835260019490940193918501918501610a0a565b50979650505050505050565b600060208284031215610a4657600080fd5b8151801515811461056f57600080fd5b600080600080600060808688031215610a6e57600080fd5b85359450602086013567ffffffffffffffff811115610a8c57600080fd5b610a9888828901610906565b9095509350610aab9050604087016108de565b949793965091946060013592915050565b60008060408385031215610acf57600080fd5b8235915060208084013567ffffffffffffffff811115610aee57600080fd5b8401601f81018613610aff57600080fd5b8035610b0d6109e082610d5f565b80828252848201915084840189868560051b8701011115610b2d57600080fd5b600094505b83851015610b5757610b43816108de565b835260019490940193918501918501610b32565b5080955050505050509250929050565b60008060008060008060a08789031215610b8057600080fd5b8635955060208701359450604087013567ffffffffffffffff811115610ba557600080fd5b610bb189828a01610906565b9095509350610bc49050606088016108de565b9150608087013590509295509295509295565b8183526000602080850194508260005b85811015610c13576001600160a01b03610c00836108de565b1687529582019590820190600101610be7565b509495945050505050565b6020808252825182820181905260009190848201906040850190845b81811015610c5657835183529284019291840191600101610c3a565b50909695505050505050565b858152608060208201526000610c7c608083018688610bd7565b6001600160a01b0394909416604083015250606001529392505050565b6000604082018483526020604081850152818551808452606086019150828701935060005b81811015610ce35784516001600160a01b031683529383019391830191600101610cbe565b5090979650505050505050565b86815285602082015260a060408201526000610d1060a083018688610bd7565b6001600160a01b039490941660608301525060800152949350505050565b604051601f8201601f1916810167ffffffffffffffff81118282101715610d5757610d57610d83565b604052919050565b600067ffffffffffffffff821115610d7957610d79610d83565b5060051b60200190565b634e487b7160e01b600052604160045260246000fdfea26474726f6e5822122051ca59d742f704539ba4e9e104cb84dd00d85718faf98391bad72ba1b66c46a664736f6c63430008060033",
  "source": "/*! SunswapV2Adapter.sol | SPDX-License-Identifier: MIT License */\n\npragma solidity 0.8.6;\n\nimport \"../TRC20/ITRC20.sol\";\nimport \"../interfaces/ITracyRouter.sol\";\nimport \"../interfaces/ISunswapV2Router.sol\";\n\ncontract SunswapV2Adapter is ITracyRouter {\n    address public immutable router;\n    address public immutable wtrx;\n\n    constructor(address _router, address _wtrx) {\n        router = _router;\n        wtrx = _wtrx;\n    }\n\n    function approve(address token, uint256 amount) external override {\n        ITRC20(token).approve(router, amount);\n    }\n\n    function approve(address token) external override {\n        ITRC20(token).approve(router, type(uint256).max);\n    }\n\n    function getAmountsIn(uint256 amountOut, address[] memory path)\n        external\n        view\n        override\n        returns (uint256[] memory amounts)\n    {\n        return ISunswapV2Router(router).getAmountsIn(amountOut, path);\n    }\n\n    function getAmountsOut(uint256 amountIn, address[] memory path)\n        external\n        view\n        override\n        returns (uint256[] memory amounts)\n    {\n        return ISunswapV2Router(router).getAmountsOut(amountIn, path);\n    }\n\n    function swapExactTokensForTokens(\n        uint256 amountIn,\n        uint256 amountOutMin,\n        address[] calldata path,\n        address to,\n        uint256 deadline\n    ) external override returns (uint256[] memory amounts) {\n        amounts = ISunswapV2Router(router).swapExactTokensForTokens(\n            amountIn,\n            amountOutMin,\n            path,\n            to,\n            deadline\n        );\n    }\n\n    function swapTokensForExactTokens(\n        uint256 amountOut,\n        uint256 amountInMax,\n        address[] calldata path,\n        address to,\n        uint256 deadline\n    ) external override {\n        ISunswapV2Router(router).swapTokensForExactTokens(\n            amountOut,\n            amountInMax,\n            path,\n            to,\n            deadline\n        );\n    }\n\n    function swapExactNativeForTokens(\n        uint256 amountOutMin,\n        address[] calldata path,\n        address to,\n        uint256 deadline\n    ) external payable override {\n        ISunswapV2Router(router).swapExactETHForTokens{value: msg.value}(\n            amountOutMin,\n            path,\n            to,\n            deadline\n        );\n    }\n\n    function swapNativeForExactTokens(\n        uint256 amountOut,\n        address[] calldata path,\n        address to,\n        uint256 deadline\n    ) external payable override {\n        ISunswapV2Router(router).swapETHForExactTokens{value: msg.value}(\n            amountOut,\n            path,\n            to,\n            deadline\n        );\n    }\n\n    function swapExactTokensForNative(\n        uint256 amountIn,\n        uint256 amountOutMin,\n        address[] calldata path,\n        address to,\n        uint256 deadline\n    ) external override {\n        ISunswapV2Router(router).swapExactTokensForETH(\n            amountIn,\n            amountOutMin,\n            path,\n            to,\n            deadline\n        );\n    }\n\n    function swapTokensForExactNative(\n        uint256 amountOut,\n        uint256 amountInMax,\n        address[] calldata path,\n        address to,\n        uint256 deadline\n    ) external override {\n        ISunswapV2Router(router).swapTokensForExactETH(\n            amountOut,\n            amountInMax,\n            path,\n            to,\n            deadline\n        );\n    }\n}\n",
  "sourcePath": "C:/Dev/daubit/github/tracy-tron/tracy-tron/contracts/contracts/adapter/SunswapV2Adapter.sol",
  "compiler": {
    "name": "solc",
    "version": "0.8.6+commit.0e36fba0.mod.Emscripten.clang"
  },
  "schemaVersion": "2.0.1",
  "updatedAt": "2022-11-11T14:29:54.101Z"
}