{
  "contractName": "SunswapV2Migrator",
  "abi": [
    {
      "inputs": [
        {
          "internalType": "address",
          "name": "_factoryV1",
          "type": "address"
        },
        {
          "internalType": "address",
          "name": "_router",
          "type": "address"
        }
      ],
      "stateMutability": "nonpayable",
      "type": "constructor"
    },
    {
      "inputs": [
        {
          "internalType": "address",
          "name": "token",
          "type": "address"
        },
        {
          "internalType": "uint256",
          "name": "amountTokenMin",
          "type": "uint256"
        },
        {
          "internalType": "uint256",
          "name": "amountETHMin",
          "type": "uint256"
        },
        {
          "internalType": "address",
          "name": "to",
          "type": "address"
        },
        {
          "internalType": "uint256",
          "name": "deadline",
          "type": "uint256"
        }
      ],
      "name": "migrate",
      "outputs": [],
      "stateMutability": "nonpayable",
      "type": "function"
    },
    {
      "stateMutability": "payable",
      "type": "receive"
    }
  ],
  "bytecode": "0x60c060405234801561001057600080fd5b50d3801561001d57600080fd5b50d2801561002a57600080fd5b50604051610a58380380610a5883398101604081905261004991610090565b6001600160601b0319606092831b8116608052911b1660a0526100c3565b80516000906001600160a81b038116811461008157600080fd5b6001600160a01b031692915050565b600080604083850312156100a357600080fd5b6100ac83610067565b91506100ba60208401610067565b90509250929050565b60805160601c60a05160601c61095d6100fb600039600081816102f40152818161036101526103f201526000608c015261095d6000f3fe6080604052600436106100225760003560e01c8063b7df1d251461002e57600080fd5b3661002957005b600080fd5b34801561003a57600080fd5b50d3801561004757600080fd5b50d2801561005457600080fd5b506100686100633660046107b9565b61006a565b005b6040516303795fb160e11b81526001600160a01b0386811660048301526000917f0000000000000000000000000000000000000000000000000000000000000000909116906306f2bf629060240160206040518083038186803b1580156100d057600080fd5b505afa1580156100e4573d6000803e3d6000fd5b505050506040513d601f19601f82011682018060405250810190610108919061078c565b6040516370a0823160e01b81523360048201529091506000906001600160a01b038316906370a082319060240160206040518083038186803b15801561014d57600080fd5b505afa158015610161573d6000803e3d6000fd5b505050506040513d601f19601f820116820180604052508101906101859190610844565b6040516323b872dd60e01b8152336004820152306024820152604481018290529091506001600160a01b038316906323b872dd90606401602060405180830381600087803b1580156101d657600080fd5b505af11580156101ea573d6000803e3d6000fd5b505050506040513d601f19601f8201168201806040525081019061020e919061081b565b6102565760405162461bcd60e51b81526020600482015260146024820152731514905394d1915497d19493d357d1905253115160621b60448201526064015b60405180910390fd5b604051637c45f8ad60e11b8152600481018290526001602482018190526044820152600019606482015260009081906001600160a01b0385169063f88bf15a906084016040805180830381600087803b1580156102b257600080fd5b505af11580156102c6573d6000803e3d6000fd5b505050506040513d601f19601f820116820180604052508101906102ea919061085d565b91509150610319897f000000000000000000000000000000000000000000000000000000000000000083610459565b60405163f305d71960e01b81526001600160a01b038a8116600483015260248201839052604482018a905260648201899052878116608483015260a4820187905260009182917f0000000000000000000000000000000000000000000000000000000000000000169063f305d71990869060c4016060604051808303818588803b1580156103a657600080fd5b505af11580156103ba573d6000803e3d6000fd5b50505050506040513d601f19601f820116820180604052508101906103df9190610881565b509150915081831115610431576104188b7f00000000000000000000000000000000000000000000000000000000000000006000610459565b61042c8b3361042785876108ea565b610574565b61044c565b8084111561044c5761044c3361044783876108ea565b6106be565b5050505050505050505050565b604080516001600160a01b038481166024830152604480830185905283518084039091018152606490920183526020820180516001600160e01b031663095ea7b360e01b17905291516000928392908716916104b591906108af565b6000604051808303816000865af19150503d80600081146104f2576040519150601f19603f3d011682016040523d82523d6000602084013e6104f7565b606091505b5091509150818015610521575080511580610521575080806020019051810190610521919061081b565b61056d5760405162461bcd60e51b815260206004820152601e60248201527f5472616e7366657248656c7065723a20415050524f56455f4641494c45440000604482015260640161024d565b5050505050565b604080516001600160a01b038481166024830152604480830185905283518084039091018152606490920183526020820180516001600160e01b031663a9059cbb60e01b17905291516000928392908716916105d091906108af565b6000604051808303816000865af19150503d806000811461060d576040519150601f19603f3d011682016040523d82523d6000602084013e610612565b606091505b5090925090506001600160a01b03851673eca9bc828a3005b9a3b909f2cc5c2a54794de05f1480156106415750815b1561064d575050505050565b818015610672575080511580610672575080806020019051810190610672919061081b565b61056d5760405162461bcd60e51b815260206004820152601f60248201527f5472616e7366657248656c7065723a205452414e534645525f4641494c454400604482015260640161024d565b604080516000808252602082019092526001600160a01b0384169083906040516106e891906108af565b60006040518083038185875af1925050503d8060008114610725576040519150601f19603f3d011682016040523d82523d6000602084013e61072a565b606091505b50509050806107875760405162461bcd60e51b815260206004820152602360248201527f5472616e7366657248656c7065723a204554485f5452414e534645525f46414960448201526213115160ea1b606482015260840161024d565b505050565b60006020828403121561079e57600080fd5b81516107a98161090f565b6001600160a01b03169392505050565b600080600080600060a086880312156107d157600080fd5b85356107dc8161090f565b6001600160a01b03908116955060208701359450604087013593506060870135906108068261090f565b95989497509295929094169350506080013590565b60006020828403121561082d57600080fd5b8151801515811461083d57600080fd5b9392505050565b60006020828403121561085657600080fd5b5051919050565b6000806040838503121561087057600080fd5b505080516020909101519092909150565b60008060006060848603121561089657600080fd5b8351925060208401519150604084015190509250925092565b6000825160005b818110156108d057602081860181015185830152016108b6565b818111156108df576000828501525b509190910192915050565b60008282101561090a57634e487b7160e01b600052601160045260246000fd5b500390565b6001600160a81b038116811461092457600080fd5b5056fea26474726f6e58221220789e710d515e9ab12aa1388bd002fe8957a6c841271459530fe696e09b69383d64736f6c63430008060033",
  "source": "/*! Router.sol | SPDX-License-Identifier: MIT License */\npragma solidity 0.8.6;\n\nimport \"./lib/contracts/libraries/TransferHelper.sol\";\n\nimport \"./interfaces/ISunswapV2Migrator.sol\";\nimport \"./interfaces/V1/ISunswapV1Factory.sol\";\nimport \"./interfaces/V1/ISunswapV1Exchange.sol\";\nimport \"./interfaces/ISunswapV2Router01.sol\";\nimport \"./interfaces/IERC20.sol\";\n\ncontract SunswapV2Migrator is ISunswapV2Migrator {\n    ISunswapV1Factory immutable factoryV1;\n    ISunswapV2Router01 immutable router;\n\n    constructor(address _factoryV1, address _router) {\n        factoryV1 = ISunswapV1Factory(_factoryV1);\n        router = ISunswapV2Router01(_router);\n    }\n\n    // needs to accept ETH from any v1 exchange and the router. ideally this could be enforced, as in the router,\n    // but it's not possible because it requires a call to the v1 factory, which takes too much gas\n    receive() external payable {}\n\n    function migrate(\n        address token,\n        uint amountTokenMin,\n        uint amountETHMin,\n        address to,\n        uint deadline\n    ) external override {\n        ISunswapV1Exchange exchangeV1 = ISunswapV1Exchange(\n            factoryV1.getExchange(token)\n        );\n        uint liquidityV1 = exchangeV1.balanceOf(msg.sender);\n        require(\n            exchangeV1.transferFrom(msg.sender, address(this), liquidityV1),\n            \"TRANSFER_FROM_FAILED\"\n        );\n        (uint amountETHV1, uint amountTokenV1) = exchangeV1.removeLiquidity(\n            liquidityV1,\n            1,\n            1,\n            type(uint).max\n        );\n        TransferHelper.safeApprove(token, address(router), amountTokenV1);\n        (uint amountTokenV2, uint amountETHV2, ) = router.addLiquidityETH{\n            value: amountETHV1\n        }(token, amountTokenV1, amountTokenMin, amountETHMin, to, deadline);\n        if (amountTokenV1 > amountTokenV2) {\n            TransferHelper.safeApprove(token, address(router), 0); // be a good blockchain citizen, reset allowance to 0\n            TransferHelper.safeTransfer(\n                token,\n                msg.sender,\n                amountTokenV1 - amountTokenV2\n            );\n        } else if (amountETHV1 > amountETHV2) {\n            // addLiquidityETH guarantees that all of amountETHV1 or amountTokenV1 will be used, hence this else is safe\n            TransferHelper.safeTransferETH(\n                msg.sender,\n                amountETHV1 - amountETHV2\n            );\n        }\n    }\n}\n",
  "sourcePath": "C:/Dev/daubit/github/tracy-tron/tracy-tron/contracts/contracts/sunswapV2/SunswapV2Migrator.sol",
  "compiler": {
    "name": "solc",
    "version": "0.8.6+commit.0e36fba0.mod.Emscripten.clang"
  },
  "schemaVersion": "2.0.1",
  "updatedAt": "2022-11-11T13:34:08.915Z"
}