{
  "contractName": "TestToken",
  "abi": [
    {
      "inputs": [
        {
          "internalType": "string",
          "name": "_name",
          "type": "string"
        },
        {
          "internalType": "string",
          "name": "_symbol",
          "type": "string"
        },
        {
          "internalType": "uint8",
          "name": "_decimals",
          "type": "uint8"
        },
        {
          "internalType": "uint256",
          "name": "amount",
          "type": "uint256"
        }
      ],
      "stateMutability": "nonpayable",
      "type": "constructor"
    },
    {
      "anonymous": false,
      "inputs": [
        {
          "indexed": true,
          "internalType": "address",
          "name": "owner",
          "type": "address"
        },
        {
          "indexed": true,
          "internalType": "address",
          "name": "spender",
          "type": "address"
        },
        {
          "indexed": false,
          "internalType": "uint256",
          "name": "value",
          "type": "uint256"
        }
      ],
      "name": "Approval",
      "type": "event"
    },
    {
      "anonymous": false,
      "inputs": [
        {
          "indexed": true,
          "internalType": "address",
          "name": "from",
          "type": "address"
        },
        {
          "indexed": true,
          "internalType": "address",
          "name": "to",
          "type": "address"
        },
        {
          "indexed": false,
          "internalType": "uint256",
          "name": "value",
          "type": "uint256"
        }
      ],
      "name": "Transfer",
      "type": "event"
    },
    {
      "inputs": [
        {
          "internalType": "address",
          "name": "owner",
          "type": "address"
        },
        {
          "internalType": "address",
          "name": "spender",
          "type": "address"
        }
      ],
      "name": "allowance",
      "outputs": [
        {
          "internalType": "uint256",
          "name": "",
          "type": "uint256"
        }
      ],
      "stateMutability": "view",
      "type": "function"
    },
    {
      "inputs": [
        {
          "internalType": "address",
          "name": "spender",
          "type": "address"
        },
        {
          "internalType": "uint256",
          "name": "value",
          "type": "uint256"
        }
      ],
      "name": "approve",
      "outputs": [
        {
          "internalType": "bool",
          "name": "",
          "type": "bool"
        }
      ],
      "stateMutability": "nonpayable",
      "type": "function"
    },
    {
      "inputs": [
        {
          "internalType": "address",
          "name": "account",
          "type": "address"
        }
      ],
      "name": "balanceOf",
      "outputs": [
        {
          "internalType": "uint256",
          "name": "",
          "type": "uint256"
        }
      ],
      "stateMutability": "view",
      "type": "function"
    },
    {
      "inputs": [
        {
          "internalType": "uint256",
          "name": "value",
          "type": "uint256"
        }
      ],
      "name": "burn",
      "outputs": [],
      "stateMutability": "nonpayable",
      "type": "function"
    },
    {
      "inputs": [
        {
          "internalType": "address",
          "name": "newOwner",
          "type": "address"
        }
      ],
      "name": "changeOwner",
      "outputs": [],
      "stateMutability": "nonpayable",
      "type": "function"
    },
    {
      "inputs": [],
      "name": "decimals",
      "outputs": [
        {
          "internalType": "uint8",
          "name": "",
          "type": "uint8"
        }
      ],
      "stateMutability": "view",
      "type": "function"
    },
    {
      "inputs": [
        {
          "internalType": "address",
          "name": "spender",
          "type": "address"
        },
        {
          "internalType": "uint256",
          "name": "subtractedValue",
          "type": "uint256"
        }
      ],
      "name": "decreaseAllowance",
      "outputs": [
        {
          "internalType": "bool",
          "name": "",
          "type": "bool"
        }
      ],
      "stateMutability": "nonpayable",
      "type": "function"
    },
    {
      "inputs": [
        {
          "internalType": "address",
          "name": "spender",
          "type": "address"
        },
        {
          "internalType": "uint256",
          "name": "addedValue",
          "type": "uint256"
        }
      ],
      "name": "increaseAllowance",
      "outputs": [
        {
          "internalType": "bool",
          "name": "",
          "type": "bool"
        }
      ],
      "stateMutability": "nonpayable",
      "type": "function"
    },
    {
      "inputs": [
        {
          "internalType": "address",
          "name": "to",
          "type": "address"
        },
        {
          "internalType": "uint256",
          "name": "value",
          "type": "uint256"
        }
      ],
      "name": "mint",
      "outputs": [],
      "stateMutability": "nonpayable",
      "type": "function"
    },
    {
      "inputs": [],
      "name": "name",
      "outputs": [
        {
          "internalType": "string",
          "name": "",
          "type": "string"
        }
      ],
      "stateMutability": "view",
      "type": "function"
    },
    {
      "inputs": [],
      "name": "owner",
      "outputs": [
        {
          "internalType": "address",
          "name": "",
          "type": "address"
        }
      ],
      "stateMutability": "view",
      "type": "function"
    },
    {
      "inputs": [],
      "name": "renounceOwner",
      "outputs": [],
      "stateMutability": "nonpayable",
      "type": "function"
    },
    {
      "inputs": [],
      "name": "stopMint",
      "outputs": [],
      "stateMutability": "nonpayable",
      "type": "function"
    },
    {
      "inputs": [],
      "name": "stopmint",
      "outputs": [
        {
          "internalType": "bool",
          "name": "",
          "type": "bool"
        }
      ],
      "stateMutability": "view",
      "type": "function"
    },
    {
      "inputs": [],
      "name": "symbol",
      "outputs": [
        {
          "internalType": "string",
          "name": "",
          "type": "string"
        }
      ],
      "stateMutability": "view",
      "type": "function"
    },
    {
      "inputs": [],
      "name": "totalSupply",
      "outputs": [
        {
          "internalType": "uint256",
          "name": "",
          "type": "uint256"
        }
      ],
      "stateMutability": "view",
      "type": "function"
    },
    {
      "inputs": [
        {
          "internalType": "address",
          "name": "recipient",
          "type": "address"
        },
        {
          "internalType": "uint256",
          "name": "amount",
          "type": "uint256"
        }
      ],
      "name": "transfer",
      "outputs": [
        {
          "internalType": "bool",
          "name": "",
          "type": "bool"
        }
      ],
      "stateMutability": "nonpayable",
      "type": "function"
    },
    {
      "inputs": [
        {
          "internalType": "address",
          "name": "sender",
          "type": "address"
        },
        {
          "internalType": "address",
          "name": "recipient",
          "type": "address"
        },
        {
          "internalType": "uint256",
          "name": "amount",
          "type": "uint256"
        }
      ],
      "name": "transferFrom",
      "outputs": [
        {
          "internalType": "bool",
          "name": "",
          "type": "bool"
        }
      ],
      "stateMutability": "nonpayable",
      "type": "function"
    }
  ],
  "bytecode": "0x60806040523480156200001157600080fd5b50d380156200001f57600080fd5b50d280156200002d57600080fd5b50604051620011d0380380620011d083398101604081905262000050916200032e565b835162000065906000906020870190620001d1565b5082516200007b906001906020860190620001d1565b506002805460ff191660ff841617905560068054336001600160a01b03199091168117909155620000ad9082620000b7565b5050505062000433565b620000d3816005546200016660201b620006ae1790919060201c565b6005556001600160a01b03821660009081526003602090815260409091205462000108918390620006ae62000166821b17901c565b6001600160a01b0383166000818152600360205260408082209390935591519091907fddf252ad1be2c89b69c2b068fc378daa952ba7f163c4a11628f55a4df523b3ef906200015a9085815260200190565b60405180910390a35050565b600082620001758382620003b9565b9150811015620001cb5760405162461bcd60e51b815260206004820152601460248201527f64732d6d6174682d6164642d6f766572666c6f77000000000000000000000000604482015260640160405180910390fd5b92915050565b828054620001df90620003e0565b90600052602060002090601f0160209004810192826200020357600085556200024e565b82601f106200021e57805160ff19168380011785556200024e565b828001600101855582156200024e579182015b828111156200024e57825182559160200191906001019062000231565b506200025c92915062000260565b5090565b5b808211156200025c576000815560010162000261565b600082601f8301126200028957600080fd5b81516001600160401b0380821115620002a657620002a66200041d565b604051601f8301601f19908116603f01168101908282118183101715620002d157620002d16200041d565b81604052838152602092508683858801011115620002ee57600080fd5b600091505b83821015620003125785820183015181830184015290820190620002f3565b83821115620003245760008385830101525b9695505050505050565b600080600080608085870312156200034557600080fd5b84516001600160401b03808211156200035d57600080fd5b6200036b8883890162000277565b955060208701519150808211156200038257600080fd5b50620003918782880162000277565b935050604085015160ff81168114620003a957600080fd5b6060959095015193969295505050565b60008219821115620003db57634e487b7160e01b600052601160045260246000fd5b500190565b600181811c90821680620003f557607f821691505b602082108114156200041757634e487b7160e01b600052602260045260246000fd5b50919050565b634e487b7160e01b600052604160045260246000fd5b610d8d80620004436000396000f3fe608060405234801561001057600080fd5b50d3801561001d57600080fd5b50d2801561002a57600080fd5b50600436106101305760003560e01c806370a08231116100bc578063a457c2d71161008b578063a457c2d71461026d578063a6f9dae114610280578063a9059cbb14610293578063d5582965146102a6578063dd62ed3e146102ae57600080fd5b806370a08231146101fd5780638c38195d146102265780638da5cb5b1461023a57806395d89b411461026557600080fd5b806328c23a451161010357806328c23a451461019b578063313ce567146101a557806339509351146101c457806340c10f19146101d757806342966c68146101ea57600080fd5b806306fdde0314610135578063095ea7b31461015357806318160ddd1461017657806323b872dd14610188575b600080fd5b61013d6102e7565b60405161014a9190610c57565b60405180910390f35b610166610161366004610c14565b610375565b604051901515815260200161014a565b6005545b60405190815260200161014a565b610166610196366004610bd8565b61038c565b6101a36103dd565b005b6002546101b29060ff1681565b60405160ff909116815260200161014a565b6101666101d2366004610c14565b610422565b6101a36101e5366004610c14565b610458565b6101a36101f8366004610c3e565b6104ea565b61017a61020b366004610b83565b6001600160a01b031660009081526003602052604090205490565b60065461016690600160a01b900460ff1681565b60065461024d906001600160a01b031681565b6040516001600160a01b03909116815260200161014a565b61013d610579565b61016661027b366004610c14565b610586565b6101a361028e366004610b83565b6105bc565b6101666102a1366004610c14565b610608565b6101a3610615565b61017a6102bc366004610ba5565b6001600160a01b03918216600090815260046020908152604080832093909416825291909152205490565b600080546102f490610d06565b80601f016020809104026020016040519081016040528092919081815260200182805461032090610d06565b801561036d5780601f106103425761010080835404028352916020019161036d565b820191906000526020600020905b81548152906001019060200180831161035057829003601f168201915b505050505081565b6000610382338484610703565b5060015b92915050565b6000610399848484610828565b6001600160a01b0384166000908152600460209081526040808320338085529252909120546103d39186916103ce9086610994565b610703565b5060019392505050565b6006546001600160a01b031633146104105760405162461bcd60e51b815260040161040790610cac565b60405180910390fd5b600680546001600160a01b0319169055565b3360008181526004602090815260408083206001600160a01b038716845290915281205490916103829185906103ce90866106ae565b6006546001600160a01b031633146104825760405162461bcd60e51b815260040161040790610cac565b600654600160a01b900460ff16156104dc5760405162461bcd60e51b815260206004820152601860248201527f54543a204d494e545f414c52454144595f53544f5050454400000000000000006044820152606401610407565b6104e682826109ea565b5050565b6006546001600160a01b031633146105145760405162461bcd60e51b815260040161040790610cac565b3360009081526003602052604090205481111561056c5760405162461bcd60e51b815260206004820152601660248201527554543a20494e53554646494349454e545f46554e445360501b6044820152606401610407565b6105763382610a7a565b50565b600180546102f490610d06565b3360008181526004602090815260408083206001600160a01b038716845290915281205490916103829185906103ce9086610994565b6006546001600160a01b031633146105e65760405162461bcd60e51b815260040161040790610cac565b600680546001600160a01b0319166001600160a01b0392909216919091179055565b6000610382338484610828565b6006546001600160a01b0316331461063f5760405162461bcd60e51b815260040161040790610cac565b600654600160a01b900460ff16156106995760405162461bcd60e51b815260206004820152601760248201527f54543a204d494e545f414c52454144595f53544f5045440000000000000000006044820152606401610407565b6006805460ff60a01b1916600160a01b179055565b6000826106bb8382610cd7565b91508110156103865760405162461bcd60e51b815260206004820152601460248201527364732d6d6174682d6164642d6f766572666c6f7760601b6044820152606401610407565b6001600160a01b0383166107655760405162461bcd60e51b8152602060048201526024808201527f54524332303a20617070726f76652066726f6d20746865207a65726f206164646044820152637265737360e01b6064820152608401610407565b6001600160a01b0382166107c65760405162461bcd60e51b815260206004820152602260248201527f54524332303a20617070726f766520746f20746865207a65726f206164647265604482015261737360f01b6064820152608401610407565b6001600160a01b0383811660008181526004602090815260408083209487168084529482529182902085905590518481527f8c5be1e5ebec7d5bd14f71427d1e84f3dd0314c0f7b2291e5b200ac8c7c3b92591015b60405180910390a3505050565b6001600160a01b03831661088c5760405162461bcd60e51b815260206004820152602560248201527f54524332303a207472616e736665722066726f6d20746865207a65726f206164604482015264647265737360d81b6064820152608401610407565b6001600160a01b0382166108ee5760405162461bcd60e51b815260206004820152602360248201527f54524332303a207472616e7366657220746f20746865207a65726f206164647260448201526265737360e81b6064820152608401610407565b6001600160a01b0383166000908152600360205260409020546109119082610994565b6001600160a01b03808516600090815260036020526040808220939093559084168152205461094090826106ae565b6001600160a01b0380841660008181526003602052604090819020939093559151908516907fddf252ad1be2c89b69c2b068fc378daa952ba7f163c4a11628f55a4df523b3ef9061081b9085815260200190565b6000826109a18382610cef565b91508111156103865760405162461bcd60e51b815260206004820152601560248201527464732d6d6174682d7375622d756e646572666c6f7760581b6044820152606401610407565b6005546109f790826106ae565b6005556001600160a01b038216600090815260036020526040902054610a1d90826106ae565b6001600160a01b0383166000818152600360205260408082209390935591519091907fddf252ad1be2c89b69c2b068fc378daa952ba7f163c4a11628f55a4df523b3ef90610a6e9085815260200190565b60405180910390a35050565b6001600160a01b038216610ada5760405162461bcd60e51b815260206004820152602160248201527f54524332303a206275726e2066726f6d20746865207a65726f206164647265736044820152607360f81b6064820152608401610407565b600554610ae79082610994565b6005556001600160a01b038216600090815260036020526040902054610b0d9082610994565b6001600160a01b0383166000818152600360205260408082209390935591517fddf252ad1be2c89b69c2b068fc378daa952ba7f163c4a11628f55a4df523b3ef90610a6e9085815260200190565b600081356001600160a81b0381168114610b7457600080fd5b6001600160a01b031692915050565b600060208284031215610b9557600080fd5b610b9e82610b5b565b9392505050565b60008060408385031215610bb857600080fd5b610bc183610b5b565b9150610bcf60208401610b5b565b90509250929050565b600080600060608486031215610bed57600080fd5b610bf684610b5b565b9250610c0460208501610b5b565b9150604084013590509250925092565b60008060408385031215610c2757600080fd5b610c3083610b5b565b946020939093013593505050565b600060208284031215610c5057600080fd5b5035919050565b600060208083528351808285015260005b81811015610c8457858101830151858201604001528201610c68565b81811115610c96576000604083870101525b50601f01601f1916929092016040019392505050565b60208082526011908201527015150e881050d0d154d4d7d11153925151607a1b604082015260600190565b60008219821115610cea57610cea610d41565b500190565b600082821015610d0157610d01610d41565b500390565b600181811c90821680610d1a57607f821691505b60208210811415610d3b57634e487b7160e01b600052602260045260246000fd5b50919050565b634e487b7160e01b600052601160045260246000fdfea26474726f6e58221220fdc4488361edc6cb78690471e8f214056d26884b1224b213e5ce57c4b97657a164736f6c63430008060033",
  "source": "/*! TestToken.sol | SPDX-License-Identifier: MIT License */\n\npragma solidity 0.8.6;\n\nimport \"./TRC20/TRC20.sol\";\n\ncontract TestToken is TRC20 {\n    address public owner;\n    bool public stopmint;\n\n    modifier onlyOwner() {\n        require(msg.sender == owner, \"TT: ACCESS_DENIED\");\n        _;\n    }\n\n    constructor(\n        string memory _name,\n        string memory _symbol,\n        uint8 _decimals,\n        uint amount\n    ) {\n        name = _name;\n        symbol = _symbol;\n        decimals = _decimals;\n        owner = msg.sender;\n        _mint(msg.sender, amount);\n    }\n\n    function mint(address to, uint256 value) external onlyOwner {\n        require(!stopmint, \"TT: MINT_ALREADY_STOPPED\");\n\n        _mint(to, value);\n    }\n\n    function changeOwner(address newOwner) external onlyOwner {\n        owner = newOwner;\n    }\n\n    function renounceOwner() external onlyOwner {\n        owner = address(0);\n    }\n\n    function burn(uint256 value) external onlyOwner {\n        require(balanceOf(msg.sender) >= value, \"TT: INSUFFICIENT_FUNDS\");\n\n        _burn(msg.sender, value);\n    }\n\n    function stopMint() external onlyOwner {\n        require(!stopmint, \"TT: MINT_ALREADY_STOPED\");\n\n        stopmint = true;\n    }\n}\n",
  "sourcePath": "C:/Dev/daubit/github/tracy-tron/tracy-tron/contracts/contracts/TestToken.sol",
  "compiler": {
    "name": "solc",
    "version": "0.8.6+commit.0e36fba0.mod.Emscripten.clang"
  },
  "schemaVersion": "2.0.1",
  "updatedAt": "2022-11-11T13:34:08.841Z"
}