{
  "contractName": "TracyRouter",
  "abi": [
    {
      "inputs": [
        {
          "internalType": "address",
          "name": "_owner",
          "type": "address"
        }
      ],
      "stateMutability": "nonpayable",
      "type": "constructor"
    },
    {
      "stateMutability": "payable",
      "type": "fallback",
      "name": "fallback"
    },
    {
      "inputs": [
        {
          "internalType": "address",
          "name": "router",
          "type": "address"
        }
      ],
      "name": "addRouter",
      "outputs": [],
      "stateMutability": "nonpayable",
      "type": "function"
    },
    {
      "inputs": [
        {
          "internalType": "address",
          "name": "token",
          "type": "address"
        }
      ],
      "name": "approve",
      "outputs": [],
      "stateMutability": "nonpayable",
      "type": "function"
    },
    {
      "inputs": [
        {
          "internalType": "address",
          "name": "router",
          "type": "address"
        },
        {
          "internalType": "address",
          "name": "token",
          "type": "address"
        }
      ],
      "name": "approveRouter",
      "outputs": [],
      "stateMutability": "nonpayable",
      "type": "function"
    },
    {
      "inputs": [
        {
          "internalType": "address",
          "name": "token",
          "type": "address"
        }
      ],
      "name": "balanceIn",
      "outputs": [
        {
          "internalType": "uint256",
          "name": "",
          "type": "uint256"
        }
      ],
      "stateMutability": "view",
      "type": "function"
    },
    {
      "inputs": [
        {
          "internalType": "address",
          "name": "",
          "type": "address"
        }
      ],
      "name": "registered",
      "outputs": [
        {
          "internalType": "bool",
          "name": "",
          "type": "bool"
        }
      ],
      "stateMutability": "view",
      "type": "function"
    },
    {
      "inputs": [
        {
          "internalType": "address",
          "name": "router",
          "type": "address"
        },
        {
          "internalType": "uint256",
          "name": "amountIn",
          "type": "uint256"
        },
        {
          "internalType": "uint256",
          "name": "amountOutMin",
          "type": "uint256"
        },
        {
          "internalType": "address[]",
          "name": "path",
          "type": "address[]"
        },
        {
          "internalType": "uint256",
          "name": "deadline",
          "type": "uint256"
        }
      ],
      "name": "swapExactNativeForTokens",
      "outputs": [],
      "stateMutability": "nonpayable",
      "type": "function"
    },
    {
      "inputs": [
        {
          "internalType": "address",
          "name": "router",
          "type": "address"
        },
        {
          "internalType": "uint256",
          "name": "amountIn",
          "type": "uint256"
        },
        {
          "internalType": "uint256",
          "name": "amountOutMin",
          "type": "uint256"
        },
        {
          "internalType": "address[]",
          "name": "path",
          "type": "address[]"
        },
        {
          "internalType": "uint256",
          "name": "deadline",
          "type": "uint256"
        }
      ],
      "name": "swapExactTokensForNative",
      "outputs": [],
      "stateMutability": "nonpayable",
      "type": "function"
    },
    {
      "inputs": [
        {
          "internalType": "address",
          "name": "router",
          "type": "address"
        },
        {
          "internalType": "uint256",
          "name": "amountIn",
          "type": "uint256"
        },
        {
          "internalType": "uint256",
          "name": "amountOutMin",
          "type": "uint256"
        },
        {
          "internalType": "address[]",
          "name": "path",
          "type": "address[]"
        },
        {
          "internalType": "uint256",
          "name": "deadline",
          "type": "uint256"
        }
      ],
      "name": "swapExactTokensForTokens",
      "outputs": [
        {
          "internalType": "uint256[]",
          "name": "amounts",
          "type": "uint256[]"
        }
      ],
      "stateMutability": "nonpayable",
      "type": "function"
    },
    {
      "inputs": [
        {
          "internalType": "address",
          "name": "router",
          "type": "address"
        },
        {
          "internalType": "uint256",
          "name": "amountOut",
          "type": "uint256"
        },
        {
          "internalType": "uint256",
          "name": "amountInMax",
          "type": "uint256"
        },
        {
          "internalType": "address[]",
          "name": "path",
          "type": "address[]"
        },
        {
          "internalType": "uint256",
          "name": "deadline",
          "type": "uint256"
        }
      ],
      "name": "swapNativeForExactTokens",
      "outputs": [],
      "stateMutability": "nonpayable",
      "type": "function"
    },
    {
      "inputs": [
        {
          "internalType": "address",
          "name": "router",
          "type": "address"
        },
        {
          "internalType": "uint256",
          "name": "amountOut",
          "type": "uint256"
        },
        {
          "internalType": "uint256",
          "name": "amountInMax",
          "type": "uint256"
        },
        {
          "internalType": "address[]",
          "name": "path",
          "type": "address[]"
        },
        {
          "internalType": "uint256",
          "name": "deadline",
          "type": "uint256"
        }
      ],
      "name": "swapTokensForExactNative",
      "outputs": [],
      "stateMutability": "nonpayable",
      "type": "function"
    },
    {
      "inputs": [
        {
          "internalType": "address",
          "name": "router",
          "type": "address"
        },
        {
          "internalType": "uint256",
          "name": "amountOut",
          "type": "uint256"
        },
        {
          "internalType": "uint256",
          "name": "amountInMax",
          "type": "uint256"
        },
        {
          "internalType": "address[]",
          "name": "path",
          "type": "address[]"
        },
        {
          "internalType": "uint256",
          "name": "deadline",
          "type": "uint256"
        }
      ],
      "name": "swapTokensForExactTokens",
      "outputs": [],
      "stateMutability": "nonpayable",
      "type": "function"
    }
  ],
  "bytecode": "0x608060405234801561001057600080fd5b50d3801561001d57600080fd5b50d2801561002a57600080fd5b506040516114b33803806114b38339810160408190526100499161006e565b600080546001600160a01b0319166001600160a01b03929092169190911790556100a7565b60006020828403121561008057600080fd5b81516001600160a81b038116811461009757600080fd5b6001600160a01b03169392505050565b6113fd806100b66000396000f3fe6080604052600436106100995760003560e01c8063a773a59b11610061578063a773a59b146101bd578063b2dd5c07146101f7578063daea85c514610256578063e28a3c8114610290578063ed4b5305146102d8578063ed7437081461031257005b806324ca984e1461009b5780633a61ade7146100d557806346bd71f91461010f5780637ba5618f146101495780639ab5a28614610183575b005b3480156100a757600080fd5b50d380156100b457600080fd5b50d280156100c157600080fd5b506100996100d0366004610f87565b610359565b3480156100e157600080fd5b50d380156100ee57600080fd5b50d280156100fb57600080fd5b5061009961010a366004610fdc565b610471565b34801561011b57600080fd5b50d3801561012857600080fd5b50d2801561013557600080fd5b50610099610144366004610fdc565b610632565b34801561015557600080fd5b50d3801561016257600080fd5b50d2801561016f57600080fd5b5061009961017e366004610fdc565b6107b8565b34801561018f57600080fd5b50d3801561019c57600080fd5b50d280156101a957600080fd5b506100996101b8366004610fdc565b61093e565b3480156101c957600080fd5b50d380156101d657600080fd5b50d280156101e357600080fd5b506100996101f2366004610fa9565b610a54565b34801561020357600080fd5b50d3801561021057600080fd5b50d2801561021d57600080fd5b5061024161022c366004610f87565b60016020526000908152604090205460ff1681565b60405190151581526020015b60405180910390f35b34801561026257600080fd5b50d3801561026f57600080fd5b50d2801561027c57600080fd5b5061009961028b366004610f87565b610b6a565b34801561029c57600080fd5b50d380156102a957600080fd5b50d280156102b657600080fd5b506102ca6102c5366004610f87565b610c19565b60405190815260200161024d565b3480156102e457600080fd5b50d380156102f157600080fd5b50d280156102fe57600080fd5b5061009961030d366004610fdc565b610c99565b34801561031e57600080fd5b50d3801561032b57600080fd5b50d2801561033857600080fd5b5061034c610347366004610fdc565b610d74565b60405161024d91906111c5565b6000546001600160a01b0316331461038c5760405162461bcd60e51b8152600401610383906112ef565b60405180910390fd5b6000546001600160a01b031633146103e15760405162461bcd60e51b8152602060048201526018602482015277151c9858de549bdd5d195c8e88139bdd08185b1b1bddd95960421b6044820152606401610383565b6001600160a01b03811660009081526001602052604090205460ff161561044a5760405162461bcd60e51b815260206004820152601f60248201527f5472616379526f757465723a20416c72656164792072656769737465726564006044820152606401610383565b6001600160a01b03166000908152600160208190526040909120805460ff19169091179055565b6000546001600160a01b0316331461049b5760405162461bcd60e51b8152600401610383906112ef565b60028210156104bc5760405162461bcd60e51b815260040161038390611209565b6001600160a01b03861660009081526001602052604090205460ff166104f45760405162461bcd60e51b815260040161038390611277565b6000838360008181106105095761050961139b565b905060200201602081019061051e9190610f87565b60405163a9059cbb60e01b81526001600160a01b03898116600483015260248201899052919091169063a9059cbb90604401602060405180830381600087803b15801561056a57600080fd5b505af115801561057e573d6000803e3d6000fd5b505050506040513d601f19601f820116820180604052508101906105a29190611143565b9050806105c15760405162461bcd60e51b815260040161038390611240565b60405163029e384f60e01b81526001600160a01b0388169063029e384f906105f790899089908990899030908a9060040161135d565b600060405180830381600087803b15801561061157600080fd5b505af1158015610625573d6000803e3d6000fd5b5050505050505050505050565b6000546001600160a01b0316331461065c5760405162461bcd60e51b8152600401610383906112ef565b600282101561067d5760405162461bcd60e51b815260040161038390611209565b6001600160a01b03861660009081526001602052604090205460ff166106b55760405162461bcd60e51b815260040161038390611277565b6000838360008181106106ca576106ca61139b565b90506020020160208101906106df9190610f87565b60405163a9059cbb60e01b81526001600160a01b03898116600483015260248201889052919091169063a9059cbb90604401602060405180830381600087803b15801561072b57600080fd5b505af115801561073f573d6000803e3d6000fd5b505050506040513d601f19601f820116820180604052508101906107639190611143565b9050806107825760405162461bcd60e51b815260040161038390611240565b604051634401edf760e11b81526001600160a01b03881690638803dbee906105f790899089908990899030908a9060040161135d565b6000546001600160a01b031633146107e25760405162461bcd60e51b8152600401610383906112ef565b60028210156108035760405162461bcd60e51b815260040161038390611209565b6001600160a01b03861660009081526001602052604090205460ff1661083b5760405162461bcd60e51b815260040161038390611277565b6000838360008181106108505761085061139b565b90506020020160208101906108659190610f87565b60405163a9059cbb60e01b81526001600160a01b03898116600483015260248201889052919091169063a9059cbb90604401602060405180830381600087803b1580156108b157600080fd5b505af11580156108c5573d6000803e3d6000fd5b505050506040513d601f19601f820116820180604052508101906108e99190611143565b9050806109085760405162461bcd60e51b815260040161038390611240565b604051634436f4fd60e01b81526001600160a01b03881690634436f4fd906105f790899089908990899030908a9060040161135d565b6000546001600160a01b031633146109685760405162461bcd60e51b8152600401610383906112ef565b60028210156109895760405162461bcd60e51b815260040161038390611209565b6001600160a01b03861660009081526001602052604090205460ff166109c15760405162461bcd60e51b815260040161038390611277565b3080318511156109e35760405162461bcd60e51b8152600401610383906112ae565b6040516340053ac560e11b81526001600160a01b0388169063800a758a908790610a19908a908990899030908a90600401611326565b6000604051808303818588803b158015610a3257600080fd5b505af1158015610a46573d6000803e3d6000fd5b505050505050505050505050565b6000546001600160a01b03163314610a7e5760405162461bcd60e51b8152600401610383906112ef565b6000546001600160a01b03163314610ad35760405162461bcd60e51b8152602060048201526018602482015277151c9858de549bdd5d195c8e88139bdd08185b1b1bddd95960421b6044820152606401610383565b6001600160a01b03821660009081526001602052604090205460ff16610b0b5760405162461bcd60e51b815260040161038390611277565b60405163daea85c560e01b81526001600160a01b03828116600483015283169063daea85c590602401600060405180830381600087803b158015610b4e57600080fd5b505af1158015610b62573d6000803e3d6000fd5b505050505050565b6000546001600160a01b03163314610b945760405162461bcd60e51b8152600401610383906112ef565b60405163095ea7b360e01b815233600482015260001960248201526001600160a01b0382169063095ea7b390604401602060405180830381600087803b158015610bdd57600080fd5b505af1158015610bf1573d6000803e3d6000fd5b505050506040513d601f19601f82011682018060405250810190610c159190611143565b5050565b6040516370a0823160e01b81523060048201526000906001600160a01b038316906370a082319060240160206040518083038186803b158015610c5b57600080fd5b505afa158015610c6f573d6000803e3d6000fd5b505050506040513d601f19601f82011682018060405250810190610c939190611165565b92915050565b6000546001600160a01b03163314610cc35760405162461bcd60e51b8152600401610383906112ef565b6002821015610ce45760405162461bcd60e51b815260040161038390611209565b6001600160a01b03861660009081526001602052604090205460ff16610d1c5760405162461bcd60e51b815260040161038390611277565b308031861115610d3e5760405162461bcd60e51b8152600401610383906112ae565b60405163c075a59160e01b81526001600160a01b0388169063c075a591908890610a199089908990899030908a90600401611326565b6000546060906001600160a01b03163314610da15760405162461bcd60e51b8152600401610383906112ef565b6002831015610dc25760405162461bcd60e51b815260040161038390611209565b6001600160a01b03871660009081526001602052604090205460ff16610dfa5760405162461bcd60e51b815260040161038390611277565b600084846000818110610e0f57610e0f61139b565b9050602002016020810190610e249190610f87565b60405163a9059cbb60e01b81526001600160a01b038a81166004830152602482018a9052919091169063a9059cbb90604401602060405180830381600087803b158015610e7057600080fd5b505af1158015610e84573d6000803e3d6000fd5b505050506040513d601f19601f82011682018060405250810190610ea89190611143565b905080610ec75760405162461bcd60e51b815260040161038390611240565b6040516338ed173960e01b81526001600160a01b038916906338ed173990610efd908a908a908a908a9030908b9060040161135d565b600060405180830381600087803b158015610f1757600080fd5b505af1158015610f2b573d6000803e3d6000fd5b505050506040513d6000823e601f3d908101601f19168201604052610f53919081019061107e565b98975050505050505050565b600081356001600160a81b0381168114610f7857600080fd5b6001600160a01b031692915050565b600060208284031215610f9957600080fd5b610fa282610f5f565b9392505050565b60008060408385031215610fbc57600080fd5b610fc583610f5f565b9150610fd360208401610f5f565b90509250929050565b60008060008060008060a08789031215610ff557600080fd5b610ffe87610f5f565b95506020870135945060408701359350606087013567ffffffffffffffff8082111561102957600080fd5b818901915089601f83011261103d57600080fd5b81358181111561104c57600080fd5b8a60208260051b850101111561106157600080fd5b602083019550809450505050608087013590509295509295509295565b6000602080838503121561109157600080fd5b825167ffffffffffffffff808211156110a957600080fd5b818501915085601f8301126110bd57600080fd5b8151818111156110cf576110cf6113b1565b8060051b604051601f19603f830116810181811085821117156110f4576110f46113b1565b604052828152858101935084860182860187018a101561111357600080fd5b600095505b83861015611136578051855260019590950194938601938601611118565b5098975050505050505050565b60006020828403121561115557600080fd5b81518015158114610fa257600080fd5b60006020828403121561117757600080fd5b5051919050565b8183526000602080850194508260005b858110156111ba576001600160a01b036111a783610f5f565b168752958201959082019060010161118e565b509495945050505050565b6020808252825182820181905260009190848201906040850190845b818110156111fd578351835292840192918401916001016111e1565b50909695505050505050565b60208082526017908201527f5472616379526f757465723a20504154485f53484f5254000000000000000000604082015260600190565b6020808252601c908201527f5472616379526f757465723a205452414e534645525f4641494c454400000000604082015260600190565b60208082526019908201527f5472616379526f757465723a20554e5245474953544552454400000000000000604082015260600190565b60208082526021908201527f5472616379526f757465723a20494e53554646494349454e545f42414c414e436040820152604560f81b606082015260800190565b60208082526019908201527f495472616379526f757465723a204e6f7420616c6c6f77656400000000000000604082015260600190565b85815260806020820152600061134060808301868861117e565b6001600160a01b0394909416604083015250606001529392505050565b86815285602082015260a06040820152600061137d60a08301868861117e565b6001600160a01b039490941660608301525060800152949350505050565b634e487b7160e01b600052603260045260246000fd5b634e487b7160e01b600052604160045260246000fdfea26474726f6e582212202d89ce6dc399715f848d244302bf0cfc0e6833ac34d43c796cc2a1ecc314b09664736f6c63430008060033",
  "source": "/*! TracyRouter.sol | SPDX-License-Identifier: MIT License */\n\npragma solidity 0.8.6;\n\nimport \"./interfaces/ITracyRouter.sol\";\nimport \"./TRC20/ITRC20.sol\";\n\ncontract TracyRouter {\n    address private owner;\n    mapping(address => bool) public registered;\n\n    modifier onlyOwner() {\n        require(msg.sender == owner, \"ITracyRouter: Not allowed\");\n        _;\n    }\n\n    constructor(address _owner) {\n        owner = _owner;\n    }\n\n    fallback() external payable {\n        // assert(msg.sender == wtrx);\n    }\n\n    function addRouter(address router) external onlyOwner {\n        require(msg.sender == owner, \"TracyRouter: Not allowed\");\n        require(!registered[router], \"TracyRouter: Already registered\");\n        registered[router] = true;\n    }\n\n    function approveRouter(address router, address token) external onlyOwner {\n        require(msg.sender == owner, \"TracyRouter: Not allowed\");\n        require(registered[router], \"TracyRouter: UNREGISTERED\");\n        ITracyRouter(router).approve(token);\n    }\n\n    function approve(address token) external onlyOwner {\n        ITRC20(token).approve(msg.sender, type(uint256).max);\n    }\n\n    function balanceIn(address token) external view returns (uint256) {\n        return ITRC20(token).balanceOf(address(this));\n    }\n\n    function swapExactTokensForTokens(\n        address router,\n        uint256 amountIn,\n        uint256 amountOutMin,\n        address[] calldata path,\n        uint256 deadline\n    ) external onlyOwner returns (uint256[] memory amounts) {\n        require(path.length >= 2, \"TracyRouter: PATH_SHORT\");\n        require(registered[router], \"TracyRouter: UNREGISTERED\");\n        bool success = ITRC20(path[0]).transfer(router, amountIn);\n        require(success, \"TracyRouter: TRANSFER_FAILED\");\n        amounts = ITracyRouter(router).swapExactTokensForTokens(\n            amountIn,\n            amountOutMin,\n            path,\n            address(this),\n            deadline\n        );\n    }\n\n    function swapTokensForExactTokens(\n        address router,\n        uint256 amountOut,\n        uint256 amountInMax,\n        address[] calldata path,\n        uint256 deadline\n    ) external onlyOwner {\n        require(path.length >= 2, \"TracyRouter: PATH_SHORT\");\n        require(registered[router], \"TracyRouter: UNREGISTERED\");\n        bool success = ITRC20(path[0]).transfer(router, amountInMax);\n        require(success, \"TracyRouter: TRANSFER_FAILED\");\n        ITracyRouter(router).swapTokensForExactTokens(\n            amountOut,\n            amountInMax,\n            path,\n            address(this),\n            deadline\n        );\n    }\n\n    function swapExactNativeForTokens(\n        address router,\n        uint256 amountIn,\n        uint256 amountOutMin,\n        address[] calldata path,\n        uint256 deadline\n    ) external onlyOwner {\n        require(path.length >= 2, \"TracyRouter: PATH_SHORT\");\n        require(registered[router], \"TracyRouter: UNREGISTERED\");\n        address self = address(this);\n        require(self.balance >= amountIn, \"TracyRouter: INSUFFICIENT_BALANCE\");\n        ITracyRouter(router).swapExactNativeForTokens{value: amountIn}(\n            amountOutMin,\n            path,\n            address(this),\n            deadline\n        );\n    }\n\n    function swapNativeForExactTokens(\n        address router,\n        uint256 amountOut,\n        uint256 amountInMax,\n        address[] calldata path,\n        uint256 deadline\n    ) external onlyOwner {\n        require(path.length >= 2, \"TracyRouter: PATH_SHORT\");\n        require(registered[router], \"TracyRouter: UNREGISTERED\");\n        address self = address(this);\n        require(\n            self.balance >= amountInMax,\n            \"TracyRouter: INSUFFICIENT_BALANCE\"\n        );\n        ITracyRouter(router).swapNativeForExactTokens{value: amountInMax}(\n            amountOut,\n            path,\n            address(this),\n            deadline\n        );\n    }\n\n    function swapExactTokensForNative(\n        address router,\n        uint256 amountIn,\n        uint256 amountOutMin,\n        address[] calldata path,\n        uint256 deadline\n    ) external onlyOwner {\n        require(path.length >= 2, \"TracyRouter: PATH_SHORT\");\n        require(registered[router], \"TracyRouter: UNREGISTERED\");\n        bool success = ITRC20(path[0]).transfer(router, amountIn);\n        require(success, \"TracyRouter: TRANSFER_FAILED\");\n        ITracyRouter(router).swapExactTokensForNative(\n            amountIn,\n            amountOutMin,\n            path,\n            address(this),\n            deadline\n        );\n    }\n\n    function swapTokensForExactNative(\n        address router,\n        uint256 amountOut,\n        uint256 amountInMax,\n        address[] calldata path,\n        uint256 deadline\n    ) external onlyOwner {\n        require(path.length >= 2, \"TracyRouter: PATH_SHORT\");\n        require(registered[router], \"TracyRouter: UNREGISTERED\");\n        bool success = ITRC20(path[0]).transfer(router, amountInMax);\n        require(success, \"TracyRouter: TRANSFER_FAILED\");\n        ITracyRouter(router).swapTokensForExactNative(\n            amountOut,\n            amountInMax,\n            path,\n            address(this),\n            deadline\n        );\n    }\n}\n",
  "sourcePath": "C:/Dev/daubit/github/tracy-tron/tracy-tron/contracts/contracts/TracyRouter.sol",
  "compiler": {
    "name": "solc",
    "version": "0.8.6+commit.0e36fba0.mod.Emscripten.clang"
  },
  "schemaVersion": "2.0.1",
  "updatedAt": "2022-11-11T13:34:25.042Z"
}