{
  "contractName": "WTRX",
  "abi": [
    {
      "anonymous": false,
      "inputs": [
        {
          "indexed": true,
          "internalType": "address",
          "name": "owner",
          "type": "address"
        },
        {
          "indexed": true,
          "internalType": "address",
          "name": "spender",
          "type": "address"
        },
        {
          "indexed": false,
          "internalType": "uint256",
          "name": "value",
          "type": "uint256"
        }
      ],
      "name": "Approval",
      "type": "event",
      "stateMutability": "nonpayable"
    },
    {
      "anonymous": false,
      "inputs": [
        {
          "indexed": true,
          "internalType": "address",
          "name": "dst",
          "type": "address"
        },
        {
          "indexed": false,
          "internalType": "uint256",
          "name": "sad",
          "type": "uint256"
        }
      ],
      "name": "Deposit",
      "type": "event",
      "stateMutability": "nonpayable"
    },
    {
      "anonymous": false,
      "inputs": [
        {
          "indexed": true,
          "internalType": "address",
          "name": "from",
          "type": "address"
        },
        {
          "indexed": true,
          "internalType": "address",
          "name": "to",
          "type": "address"
        },
        {
          "indexed": false,
          "internalType": "uint256",
          "name": "value",
          "type": "uint256"
        }
      ],
      "name": "Transfer",
      "type": "event",
      "stateMutability": "nonpayable"
    },
    {
      "anonymous": false,
      "inputs": [
        {
          "indexed": true,
          "internalType": "address",
          "name": "src",
          "type": "address"
        },
        {
          "indexed": false,
          "internalType": "uint256",
          "name": "sad",
          "type": "uint256"
        }
      ],
      "name": "Withdrawal",
      "type": "event",
      "stateMutability": "nonpayable"
    },
    {
      "inputs": [
        {
          "internalType": "address",
          "name": "src",
          "type": "address"
        },
        {
          "internalType": "address",
          "name": "guy",
          "type": "address"
        }
      ],
      "name": "allowance",
      "outputs": [
        {
          "internalType": "uint256",
          "name": "",
          "type": "uint256"
        }
      ],
      "stateMutability": "view",
      "type": "function"
    },
    {
      "inputs": [
        {
          "internalType": "address",
          "name": "guy",
          "type": "address"
        },
        {
          "internalType": "uint256",
          "name": "sad",
          "type": "uint256"
        }
      ],
      "name": "approve",
      "outputs": [
        {
          "internalType": "bool",
          "name": "",
          "type": "bool"
        }
      ],
      "stateMutability": "nonpayable",
      "type": "function"
    },
    {
      "inputs": [
        {
          "internalType": "address",
          "name": "guy",
          "type": "address"
        }
      ],
      "name": "approve",
      "outputs": [
        {
          "internalType": "bool",
          "name": "",
          "type": "bool"
        }
      ],
      "stateMutability": "nonpayable",
      "type": "function"
    },
    {
      "inputs": [
        {
          "internalType": "address",
          "name": "guy",
          "type": "address"
        }
      ],
      "name": "balanceOf",
      "outputs": [
        {
          "internalType": "uint256",
          "name": "",
          "type": "uint256"
        }
      ],
      "stateMutability": "view",
      "type": "function"
    },
    {
      "inputs": [],
      "name": "decimals",
      "outputs": [
        {
          "internalType": "uint8",
          "name": "",
          "type": "uint8"
        }
      ],
      "stateMutability": "view",
      "type": "function"
    },
    {
      "inputs": [],
      "name": "deposit",
      "outputs": [],
      "stateMutability": "payable",
      "type": "function"
    },
    {
      "inputs": [],
      "name": "name",
      "outputs": [
        {
          "internalType": "string",
          "name": "",
          "type": "string"
        }
      ],
      "stateMutability": "view",
      "type": "function"
    },
    {
      "inputs": [],
      "name": "symbol",
      "outputs": [
        {
          "internalType": "string",
          "name": "",
          "type": "string"
        }
      ],
      "stateMutability": "view",
      "type": "function"
    },
    {
      "inputs": [],
      "name": "totalSupply",
      "outputs": [
        {
          "internalType": "uint256",
          "name": "",
          "type": "uint256"
        }
      ],
      "stateMutability": "view",
      "type": "function"
    },
    {
      "inputs": [
        {
          "internalType": "address",
          "name": "dst",
          "type": "address"
        },
        {
          "internalType": "uint256",
          "name": "sad",
          "type": "uint256"
        }
      ],
      "name": "transfer",
      "outputs": [
        {
          "internalType": "bool",
          "name": "",
          "type": "bool"
        }
      ],
      "stateMutability": "nonpayable",
      "type": "function"
    },
    {
      "inputs": [
        {
          "internalType": "address",
          "name": "src",
          "type": "address"
        },
        {
          "internalType": "address",
          "name": "dst",
          "type": "address"
        },
        {
          "internalType": "uint256",
          "name": "sad",
          "type": "uint256"
        }
      ],
      "name": "transferFrom",
      "outputs": [
        {
          "internalType": "bool",
          "name": "",
          "type": "bool"
        }
      ],
      "stateMutability": "nonpayable",
      "type": "function"
    },
    {
      "inputs": [
        {
          "internalType": "uint256",
          "name": "sad",
          "type": "uint256"
        }
      ],
      "name": "withdraw",
      "outputs": [],
      "stateMutability": "nonpayable",
      "type": "function"
    }
  ],
  "bytecode": "0x60c0604052600b60808190526a0aee4c2e0e0cac840a8a4b60ab1b60a090815261002c9160039190610090565b50604080518082019091526004808252630aea8a4b60e31b60209092019182526100569181610090565b506005805460ff1916600617905534801561007057600080fd5b50d3801561007d57600080fd5b50d2801561008a57600080fd5b50610164565b82805461009c90610129565b90600052602060002090601f0160209004810192826100be5760008555610104565b82601f106100d757805160ff1916838001178555610104565b82800160010185558215610104579182015b828111156101045782518255916020019190600101906100e9565b50610110929150610114565b5090565b5b808211156101105760008155600101610115565b600181811c9082168061013d57607f821691505b6020821081141561015e57634e487b7160e01b600052602260045260246000fd5b50919050565b610aa680620001746000396000f3fe6080604052600436106100a75760003560e01c806370a082311161006457806370a082311461023057806395d89b4114610280578063a9059cbb146102af578063d0e30db0146102e9578063daea85c5146102f1578063dd62ed3e1461032b57600080fd5b806306fdde03146100ac578063095ea7b3146100f157806318160ddd1461013b57806323b872dd146101745780632e1a7d4d146101ae578063313ce567146101ea575b600080fd5b3480156100b857600080fd5b50d380156100c557600080fd5b50d280156100d257600080fd5b506100db61038b565b6040516100e8919061099b565b60405180910390f35b3480156100fd57600080fd5b50d3801561010a57600080fd5b50d2801561011757600080fd5b5061012b610126366004610958565b610419565b60405190151581526020016100e8565b34801561014757600080fd5b50d3801561015457600080fd5b50d2801561016157600080fd5b506000545b6040519081526020016100e8565b34801561018057600080fd5b50d3801561018d57600080fd5b50d2801561019a57600080fd5b5061012b6101a936600461091c565b610485565b3480156101ba57600080fd5b50d380156101c757600080fd5b50d280156101d457600080fd5b506101e86101e3366004610982565b61068d565b005b3480156101f657600080fd5b50d3801561020357600080fd5b50d2801561021057600080fd5b5060055461021e9060ff1681565b60405160ff90911681526020016100e8565b34801561023c57600080fd5b50d3801561024957600080fd5b50d2801561025657600080fd5b506101666102653660046108ce565b6001600160a01b031660009081526001602052604090205490565b34801561028c57600080fd5b50d3801561029957600080fd5b50d280156102a657600080fd5b506100db6107fe565b3480156102bb57600080fd5b50d380156102c857600080fd5b50d280156102d557600080fd5b5061012b6102e4366004610958565b61080b565b6101e861081f565b3480156102fd57600080fd5b50d3801561030a57600080fd5b50d2801561031757600080fd5b5061012b6103263660046108ce565b610892565b34801561033757600080fd5b50d3801561034457600080fd5b50d2801561035157600080fd5b506101666103603660046108e9565b6001600160a01b03918216600090815260026020908152604080832093909416825291909152205490565b6003805461039890610a1f565b80601f01602080910402602001604051908101604052809291908181526020018280546103c490610a1f565b80156104115780601f106103e657610100808354040283529160200191610411565b820191906000526020600020905b8154815290600101906020018083116103f457829003601f168201915b505050505081565b3360008181526002602090815260408083206001600160a01b038716808552925280832085905551919290917f8c5be1e5ebec7d5bd14f71427d1e84f3dd0314c0f7b2291e5b200ac8c7c3b925906104749086815260200190565b60405180910390a350600192915050565b6001600160a01b0383166000908152600160205260408120548211156104eb5760405162461bcd60e51b81526020600482015260166024820152750e6e4c640c4c2d8c2dcc6ca40dcdee840cadcdeeaced60531b60448201526064015b60405180910390fd5b6001600160a01b038416331480159061052957506001600160a01b038416600090815260026020908152604080832033845290915290205460001914155b156105da576001600160a01b03841660009081526002602090815260408083203384529091529020548211156105a15760405162461bcd60e51b815260206004820152601b60248201527f73726320616c6c6f77616e6365206973206e6f7420656e6f756768000000000060448201526064016104e2565b6001600160a01b0384166000908152600260209081526040808320338452909152812080548492906105d4908490610a08565b90915550505b6001600160a01b03841660009081526001602052604081208054849290610602908490610a08565b90915550506001600160a01b0383166000908152600160205260408120805484929061062f9084906109f0565b92505081905550826001600160a01b0316846001600160a01b03167fddf252ad1be2c89b69c2b068fc378daa952ba7f163c4a11628f55a4df523b3ef8460405161067b91815260200190565b60405180910390a35060019392505050565b336000908152600160205260409020548111156106e15760405162461bcd60e51b81526020600482015260126024820152716e6f7420656e6f7567682062616c616e636560701b60448201526064016104e2565b80600054101561072c5760405162461bcd60e51b81526020600482015260166024820152756e6f7420656e6f75676820746f74616c537570706c7960501b60448201526064016104e2565b336000908152600160205260408120805483929061074b908490610a08565b9091555050604051339082156108fc029083906000818181858888f193505050506107b05760405162461bcd60e51b815260206004820152601560248201527415d514960e881514905394d1915497d19052531151605a1b60448201526064016104e2565b806000808282546107c19190610a08565b909155505060405181815233907f7fcf532c15f0a6db0bd6d0e038bea71d30d808c7d98cb3bf7268a95bf5081b659060200160405180910390a250565b6004805461039890610a1f565b6000610818338484610485565b9392505050565b336000908152600160205260408120805434929061083e9084906109f0565b925050819055503460008082825461085691906109f0565b909155505060405134815233907fe1fffcc4923d04b559f4d29a8bfc6cda04eb5b0d3c460751c2402c5c5cc9109c9060200160405180910390a2565b60006108a082600019610419565b92915050565b600081356001600160a81b03811681146108bf57600080fd5b6001600160a01b031692915050565b6000602082840312156108e057600080fd5b610818826108a6565b600080604083850312156108fc57600080fd5b610905836108a6565b9150610913602084016108a6565b90509250929050565b60008060006060848603121561093157600080fd5b61093a846108a6565b9250610948602085016108a6565b9150604084013590509250925092565b6000806040838503121561096b57600080fd5b610974836108a6565b946020939093013593505050565b60006020828403121561099457600080fd5b5035919050565b600060208083528351808285015260005b818110156109c8578581018301518582016040015282016109ac565b818111156109da576000604083870101525b50601f01601f1916929092016040019392505050565b60008219821115610a0357610a03610a5a565b500190565b600082821015610a1a57610a1a610a5a565b500390565b600181811c90821680610a3357607f821691505b60208210811415610a5457634e487b7160e01b600052602260045260246000fd5b50919050565b634e487b7160e01b600052601160045260246000fdfea26474726f6e582212204ef8802c2186582b858e20c3d9f9f0df7a29d9d7675a72ba6c40e991511a621e64736f6c63430008060033",
  "source": "/*! WTRX.sol | SPDX-License-Identifier: MIT License */\n\npragma solidity 0.8.6;\n\nimport \"./ITokenDeposit.sol\";\nimport \"../TRC20/ITRC20.sol\";\n\ncontract WTRX is ITokenDeposit, ITRC20 {\n    event Deposit(address indexed dst, uint sad);\n    event Withdrawal(address indexed src, uint sad);\n\n    uint256 private totalSupply_;\n    mapping(address => uint) private balanceOf_;\n    mapping(address => mapping(address => uint)) private allowance_;\n\n    string public override name = \"Wrapped TRX\";\n    string public override symbol = \"WTRX\";\n    uint8 public override decimals = 6;\n\n    // receive() external payable {\n    //     deposit();\n    // }\n\n    function deposit() public payable override {\n        balanceOf_[msg.sender] += msg.value;\n        totalSupply_ += msg.value;\n        emit Deposit(msg.sender, msg.value);\n    }\n\n    function withdraw(uint sad) public override {\n        require(balanceOf_[msg.sender] >= sad, \"not enough balance\");\n        require(totalSupply_ >= sad, \"not enough totalSupply\");\n        balanceOf_[msg.sender] -= sad;\n        require(payable(msg.sender).send(sad), \"WTRX: TRANSFER_FAILED\");\n        totalSupply_ -= sad;\n        emit Withdrawal(msg.sender, sad);\n    }\n\n    function totalSupply() public view override returns (uint) {\n        return totalSupply_;\n    }\n\n    function balanceOf(address guy) public view override returns (uint) {\n        return balanceOf_[guy];\n    }\n\n    function allowance(address src, address guy)\n        public\n        view\n        override\n        returns (uint)\n    {\n        return allowance_[src][guy];\n    }\n\n    function approve(address guy, uint sad) public override returns (bool) {\n        allowance_[msg.sender][guy] = sad;\n        emit Approval(msg.sender, guy, sad);\n        return true;\n    }\n\n    function approve(address guy) public returns (bool) {\n        return approve(guy, type(uint).max);\n    }\n\n    function transfer(address dst, uint sad) public override returns (bool) {\n        return transferFrom(msg.sender, dst, sad);\n    }\n\n    function transferFrom(\n        address src,\n        address dst,\n        uint sad\n    ) public override returns (bool) {\n        require(balanceOf_[src] >= sad, \"src balance not enough\");\n\n        if (\n            src != msg.sender && allowance_[src][msg.sender] != type(uint).max\n        ) {\n            require(\n                allowance_[src][msg.sender] >= sad,\n                \"src allowance is not enough\"\n            );\n            allowance_[src][msg.sender] -= sad;\n        }\n\n        balanceOf_[src] -= sad;\n        balanceOf_[dst] += sad;\n\n        emit Transfer(src, dst, sad);\n\n        return true;\n    }\n}\n",
  "sourcePath": "C:/Dev/daubit/github/tracy-tron/tracy-tron/contracts/contracts/WTRX/WTRX.sol",
  "compiler": {
    "name": "solc",
    "version": "0.8.6+commit.0e36fba0.mod.Emscripten.clang"
  },
  "schemaVersion": "2.0.1",
  "updatedAt": "2022-11-11T14:29:54.110Z"
}